{
  "address": "0x5FbDB2315678afecb367f032d93F642f64180aa3",
  "abi": [
    {
      "inputs": [],
      "stateMutability": "nonpayable",
      "type": "constructor"
    },
    {
      "anonymous": false,
      "inputs": [
        {
          "indexed": true,
          "internalType": "address",
          "name": "owner",
          "type": "address"
        },
        {
          "indexed": true,
          "internalType": "address",
          "name": "approved",
          "type": "address"
        },
        {
          "indexed": true,
          "internalType": "uint256",
          "name": "tokenId",
          "type": "uint256"
        }
      ],
      "name": "Approval",
      "type": "event"
    },
    {
      "anonymous": false,
      "inputs": [
        {
          "indexed": true,
          "internalType": "address",
          "name": "owner",
          "type": "address"
        },
        {
          "indexed": true,
          "internalType": "address",
          "name": "operator",
          "type": "address"
        },
        {
          "indexed": false,
          "internalType": "bool",
          "name": "approved",
          "type": "bool"
        }
      ],
      "name": "ApprovalForAll",
      "type": "event"
    },
    {
      "anonymous": false,
      "inputs": [
        {
          "indexed": false,
          "internalType": "uint256",
          "name": "tokenId",
          "type": "uint256"
        },
        {
          "components": [
            {
              "internalType": "uint256",
              "name": "strength",
              "type": "uint256"
            },
            {
              "internalType": "uint256",
              "name": "stamina",
              "type": "uint256"
            },
            {
              "internalType": "uint256",
              "name": "technique",
              "type": "uint256"
            },
            {
              "internalType": "enum UltimateFightingMetaverse.Rarities",
              "name": "rarity",
              "type": "uint8"
            },
            {
              "internalType": "uint256",
              "name": "victories",
              "type": "uint256"
            }
          ],
          "indexed": false,
          "internalType": "struct UltimateFightingMetaverse.Stats",
          "name": "stats",
          "type": "tuple"
        }
      ],
      "name": "FighterCreated",
      "type": "event"
    },
    {
      "anonymous": false,
      "inputs": [
        {
          "indexed": false,
          "internalType": "uint256",
          "name": "matchId",
          "type": "uint256"
        },
        {
          "indexed": false,
          "internalType": "uint256",
          "name": "tokenId1",
          "type": "uint256"
        },
        {
          "indexed": false,
          "internalType": "uint256",
          "name": "tokenId2",
          "type": "uint256"
        },
        {
          "indexed": false,
          "internalType": "uint256",
          "name": "outcome",
          "type": "uint256"
        }
      ],
      "name": "MatchCreated",
      "type": "event"
    },
    {
      "anonymous": false,
      "inputs": [
        {
          "indexed": true,
          "internalType": "address",
          "name": "previousOwner",
          "type": "address"
        },
        {
          "indexed": true,
          "internalType": "address",
          "name": "newOwner",
          "type": "address"
        }
      ],
      "name": "OwnershipTransferred",
      "type": "event"
    },
    {
      "anonymous": false,
      "inputs": [
        {
          "indexed": false,
          "internalType": "uint256",
          "name": "roomId",
          "type": "uint256"
        },
        {
          "indexed": false,
          "internalType": "uint256",
          "name": "matchId",
          "type": "uint256"
        }
      ],
      "name": "RoomClosed",
      "type": "event"
    },
    {
      "anonymous": false,
      "inputs": [
        {
          "indexed": false,
          "internalType": "uint256",
          "name": "roomId",
          "type": "uint256"
        },
        {
          "indexed": false,
          "internalType": "uint256",
          "name": "tokenId",
          "type": "uint256"
        }
      ],
      "name": "RoomCreated",
      "type": "event"
    },
    {
      "anonymous": false,
      "inputs": [
        {
          "indexed": true,
          "internalType": "address",
          "name": "from",
          "type": "address"
        },
        {
          "indexed": true,
          "internalType": "address",
          "name": "to",
          "type": "address"
        },
        {
          "indexed": true,
          "internalType": "uint256",
          "name": "tokenId",
          "type": "uint256"
        }
      ],
      "name": "Transfer",
      "type": "event"
    },
    {
      "inputs": [
        {
          "internalType": "address",
          "name": "to",
          "type": "address"
        },
        {
          "internalType": "uint256",
          "name": "tokenId",
          "type": "uint256"
        }
      ],
      "name": "approve",
      "outputs": [],
      "stateMutability": "nonpayable",
      "type": "function"
    },
    {
      "inputs": [
        {
          "internalType": "address",
          "name": "owner",
          "type": "address"
        }
      ],
      "name": "balanceOf",
      "outputs": [
        {
          "internalType": "uint256",
          "name": "",
          "type": "uint256"
        }
      ],
      "stateMutability": "view",
      "type": "function"
    },
    {
      "inputs": [],
      "name": "getAllMatches",
      "outputs": [
        {
          "components": [
            {
              "internalType": "uint256",
              "name": "matchId",
              "type": "uint256"
            },
            {
              "internalType": "uint256",
              "name": "tokenId1",
              "type": "uint256"
            },
            {
              "internalType": "uint256",
              "name": "tokenId2",
              "type": "uint256"
            },
            {
              "internalType": "uint256",
              "name": "winnerId",
              "type": "uint256"
            }
          ],
          "internalType": "struct UltimateFightingMetaverse.Match[]",
          "name": "",
          "type": "tuple[]"
        }
      ],
      "stateMutability": "view",
      "type": "function"
    },
    {
      "inputs": [],
      "name": "getAllRooms",
      "outputs": [
        {
          "components": [
            {
              "internalType": "uint256",
              "name": "matchId",
              "type": "uint256"
            },
            {
              "internalType": "uint256",
              "name": "tokenId1",
              "type": "uint256"
            },
            {
              "internalType": "uint256",
              "name": "tokenId2",
              "type": "uint256"
            },
            {
              "internalType": "uint256",
              "name": "winnerId",
              "type": "uint256"
            }
          ],
          "internalType": "struct UltimateFightingMetaverse.Match[]",
          "name": "",
          "type": "tuple[]"
        }
      ],
      "stateMutability": "view",
      "type": "function"
    },
    {
      "inputs": [
        {
          "internalType": "uint256",
          "name": "tokenId",
          "type": "uint256"
        }
      ],
      "name": "getApproved",
      "outputs": [
        {
          "internalType": "address",
          "name": "",
          "type": "address"
        }
      ],
      "stateMutability": "view",
      "type": "function"
    },
    {
      "inputs": [
        {
          "internalType": "uint256",
          "name": "tokenId",
          "type": "uint256"
        }
      ],
      "name": "getFighterStats",
      "outputs": [
        {
          "components": [
            {
              "internalType": "uint256",
              "name": "strength",
              "type": "uint256"
            },
            {
              "internalType": "uint256",
              "name": "stamina",
              "type": "uint256"
            },
            {
              "internalType": "uint256",
              "name": "technique",
              "type": "uint256"
            },
            {
              "internalType": "enum UltimateFightingMetaverse.Rarities",
              "name": "rarity",
              "type": "uint8"
            },
            {
              "internalType": "uint256",
              "name": "victories",
              "type": "uint256"
            }
          ],
          "internalType": "struct UltimateFightingMetaverse.Stats",
          "name": "",
          "type": "tuple"
        }
      ],
      "stateMutability": "view",
      "type": "function"
    },
    {
      "inputs": [],
      "name": "getLastTokenId",
      "outputs": [
        {
          "internalType": "uint256",
          "name": "",
          "type": "uint256"
        }
      ],
      "stateMutability": "view",
      "type": "function"
    },
    {
      "inputs": [
        {
          "internalType": "uint256",
          "name": "_matchId",
          "type": "uint256"
        }
      ],
      "name": "getMatch",
      "outputs": [
        {
          "components": [
            {
              "internalType": "uint256",
              "name": "matchId",
              "type": "uint256"
            },
            {
              "internalType": "uint256",
              "name": "tokenId1",
              "type": "uint256"
            },
            {
              "internalType": "uint256",
              "name": "tokenId2",
              "type": "uint256"
            },
            {
              "internalType": "uint256",
              "name": "winnerId",
              "type": "uint256"
            }
          ],
          "internalType": "struct UltimateFightingMetaverse.Match",
          "name": "",
          "type": "tuple"
        }
      ],
      "stateMutability": "view",
      "type": "function"
    },
    {
      "inputs": [],
      "name": "getMaxRooms",
      "outputs": [
        {
          "internalType": "uint256",
          "name": "",
          "type": "uint256"
        }
      ],
      "stateMutability": "pure",
      "type": "function"
    },
    {
      "inputs": [],
      "name": "getMaxTokenSupply",
      "outputs": [
        {
          "internalType": "uint256",
          "name": "",
          "type": "uint256"
        }
      ],
      "stateMutability": "pure",
      "type": "function"
    },
    {
      "inputs": [],
      "name": "getMintPrice",
      "outputs": [
        {
          "internalType": "uint256",
          "name": "",
          "type": "uint256"
        }
      ],
      "stateMutability": "view",
      "type": "function"
    },
    {
      "inputs": [],
      "name": "getNextTokenId",
      "outputs": [
        {
          "internalType": "uint256",
          "name": "",
          "type": "uint256"
        }
      ],
      "stateMutability": "view",
      "type": "function"
    },
    {
      "inputs": [],
      "name": "getNumMatches",
      "outputs": [
        {
          "internalType": "uint256",
          "name": "",
          "type": "uint256"
        }
      ],
      "stateMutability": "view",
      "type": "function"
    },
    {
      "inputs": [
        {
          "internalType": "uint256",
          "name": "tokenId",
          "type": "uint256"
        }
      ],
      "name": "getOwner",
      "outputs": [
        {
          "internalType": "address",
          "name": "",
          "type": "address"
        }
      ],
      "stateMutability": "view",
      "type": "function"
    },
    {
      "inputs": [
        {
          "internalType": "address",
          "name": "_owner",
          "type": "address"
        }
      ],
      "name": "getTokensOwnedByAddress",
      "outputs": [
        {
          "internalType": "uint256[]",
          "name": "",
          "type": "uint256[]"
        }
      ],
      "stateMutability": "view",
      "type": "function"
    },
    {
      "inputs": [
        {
          "internalType": "address",
          "name": "owner",
          "type": "address"
        },
        {
          "internalType": "address",
          "name": "operator",
          "type": "address"
        }
      ],
      "name": "isApprovedForAll",
      "outputs": [
        {
          "internalType": "bool",
          "name": "",
          "type": "bool"
        }
      ],
      "stateMutability": "view",
      "type": "function"
    },
    {
      "inputs": [
        {
          "internalType": "uint8",
          "name": "_roomNumber",
          "type": "uint8"
        },
        {
          "internalType": "uint256",
          "name": "_tokenId",
          "type": "uint256"
        }
      ],
      "name": "joinRoom",
      "outputs": [],
      "stateMutability": "nonpayable",
      "type": "function"
    },
    {
      "inputs": [],
      "name": "name",
      "outputs": [
        {
          "internalType": "string",
          "name": "",
          "type": "string"
        }
      ],
      "stateMutability": "view",
      "type": "function"
    },
    {
      "inputs": [],
      "name": "owner",
      "outputs": [
        {
          "internalType": "address",
          "name": "",
          "type": "address"
        }
      ],
      "stateMutability": "view",
      "type": "function"
    },
    {
      "inputs": [
        {
          "internalType": "uint256",
          "name": "tokenId",
          "type": "uint256"
        }
      ],
      "name": "ownerOf",
      "outputs": [
        {
          "internalType": "address",
          "name": "",
          "type": "address"
        }
      ],
      "stateMutability": "view",
      "type": "function"
    },
    {
      "inputs": [],
      "name": "renounceOwnership",
      "outputs": [],
      "stateMutability": "nonpayable",
      "type": "function"
    },
    {
      "inputs": [
        {
          "internalType": "string",
          "name": "_tokenURI",
          "type": "string"
        }
      ],
      "name": "safeMint",
      "outputs": [],
      "stateMutability": "payable",
      "type": "function"
    },
    {
      "inputs": [
        {
          "internalType": "address",
          "name": "from",
          "type": "address"
        },
        {
          "internalType": "address",
          "name": "to",
          "type": "address"
        },
        {
          "internalType": "uint256",
          "name": "tokenId",
          "type": "uint256"
        }
      ],
      "name": "safeTransferFrom",
      "outputs": [],
      "stateMutability": "nonpayable",
      "type": "function"
    },
    {
      "inputs": [
        {
          "internalType": "address",
          "name": "from",
          "type": "address"
        },
        {
          "internalType": "address",
          "name": "to",
          "type": "address"
        },
        {
          "internalType": "uint256",
          "name": "tokenId",
          "type": "uint256"
        },
        {
          "internalType": "bytes",
          "name": "data",
          "type": "bytes"
        }
      ],
      "name": "safeTransferFrom",
      "outputs": [],
      "stateMutability": "nonpayable",
      "type": "function"
    },
    {
      "inputs": [
        {
          "internalType": "address",
          "name": "operator",
          "type": "address"
        },
        {
          "internalType": "bool",
          "name": "approved",
          "type": "bool"
        }
      ],
      "name": "setApprovalForAll",
      "outputs": [],
      "stateMutability": "nonpayable",
      "type": "function"
    },
    {
      "inputs": [
        {
          "internalType": "uint256",
          "name": "_newPrice",
          "type": "uint256"
        }
      ],
      "name": "setMintPrice",
      "outputs": [],
      "stateMutability": "nonpayable",
      "type": "function"
    },
    {
      "inputs": [
        {
          "internalType": "bytes4",
          "name": "interfaceId",
          "type": "bytes4"
        }
      ],
      "name": "supportsInterface",
      "outputs": [
        {
          "internalType": "bool",
          "name": "",
          "type": "bool"
        }
      ],
      "stateMutability": "view",
      "type": "function"
    },
    {
      "inputs": [],
      "name": "symbol",
      "outputs": [
        {
          "internalType": "string",
          "name": "",
          "type": "string"
        }
      ],
      "stateMutability": "view",
      "type": "function"
    },
    {
      "inputs": [
        {
          "internalType": "uint256",
          "name": "index",
          "type": "uint256"
        }
      ],
      "name": "tokenByIndex",
      "outputs": [
        {
          "internalType": "uint256",
          "name": "",
          "type": "uint256"
        }
      ],
      "stateMutability": "view",
      "type": "function"
    },
    {
      "inputs": [
        {
          "internalType": "address",
          "name": "owner",
          "type": "address"
        },
        {
          "internalType": "uint256",
          "name": "index",
          "type": "uint256"
        }
      ],
      "name": "tokenOfOwnerByIndex",
      "outputs": [
        {
          "internalType": "uint256",
          "name": "",
          "type": "uint256"
        }
      ],
      "stateMutability": "view",
      "type": "function"
    },
    {
      "inputs": [
        {
          "internalType": "uint256",
          "name": "tokenId",
          "type": "uint256"
        }
      ],
      "name": "tokenURI",
      "outputs": [
        {
          "internalType": "string",
          "name": "",
          "type": "string"
        }
      ],
      "stateMutability": "view",
      "type": "function"
    },
    {
      "inputs": [],
      "name": "totalSupply",
      "outputs": [
        {
          "internalType": "uint256",
          "name": "",
          "type": "uint256"
        }
      ],
      "stateMutability": "view",
      "type": "function"
    },
    {
      "inputs": [
        {
          "internalType": "address",
          "name": "from",
          "type": "address"
        },
        {
          "internalType": "address",
          "name": "to",
          "type": "address"
        },
        {
          "internalType": "uint256",
          "name": "tokenId",
          "type": "uint256"
        }
      ],
      "name": "transferFrom",
      "outputs": [],
      "stateMutability": "nonpayable",
      "type": "function"
    },
    {
      "inputs": [
        {
          "internalType": "address",
          "name": "newOwner",
          "type": "address"
        }
      ],
      "name": "transferOwnership",
      "outputs": [],
      "stateMutability": "nonpayable",
      "type": "function"
    }
  ],
  "transactionHash": "0x6a155a52541764405909aa9d6d0204a4ac9a0900a4e3242a590b389afa05c527",
  "args": [],
  "numDeployments": 1,
  "solcInputHash": "5d0d479d854011243fb58a9ff5f361a5",
  "bytecode": "0x60c06040526103e8608090815250662386f26fc10000600d55600860a0908152503480156200002d57600080fd5b506040518060400160405280601b81526020017f556c74696d617465204669676874696e67204d657461766572736500000000008152506040518060400160405280600381526020017f55464d00000000000000000000000000000000000000000000000000000000008152508160009080519060200190620000b292919062000464565b508060019080519060200190620000cb92919062000464565b505050620000ee620000e26200010460201b60201c565b6200010c60201b60201c565b620000fe620001d260201b60201c565b620006b2565b600033905090565b6000600b60009054906101000a900473ffffffffffffffffffffffffffffffffffffffff16905081600b60006101000a81548173ffffffffffffffffffffffffffffffffffffffff021916908373ffffffffffffffffffffffffffffffffffffffff1602179055508173ffffffffffffffffffffffffffffffffffffffff168173ffffffffffffffffffffffffffffffffffffffff167f8be0079c531659141344cd1fd0a4f28419497f9722a3daafe3b4186f6b6457e060405160405180910390a35050565b6040518060400160405280600060ff168152602001603260ff16815250600e600060405160200162000205919062000594565b60405160208183030381529060405260405162000223919062000634565b908152602001604051809103902060008201518160000160006101000a81548160ff021916908360ff16021790555060208201518160000160016101000a81548160ff021916908360ff1602179055509050506040518060400160405280603260ff168152602001606460ff16815250600e6001604051602001620002a9919062000594565b604051602081830303815290604052604051620002c7919062000634565b908152602001604051809103902060008201518160000160006101000a81548160ff021916908360ff16021790555060208201518160000160016101000a81548160ff021916908360ff1602179055509050506040518060400160405280605060ff168152602001607860ff16815250600e60026040516020016200034d919062000594565b6040516020818303038152906040526040516200036b919062000634565b908152602001604051809103902060008201518160000160006101000a81548160ff021916908360ff16021790555060208201518160000160016101000a81548160ff021916908360ff1602179055509050506040518060400160405280606460ff16815260200160aa60ff16815250600e6003604051602001620003f1919062000594565b6040516020818303038152906040526040516200040f919062000634565b908152602001604051809103902060008201518160000160006101000a81548160ff021916908360ff16021790555060208201518160000160016101000a81548160ff021916908360ff160217905550905050565b82805462000472906200067c565b90600052602060002090601f016020900481019282620004965760008555620004e2565b82601f10620004b157805160ff1916838001178555620004e2565b82800160010185558215620004e2579182015b82811115620004e1578251825591602001919060010190620004c4565b5b509050620004f19190620004f5565b5090565b5b8082111562000510576000816000905550600101620004f6565b5090565b7f4e487b7100000000000000000000000000000000000000000000000000000000600052602160045260246000fd5b6004811062000557576200055662000514565b5b50565b60008190506200056a8262000543565b919050565b60006200057c826200055a565b9050919050565b6200058e816200056f565b82525050565b6000602082019050620005ab600083018462000583565b92915050565b600081519050919050565b600081905092915050565b60005b83811015620005e7578082015181840152602081019050620005ca565b83811115620005f7576000848401525b50505050565b60006200060a82620005b1565b620006168185620005bc565b935062000628818560208601620005c7565b80840191505092915050565b6000620006428284620005fd565b915081905092915050565b7f4e487b7100000000000000000000000000000000000000000000000000000000600052602260045260246000fd5b600060028204905060018216806200069557607f821691505b60208210811415620006ac57620006ab6200064d565b5b50919050565b60805160a051615ab46200070960003960008181610a6c01528181610e3f01528181611c830152611cfc015260008181610dcc0152818161128801528181611333015281816114fa0152611aa00152615ab46000f3fe6080604052600436106101f95760003560e01c806370a082311161010d578063c17c5a45116100a0578063e985e9c51161006f578063e985e9c514610774578063f2fde38b146107b1578063f4a0a528146107da578063f72d53ba14610803578063f794cf2d1461082e576101f9565b8063c17c5a45146106a4578063c41a360a146106cf578063c87b56dd1461070c578063caa0f92a14610749576101f9565b806395d89b41116100dc57806395d89b41146105fc578063a22cb46514610627578063a7f93ebd14610650578063b88d4fde1461067b576101f9565b806370a0823114610552578063715018a61461058f57806383c4c00d146105a65780638da5cb5b146105d1576101f9565b80633d092b3d116101905780634cdf94481161015f5780634cdf9448146104545780634f6ccce71461047f57806355af86c4146104bc5780636352211e146104f9578063695850fb14610536576101f9565b80633d092b3d1461038857806342842e0e146103c557806348756c17146103ee5780634b8c23501461042b576101f9565b806318160ddd116101cc57806318160ddd146102cc5780631bffb58f146102f757806323b872dd146103225780632f745c591461034b576101f9565b806301ffc9a7146101fe57806306fdde031461023b578063081812fc14610266578063095ea7b3146102a3575b600080fd5b34801561020a57600080fd5b5061022560048036038101906102209190613d61565b610859565b6040516102329190613da9565b60405180910390f35b34801561024757600080fd5b5061025061086b565b60405161025d9190613e5d565b60405180910390f35b34801561027257600080fd5b5061028d60048036038101906102889190613eb5565b6108fd565b60405161029a9190613f23565b60405180910390f35b3480156102af57600080fd5b506102ca60048036038101906102c59190613f6a565b610943565b005b3480156102d857600080fd5b506102e1610a5b565b6040516102ee9190613fb9565b60405180910390f35b34801561030357600080fd5b5061030c610a68565b6040516103199190613fb9565b60405180910390f35b34801561032e57600080fd5b5061034960048036038101906103449190613fd4565b610a90565b005b34801561035757600080fd5b50610372600480360381019061036d9190613f6a565b610af0565b60405161037f9190613fb9565b60405180910390f35b34801561039457600080fd5b506103af60048036038101906103aa9190613eb5565b610b95565b6040516103bc919061408b565b60405180910390f35b3480156103d157600080fd5b506103ec60048036038101906103e79190613fd4565b610c44565b005b3480156103fa57600080fd5b50610415600480360381019061041091906140a6565b610c64565b6040516104229190614182565b60405180910390f35b34801561043757600080fd5b50610452600480360381019061044d91906141dd565b610dbe565b005b34801561046057600080fd5b50610469611284565b6040516104769190613fb9565b60405180910390f35b34801561048b57600080fd5b506104a660048036038101906104a19190613eb5565b6112ac565b6040516104b39190613fb9565b60405180910390f35b3480156104c857600080fd5b506104e360048036038101906104de9190613eb5565b61131d565b6040516104f091906142fc565b60405180910390f35b34801561050557600080fd5b50610520600480360381019061051b9190613eb5565b61141e565b60405161052d9190613f23565b60405180910390f35b610550600480360381019061054b919061444c565b6114a5565b005b34801561055e57600080fd5b50610579600480360381019061057491906140a6565b611773565b6040516105869190613fb9565b60405180910390f35b34801561059b57600080fd5b506105a461182b565b005b3480156105b257600080fd5b506105bb61183f565b6040516105c89190613fb9565b60405180910390f35b3480156105dd57600080fd5b506105e6611850565b6040516105f39190613f23565b60405180910390f35b34801561060857600080fd5b5061061161187a565b60405161061e9190613e5d565b60405180910390f35b34801561063357600080fd5b5061064e600480360381019061064991906144c1565b61190c565b005b34801561065c57600080fd5b50610665611922565b6040516106729190613fb9565b60405180910390f35b34801561068757600080fd5b506106a2600480360381019061069d91906145a2565b61192c565b005b3480156106b057600080fd5b506106b961198e565b6040516106c69190614729565b60405180910390f35b3480156106db57600080fd5b506106f660048036038101906106f19190613eb5565b611a90565b6040516107039190613f23565b60405180910390f35b34801561071857600080fd5b50610733600480360381019061072e9190613eb5565b611b13565b6040516107409190613e5d565b60405180910390f35b34801561075557600080fd5b5061075e611b25565b60405161076b9190613fb9565b60405180910390f35b34801561078057600080fd5b5061079b6004803603810190610796919061474b565b611b42565b6040516107a89190613da9565b60405180910390f35b3480156107bd57600080fd5b506107d860048036038101906107d391906140a6565b611bd6565b005b3480156107e657600080fd5b5061080160048036038101906107fc9190613eb5565b611c5a565b005b34801561080f57600080fd5b50610818611c6c565b6040516108259190613fb9565b60405180910390f35b34801561083a57600080fd5b50610843611c7d565b6040516108509190614729565b60405180910390f35b600061086482611db9565b9050919050565b60606000805461087a906147ba565b80601f01602080910402602001604051908101604052809291908181526020018280546108a6906147ba565b80156108f35780601f106108c8576101008083540402835291602001916108f3565b820191906000526020600020905b8154815290600101906020018083116108d657829003601f168201915b5050505050905090565b600061090882611e33565b6004600083815260200190815260200160002060009054906101000a900473ffffffffffffffffffffffffffffffffffffffff169050919050565b600061094e8261141e565b90508073ffffffffffffffffffffffffffffffffffffffff168373ffffffffffffffffffffffffffffffffffffffff1614156109bf576040517f08c379a00000000000000000000000000000000000000000000000000000000081526004016109b69061485e565b60405180910390fd5b8073ffffffffffffffffffffffffffffffffffffffff166109de611e7e565b73ffffffffffffffffffffffffffffffffffffffff161480610a0d5750610a0c81610a07611e7e565b611b42565b5b610a4c576040517f08c379a0000000000000000000000000000000000000000000000000000000008152600401610a43906148f0565b60405180910390fd5b610a568383611e86565b505050565b6000600880549050905090565b60007f0000000000000000000000000000000000000000000000000000000000000000905090565b610aa1610a9b611e7e565b82611f3f565b610ae0576040517f08c379a0000000000000000000000000000000000000000000000000000000008152600401610ad790614982565b60405180910390fd5b610aeb838383611fd4565b505050565b6000610afb83611773565b8210610b3c576040517f08c379a0000000000000000000000000000000000000000000000000000000008152600401610b3390614a14565b60405180910390fd5b600660008473ffffffffffffffffffffffffffffffffffffffff1673ffffffffffffffffffffffffffffffffffffffff168152602001908152602001600020600083815260200190815260200160002054905092915050565b610b9d613bc9565b81600081118015610bb75750610bb360106122ce565b8111155b610bf6576040517f08c379a0000000000000000000000000000000000000000000000000000000008152600401610bed90614a80565b60405180910390fd5b60136000848152602001908152602001600020604051806080016040529081600082015481526020016001820154815260200160028201548152602001600382015481525050915050919050565b610c5f8383836040518060200160405280600081525061192c565b505050565b60606000610c7183611773565b90506000811415610cce57600067ffffffffffffffff811115610c9757610c96614321565b5b604051908082528060200260200182016040528015610cc55781602001602082028036833780820191505090505b50915050610db9565b60008167ffffffffffffffff811115610cea57610ce9614321565b5b604051908082528060200260200182016040528015610d185781602001602082028036833780820191505090505b509050600080600190505b610d2d600c6122ce565b8111610db1578573ffffffffffffffffffffffffffffffffffffffff16610d538261141e565b73ffffffffffffffffffffffffffffffffffffffff161415610d9e5780838381518110610d8357610d82614aa0565b5b6020026020010181815250508180610d9a90614afe565b9250505b8080610da990614afe565b915050610d23565b508193505050505b919050565b80600081118015610def57507f00000000000000000000000000000000000000000000000000000000000000008111155b610e2e576040517f08c379a0000000000000000000000000000000000000000000000000000000008152600401610e2590614b93565b60405180910390fd5b8260ff16600081118015610e6257507f00000000000000000000000000000000000000000000000000000000000000008111155b610ea1576040517f08c379a0000000000000000000000000000000000000000000000000000000008152600401610e9890614bff565b60405180910390fd5b823373ffffffffffffffffffffffffffffffffffffffff16610ec28261141e565b73ffffffffffffffffffffffffffffffffffffffff1614610f18576040517f08c379a0000000000000000000000000000000000000000000000000000000008152600401610f0f90614c91565b60405180910390fd5b6000601260008760ff1660ff168152602001908152602001600020600101541415610f9c5783601260008760ff1660ff168152602001908152602001600020600101819055507fce010a20c19ee1b8a42baca23af0187045e22b247e4ba704cc780cf175506d328585604051610f8f929190614cec565b60405180910390a161127d565b6000601260008760ff1660ff1681526020019081526020016000206002015414156110465783601260008760ff1660ff168152602001908152602001600020600101541415611020576040517f08c379a000000000000000000000000000000000000000000000000000000000815260040161101790614d87565b60405180910390fd5b83601260008760ff1660ff16815260200190815260200160002060020181905550611081565b6040517f08c379a000000000000000000000000000000000000000000000000000000000815260040161107890614df3565b60405180910390fd5b60006110c5601260008860ff1660ff16815260200190815260200160002060010154601260008960ff1660ff168152602001908152602001600020600201546122dc565b905080601260008860ff1660ff168152602001908152602001600020600301819055506110f2601061241e565b601260008760ff1660ff1681526020019081526020016000206013600061111960106122ce565b8152602001908152602001600020600082015481600001556001820154816001015560028201548160020155600382015481600301559050507fb4ac4ed0731b859e8e643e842c48ff0a96c8006bebe435317e13f82818805b2861117d60106122ce565b601260008960ff1660ff16815260200190815260200160002060010154601260008a60ff1660ff16815260200190815260200160002060020154846040516111c89493929190614e13565b60405180910390a160405180608001604052806000815260200160008152602001600081526020016000815250601260008860ff1660ff168152602001908152602001600020600082015181600001556020820151816001015560408201518160020155606082015181600301559050507fd1b83eb080c8e9363d7d50f5fde217e1b3bc5ff679ca5e6d5b7146f671e589478661126560106122ce565b604051611273929190614cec565b60405180910390a1505b5050505050565b60007f0000000000000000000000000000000000000000000000000000000000000000905090565b60006112b6610a5b565b82106112f7576040517f08c379a00000000000000000000000000000000000000000000000000000000081526004016112ee90614eca565b60405180910390fd5b6008828154811061130b5761130a614aa0565b5b90600052602060002001549050919050565b611325613bf1565b8160008111801561135657507f00000000000000000000000000000000000000000000000000000000000000008111155b611395576040517f08c379a000000000000000000000000000000000000000000000000000000000815260040161138c90614b93565b60405180910390fd5b600f60008481526020019081526020016000206040518060a00160405290816000820154815260200160018201548152602001600282015481526020016003820160009054906101000a900460ff1660038111156113f6576113f561421d565b5b60038111156114085761140761421d565b5b8152602001600482015481525050915050919050565b60008061142a83612434565b9050600073ffffffffffffffffffffffffffffffffffffffff168173ffffffffffffffffffffffffffffffffffffffff16141561149c576040517f08c379a000000000000000000000000000000000000000000000000000000000815260040161149390614f36565b60405180910390fd5b80915050919050565b600d543410156114ea576040517f08c379a00000000000000000000000000000000000000000000000000000000081526004016114e190614fa2565b60405180910390fd5b60006114f6600c6122ce565b90507f000000000000000000000000000000000000000000000000000000000000000081111561155b576040517f08c379a00000000000000000000000000000000000000000000000000000000081526004016115529061500e565b60405180910390fd5b611565600c61241e565b6000611571600c6122ce565b905061157d3382612471565b611587818461248f565b61158f612503565b600f600083815260200190815260200160002060030160006101000a81548160ff021916908360038111156115c7576115c661421d565b5b0217905550600061163e6115fd600f600085815260200190815260200160002060030160009054906101000a900460ff166125ac565b6000015160ff16611630600f600086815260200190815260200160002060030160009054906101000a900460ff166125ac565b6020015160ff166003612899565b90508060008151811061165457611653614aa0565b5b60200260200101516050611668919061502e565b600f6000848152602001908152602001600020600001819055508060018151811061169657611695614aa0565b5b602002602001015160506116aa919061502e565b600f600084815260200190815260200160002060010181905550806002815181106116d8576116d7614aa0565b5b602002602001015160506116ec919061502e565b600f6000848152602001908152602001600020600201819055506000600f6000848152602001908152602001600020600401819055507f43fe67fc749d5540f036e7b378580be67f4027cb2ccb1e4bc71a83b1fd1129b282600f600085815260200190815260200160002060405161176592919061517d565b60405180910390a150505050565b60008073ffffffffffffffffffffffffffffffffffffffff168273ffffffffffffffffffffffffffffffffffffffff1614156117e4576040517f08c379a00000000000000000000000000000000000000000000000000000000081526004016117db90615218565b60405180910390fd5b600360008373ffffffffffffffffffffffffffffffffffffffff1673ffffffffffffffffffffffffffffffffffffffff168152602001908152602001600020549050919050565b61183361299b565b61183d6000612a19565b565b600061184b600c6122ce565b905090565b6000600b60009054906101000a900473ffffffffffffffffffffffffffffffffffffffff16905090565b606060018054611889906147ba565b80601f01602080910402602001604051908101604052809291908181526020018280546118b5906147ba565b80156119025780601f106118d757610100808354040283529160200191611902565b820191906000526020600020905b8154815290600101906020018083116118e557829003601f168201915b5050505050905090565b61191e611917611e7e565b8383612adf565b5050565b6000600d54905090565b61193d611937611e7e565b83611f3f565b61197c576040517f08c379a000000000000000000000000000000000000000000000000000000000815260040161197390614982565b60405180910390fd5b61198884848484612c4c565b50505050565b6060600061199c60106122ce565b67ffffffffffffffff8111156119b5576119b4614321565b5b6040519080825280602002602001820160405280156119ee57816020015b6119db613bc9565b8152602001906001900390816119d35790505b50905060005b6119fe60106122ce565b811015611a885760136000600183611a16919061502e565b8152602001908152602001600020604051806080016040529081600082015481526020016001820154815260200160028201548152602001600382015481525050828281518110611a6a57611a69614aa0565b5b60200260200101819052508080611a8090614afe565b9150506119f4565b508091505090565b600081600081118015611ac357507f00000000000000000000000000000000000000000000000000000000000000008111155b611b02576040517f08c379a0000000000000000000000000000000000000000000000000000000008152600401611af990614b93565b60405180910390fd5b611b0b8361141e565b915050919050565b6060611b1e82612ca8565b9050919050565b60006001611b33600c6122ce565b611b3d919061502e565b905090565b6000600560008473ffffffffffffffffffffffffffffffffffffffff1673ffffffffffffffffffffffffffffffffffffffff16815260200190815260200160002060008373ffffffffffffffffffffffffffffffffffffffff1673ffffffffffffffffffffffffffffffffffffffff16815260200190815260200160002060009054906101000a900460ff16905092915050565b611bde61299b565b600073ffffffffffffffffffffffffffffffffffffffff168173ffffffffffffffffffffffffffffffffffffffff161415611c4e576040517f08c379a0000000000000000000000000000000000000000000000000000000008152600401611c45906152aa565b60405180910390fd5b611c5781612a19565b50565b611c6261299b565b80600d8190555050565b6000611c7860106122ce565b905090565b606060007f000000000000000000000000000000000000000000000000000000000000000067ffffffffffffffff811115611cbb57611cba614321565b5b604051908082528060200260200182016040528015611cf457816020015b611ce1613bc9565b815260200190600190039081611cd95790505b50905060005b7f00000000000000000000000000000000000000000000000000000000000000008160ff161015611db15760126000600183611d3691906152ca565b60ff1660ff168152602001908152602001600020604051806080016040529081600082015481526020016001820154815260200160028201548152602001600382015481525050828260ff1681518110611d9357611d92614aa0565b5b60200260200101819052508080611da990615301565b915050611cfa565b508091505090565b60007f780e9d63000000000000000000000000000000000000000000000000000000007bffffffffffffffffffffffffffffffffffffffffffffffffffffffff1916827bffffffffffffffffffffffffffffffffffffffffffffffffffffffff19161480611e2c5750611e2b82612dbb565b5b9050919050565b611e3c81612e9d565b611e7b576040517f08c379a0000000000000000000000000000000000000000000000000000000008152600401611e7290614f36565b60405180910390fd5b50565b600033905090565b816004600083815260200190815260200160002060006101000a81548173ffffffffffffffffffffffffffffffffffffffff021916908373ffffffffffffffffffffffffffffffffffffffff160217905550808273ffffffffffffffffffffffffffffffffffffffff16611ef98361141e565b73ffffffffffffffffffffffffffffffffffffffff167f8c5be1e5ebec7d5bd14f71427d1e84f3dd0314c0f7b2291e5b200ac8c7c3b92560405160405180910390a45050565b600080611f4b8361141e565b90508073ffffffffffffffffffffffffffffffffffffffff168473ffffffffffffffffffffffffffffffffffffffff161480611f8d5750611f8c8185611b42565b5b80611fcb57508373ffffffffffffffffffffffffffffffffffffffff16611fb3846108fd565b73ffffffffffffffffffffffffffffffffffffffff16145b91505092915050565b8273ffffffffffffffffffffffffffffffffffffffff16611ff48261141e565b73ffffffffffffffffffffffffffffffffffffffff161461204a576040517f08c379a00000000000000000000000000000000000000000000000000000000081526004016120419061539d565b60405180910390fd5b600073ffffffffffffffffffffffffffffffffffffffff168273ffffffffffffffffffffffffffffffffffffffff1614156120ba576040517f08c379a00000000000000000000000000000000000000000000000000000000081526004016120b19061542f565b60405180910390fd5b6120c78383836001612ede565b8273ffffffffffffffffffffffffffffffffffffffff166120e78261141e565b73ffffffffffffffffffffffffffffffffffffffff161461213d576040517f08c379a00000000000000000000000000000000000000000000000000000000081526004016121349061539d565b60405180910390fd5b6004600082815260200190815260200160002060006101000a81549073ffffffffffffffffffffffffffffffffffffffff02191690556001600360008573ffffffffffffffffffffffffffffffffffffffff1673ffffffffffffffffffffffffffffffffffffffff168152602001908152602001600020600082825403925050819055506001600360008473ffffffffffffffffffffffffffffffffffffffff1673ffffffffffffffffffffffffffffffffffffffff16815260200190815260200160002060008282540192505081905550816002600083815260200190815260200160002060006101000a81548173ffffffffffffffffffffffffffffffffffffffff021916908373ffffffffffffffffffffffffffffffffffffffff160217905550808273ffffffffffffffffffffffffffffffffffffffff168473ffffffffffffffffffffffffffffffffffffffff167fddf252ad1be2c89b69c2b068fc378daa952ba7f163c4a11628f55a4df523b3ef60405160405180910390a46122c98383836001612ef0565b505050565b600081600001549050919050565b6000806122ed600060646001612899565b600081518110612300576122ff614aa0565b5b6020026020010151600f600086815260200190815260200160002060020154600f600087815260200190815260200160002060010154600f600088815260200190815260200160002060000154612357919061502e565b612361919061502e565b61236b919061502e565b9050600061237d600060646001612899565b6000815181106123905761238f614aa0565b5b6020026020010151600f600086815260200190815260200160002060020154600f600087815260200190815260200160002060010154600f6000888152602001908152602001600020600001546123e7919061502e565b6123f1919061502e565b6123fb919061502e565b9050600081831061240e57859050612412565b8490505b80935050505092915050565b6001816000016000828254019250508190555050565b60006002600083815260200190815260200160002060009054906101000a900473ffffffffffffffffffffffffffffffffffffffff169050919050565b61248b828260405180602001604052806000815250612ef6565b5050565b61249882612e9d565b6124d7576040517f08c379a00000000000000000000000000000000000000000000000000000000081526004016124ce906154c1565b60405180910390fd5b80600a600084815260200190815260200160002090805190602001906124fe929190613c32565b505050565b60008061271060014361251691906154e1565b406040516020016125279190615540565b6040516020818303038152906040528051906020012060001c61254a919061558a565b9050611388811161255f5760009150506125a9565b6113888111801561257257506121348111155b156125815760019150506125a9565b61213481118015612594575061251c8111155b156125a35760029150506125a9565b60039150505b90565b6125b4613cb8565b600060038111156125c8576125c761421d565b5b8260038111156125db576125da61421d565b5b141561266b57600e60006040516020016125f591906155ca565b604051602081830303815290604052604051612611919061562c565b90815260200160405180910390206040518060400160405290816000820160009054906101000a900460ff1660ff1660ff1681526020016000820160019054906101000a900460ff1660ff1660ff16815250509050612894565b6001600381111561267f5761267e61421d565b5b8260038111156126925761269161421d565b5b141561272257600e60016040516020016126ac91906155ca565b6040516020818303038152906040526040516126c8919061562c565b90815260200160405180910390206040518060400160405290816000820160009054906101000a900460ff1660ff1660ff1681526020016000820160019054906101000a900460ff1660ff1660ff16815250509050612894565b600260038111156127365761273561421d565b5b8260038111156127495761274861421d565b5b14156127d957600e600260405160200161276391906155ca565b60405160208183030381529060405260405161277f919061562c565b90815260200160405180910390206040518060400160405290816000820160009054906101000a900460ff1660ff1660ff1681526020016000820160019054906101000a900460ff1660ff1660ff16815250509050612894565b6003808111156127ec576127eb61421d565b5b8260038111156127ff576127fe61421d565b5b141561288f57600e600360405160200161281991906155ca565b604051602081830303815290604052604051612835919061562c565b90815260200160405180910390206040518060400160405290816000820160009054906101000a900460ff1660ff1660ff1681526020016000820160019054906101000a900460ff1660ff1660ff16815250509050612894565b600080fd5b919050565b606060008267ffffffffffffffff8111156128b7576128b6614321565b5b6040519080825280602002602001820160405280156128e55781602001602082028036833780820191505090505b50905060005b8381101561298f576000866001888861290491906154e1565b61290e919061502e565b60014361291b91906154e1565b4060405160200161292c9190615540565b6040516020818303038152906040528051906020012060001c61294f919061558a565b612959919061502e565b90508083838151811061296f5761296e614aa0565b5b60200260200101818152505050808061298790614afe565b9150506128eb565b50809150509392505050565b6129a3611e7e565b73ffffffffffffffffffffffffffffffffffffffff166129c1611850565b73ffffffffffffffffffffffffffffffffffffffff1614612a17576040517f08c379a0000000000000000000000000000000000000000000000000000000008152600401612a0e9061568f565b60405180910390fd5b565b6000600b60009054906101000a900473ffffffffffffffffffffffffffffffffffffffff16905081600b60006101000a81548173ffffffffffffffffffffffffffffffffffffffff021916908373ffffffffffffffffffffffffffffffffffffffff1602179055508173ffffffffffffffffffffffffffffffffffffffff168173ffffffffffffffffffffffffffffffffffffffff167f8be0079c531659141344cd1fd0a4f28419497f9722a3daafe3b4186f6b6457e060405160405180910390a35050565b8173ffffffffffffffffffffffffffffffffffffffff168373ffffffffffffffffffffffffffffffffffffffff161415612b4e576040517f08c379a0000000000000000000000000000000000000000000000000000000008152600401612b45906156fb565b60405180910390fd5b80600560008573ffffffffffffffffffffffffffffffffffffffff1673ffffffffffffffffffffffffffffffffffffffff16815260200190815260200160002060008473ffffffffffffffffffffffffffffffffffffffff1673ffffffffffffffffffffffffffffffffffffffff16815260200190815260200160002060006101000a81548160ff0219169083151502179055508173ffffffffffffffffffffffffffffffffffffffff168373ffffffffffffffffffffffffffffffffffffffff167f17307eab39ab6107e8899845ad3d59bd9653f200f220920489ca2b5937696c3183604051612c3f9190613da9565b60405180910390a3505050565b612c57848484611fd4565b612c6384848484612f51565b612ca2576040517f08c379a0000000000000000000000000000000000000000000000000000000008152600401612c999061578d565b60405180910390fd5b50505050565b6060612cb382611e33565b6000600a60008481526020019081526020016000208054612cd3906147ba565b80601f0160208091040260200160405190810160405280929190818152602001828054612cff906147ba565b8015612d4c5780601f10612d2157610100808354040283529160200191612d4c565b820191906000526020600020905b815481529060010190602001808311612d2f57829003601f168201915b505050505090506000612d5d6130e8565b9050600081511415612d73578192505050612db6565b600082511115612da8578082604051602001612d909291906157e9565b60405160208183030381529060405292505050612db6565b612db1846130ff565b925050505b919050565b60007f80ac58cd000000000000000000000000000000000000000000000000000000007bffffffffffffffffffffffffffffffffffffffffffffffffffffffff1916827bffffffffffffffffffffffffffffffffffffffffffffffffffffffff19161480612e8657507f5b5e139f000000000000000000000000000000000000000000000000000000007bffffffffffffffffffffffffffffffffffffffffffffffffffffffff1916827bffffffffffffffffffffffffffffffffffffffffffffffffffffffff1916145b80612e965750612e9582613167565b5b9050919050565b60008073ffffffffffffffffffffffffffffffffffffffff16612ebf83612434565b73ffffffffffffffffffffffffffffffffffffffff1614159050919050565b612eea848484846131d1565b50505050565b50505050565b612f008383613331565b612f0d6000848484612f51565b612f4c576040517f08c379a0000000000000000000000000000000000000000000000000000000008152600401612f439061578d565b60405180910390fd5b505050565b6000612f728473ffffffffffffffffffffffffffffffffffffffff1661354f565b156130db578373ffffffffffffffffffffffffffffffffffffffff1663150b7a02612f9b611e7e565b8786866040518563ffffffff1660e01b8152600401612fbd9493929190615857565b602060405180830381600087803b158015612fd757600080fd5b505af192505050801561300857506040513d601f19601f8201168201806040525081019061300591906158b8565b60015b61308b573d8060008114613038576040519150601f19603f3d011682016040523d82523d6000602084013e61303d565b606091505b50600081511415613083576040517f08c379a000000000000000000000000000000000000000000000000000000000815260040161307a9061578d565b60405180910390fd5b805181602001fd5b63150b7a0260e01b7bffffffffffffffffffffffffffffffffffffffffffffffffffffffff1916817bffffffffffffffffffffffffffffffffffffffffffffffffffffffff1916149150506130e0565b600190505b949350505050565b606060405180602001604052806000815250905090565b606061310a82611e33565b60006131146130e8565b90506000815111613134576040518060200160405280600081525061315f565b8061313e84613572565b60405160200161314f9291906157e9565b6040516020818303038152906040525b915050919050565b60007f01ffc9a7000000000000000000000000000000000000000000000000000000007bffffffffffffffffffffffffffffffffffffffffffffffffffffffff1916827bffffffffffffffffffffffffffffffffffffffffffffffffffffffff1916149050919050565b6131dd8484848461364a565b6001811115613221576040517f08c379a000000000000000000000000000000000000000000000000000000000815260040161321890615957565b60405180910390fd5b6000829050600073ffffffffffffffffffffffffffffffffffffffff168573ffffffffffffffffffffffffffffffffffffffff1614156132695761326481613770565b6132a8565b8373ffffffffffffffffffffffffffffffffffffffff168573ffffffffffffffffffffffffffffffffffffffff16146132a7576132a685826137b9565b5b5b600073ffffffffffffffffffffffffffffffffffffffff168473ffffffffffffffffffffffffffffffffffffffff1614156132eb576132e681613926565b61332a565b8473ffffffffffffffffffffffffffffffffffffffff168473ffffffffffffffffffffffffffffffffffffffff16146133295761332884826139f7565b5b5b5050505050565b600073ffffffffffffffffffffffffffffffffffffffff168273ffffffffffffffffffffffffffffffffffffffff1614156133a1576040517f08c379a0000000000000000000000000000000000000000000000000000000008152600401613398906159c3565b60405180910390fd5b6133aa81612e9d565b156133ea576040517f08c379a00000000000000000000000000000000000000000000000000000000081526004016133e190615a2f565b60405180910390fd5b6133f8600083836001612ede565b61340181612e9d565b15613441576040517f08c379a000000000000000000000000000000000000000000000000000000000815260040161343890615a2f565b60405180910390fd5b6001600360008473ffffffffffffffffffffffffffffffffffffffff1673ffffffffffffffffffffffffffffffffffffffff16815260200190815260200160002060008282540192505081905550816002600083815260200190815260200160002060006101000a81548173ffffffffffffffffffffffffffffffffffffffff021916908373ffffffffffffffffffffffffffffffffffffffff160217905550808273ffffffffffffffffffffffffffffffffffffffff16600073ffffffffffffffffffffffffffffffffffffffff167fddf252ad1be2c89b69c2b068fc378daa952ba7f163c4a11628f55a4df523b3ef60405160405180910390a461354b600083836001612ef0565b5050565b6000808273ffffffffffffffffffffffffffffffffffffffff163b119050919050565b60606000600161358184613a76565b01905060008167ffffffffffffffff8111156135a05761359f614321565b5b6040519080825280601f01601f1916602001820160405280156135d25781602001600182028036833780820191505090505b509050600082602001820190505b60011561363f578080600190039150507f3031323334353637383961626364656600000000000000000000000000000000600a86061a8153600a85816136295761362861555b565b5b049450600085141561363a5761363f565b6135e0565b819350505050919050565b600181111561376a57600073ffffffffffffffffffffffffffffffffffffffff168473ffffffffffffffffffffffffffffffffffffffff16146136de5780600360008673ffffffffffffffffffffffffffffffffffffffff1673ffffffffffffffffffffffffffffffffffffffff16815260200190815260200160002060008282546136d691906154e1565b925050819055505b600073ffffffffffffffffffffffffffffffffffffffff168373ffffffffffffffffffffffffffffffffffffffff16146137695780600360008573ffffffffffffffffffffffffffffffffffffffff1673ffffffffffffffffffffffffffffffffffffffff1681526020019081526020016000206000828254613761919061502e565b925050819055505b5b50505050565b6008805490506009600083815260200190815260200160002081905550600881908060018154018082558091505060019003906000526020600020016000909190919091505550565b600060016137c684611773565b6137d091906154e1565b90506000600760008481526020019081526020016000205490508181146138b5576000600660008673ffffffffffffffffffffffffffffffffffffffff1673ffffffffffffffffffffffffffffffffffffffff168152602001908152602001600020600084815260200190815260200160002054905080600660008773ffffffffffffffffffffffffffffffffffffffff1673ffffffffffffffffffffffffffffffffffffffff168152602001908152602001600020600084815260200190815260200160002081905550816007600083815260200190815260200160002081905550505b6007600084815260200190815260200160002060009055600660008573ffffffffffffffffffffffffffffffffffffffff1673ffffffffffffffffffffffffffffffffffffffff16815260200190815260200160002060008381526020019081526020016000206000905550505050565b6000600160088054905061393a91906154e1565b905060006009600084815260200190815260200160002054905060006008838154811061396a57613969614aa0565b5b90600052602060002001549050806008838154811061398c5761398b614aa0565b5b9060005260206000200181905550816009600083815260200190815260200160002081905550600960008581526020019081526020016000206000905560088054806139db576139da615a4f565b5b6001900381819060005260206000200160009055905550505050565b6000613a0283611773565b905081600660008573ffffffffffffffffffffffffffffffffffffffff1673ffffffffffffffffffffffffffffffffffffffff168152602001908152602001600020600083815260200190815260200160002081905550806007600084815260200190815260200160002081905550505050565b600080600090507a184f03e93ff9f4daa797ed6e38ed64bf6a1f0100000000000000008310613ad4577a184f03e93ff9f4daa797ed6e38ed64bf6a1f0100000000000000008381613aca57613ac961555b565b5b0492506040810190505b6d04ee2d6d415b85acef81000000008310613b11576d04ee2d6d415b85acef81000000008381613b0757613b0661555b565b5b0492506020810190505b662386f26fc100008310613b4057662386f26fc100008381613b3657613b3561555b565b5b0492506010810190505b6305f5e1008310613b69576305f5e1008381613b5f57613b5e61555b565b5b0492506008810190505b6127108310613b8e576127108381613b8457613b8361555b565b5b0492506004810190505b60648310613bb15760648381613ba757613ba661555b565b5b0492506002810190505b600a8310613bc0576001810190505b80915050919050565b6040518060800160405280600081526020016000815260200160008152602001600081525090565b6040518060a0016040528060008152602001600081526020016000815260200160006003811115613c2557613c2461421d565b5b8152602001600081525090565b828054613c3e906147ba565b90600052602060002090601f016020900481019282613c605760008555613ca7565b82601f10613c7957805160ff1916838001178555613ca7565b82800160010185558215613ca7579182015b82811115613ca6578251825591602001919060010190613c8b565b5b509050613cb49190613cd8565b5090565b6040518060400160405280600060ff168152602001600060ff1681525090565b5b80821115613cf1576000816000905550600101613cd9565b5090565b6000604051905090565b600080fd5b600080fd5b60007fffffffff0000000000000000000000000000000000000000000000000000000082169050919050565b613d3e81613d09565b8114613d4957600080fd5b50565b600081359050613d5b81613d35565b92915050565b600060208284031215613d7757613d76613cff565b5b6000613d8584828501613d4c565b91505092915050565b60008115159050919050565b613da381613d8e565b82525050565b6000602082019050613dbe6000830184613d9a565b92915050565b600081519050919050565b600082825260208201905092915050565b60005b83811015613dfe578082015181840152602081019050613de3565b83811115613e0d576000848401525b50505050565b6000601f19601f8301169050919050565b6000613e2f82613dc4565b613e398185613dcf565b9350613e49818560208601613de0565b613e5281613e13565b840191505092915050565b60006020820190508181036000830152613e778184613e24565b905092915050565b6000819050919050565b613e9281613e7f565b8114613e9d57600080fd5b50565b600081359050613eaf81613e89565b92915050565b600060208284031215613ecb57613eca613cff565b5b6000613ed984828501613ea0565b91505092915050565b600073ffffffffffffffffffffffffffffffffffffffff82169050919050565b6000613f0d82613ee2565b9050919050565b613f1d81613f02565b82525050565b6000602082019050613f386000830184613f14565b92915050565b613f4781613f02565b8114613f5257600080fd5b50565b600081359050613f6481613f3e565b92915050565b60008060408385031215613f8157613f80613cff565b5b6000613f8f85828601613f55565b9250506020613fa085828601613ea0565b9150509250929050565b613fb381613e7f565b82525050565b6000602082019050613fce6000830184613faa565b92915050565b600080600060608486031215613fed57613fec613cff565b5b6000613ffb86828701613f55565b935050602061400c86828701613f55565b925050604061401d86828701613ea0565b9150509250925092565b61403081613e7f565b82525050565b60808201600082015161404c6000850182614027565b50602082015161405f6020850182614027565b5060408201516140726040850182614027565b5060608201516140856060850182614027565b50505050565b60006080820190506140a06000830184614036565b92915050565b6000602082840312156140bc576140bb613cff565b5b60006140ca84828501613f55565b91505092915050565b600081519050919050565b600082825260208201905092915050565b6000819050602082019050919050565b600061410b8383614027565b60208301905092915050565b6000602082019050919050565b600061412f826140d3565b61413981856140de565b9350614144836140ef565b8060005b8381101561417557815161415c88826140ff565b975061416783614117565b925050600181019050614148565b5085935050505092915050565b6000602082019050818103600083015261419c8184614124565b905092915050565b600060ff82169050919050565b6141ba816141a4565b81146141c557600080fd5b50565b6000813590506141d7816141b1565b92915050565b600080604083850312156141f4576141f3613cff565b5b6000614202858286016141c8565b925050602061421385828601613ea0565b9150509250929050565b7f4e487b7100000000000000000000000000000000000000000000000000000000600052602160045260246000fd5b6004811061425d5761425c61421d565b5b50565b600081905061426e8261424c565b919050565b600061427e82614260565b9050919050565b61428e81614273565b82525050565b60a0820160008201516142aa6000850182614027565b5060208201516142bd6020850182614027565b5060408201516142d06040850182614027565b5060608201516142e36060850182614285565b5060808201516142f66080850182614027565b50505050565b600060a0820190506143116000830184614294565b92915050565b600080fd5b600080fd5b7f4e487b7100000000000000000000000000000000000000000000000000000000600052604160045260246000fd5b61435982613e13565b810181811067ffffffffffffffff8211171561437857614377614321565b5b80604052505050565b600061438b613cf5565b90506143978282614350565b919050565b600067ffffffffffffffff8211156143b7576143b6614321565b5b6143c082613e13565b9050602081019050919050565b82818337600083830152505050565b60006143ef6143ea8461439c565b614381565b90508281526020810184848401111561440b5761440a61431c565b5b6144168482856143cd565b509392505050565b600082601f83011261443357614432614317565b5b81356144438482602086016143dc565b91505092915050565b60006020828403121561446257614461613cff565b5b600082013567ffffffffffffffff8111156144805761447f613d04565b5b61448c8482850161441e565b91505092915050565b61449e81613d8e565b81146144a957600080fd5b50565b6000813590506144bb81614495565b92915050565b600080604083850312156144d8576144d7613cff565b5b60006144e685828601613f55565b92505060206144f7858286016144ac565b9150509250929050565b600067ffffffffffffffff82111561451c5761451b614321565b5b61452582613e13565b9050602081019050919050565b600061454561454084614501565b614381565b9050828152602081018484840111156145615761456061431c565b5b61456c8482856143cd565b509392505050565b600082601f83011261458957614588614317565b5b8135614599848260208601614532565b91505092915050565b600080600080608085870312156145bc576145bb613cff565b5b60006145ca87828801613f55565b94505060206145db87828801613f55565b93505060406145ec87828801613ea0565b925050606085013567ffffffffffffffff81111561460d5761460c613d04565b5b61461987828801614574565b91505092959194509250565b600081519050919050565b600082825260208201905092915050565b6000819050602082019050919050565b6080820160008201516146676000850182614027565b50602082015161467a6020850182614027565b50604082015161468d6040850182614027565b5060608201516146a06060850182614027565b50505050565b60006146b28383614651565b60808301905092915050565b6000602082019050919050565b60006146d682614625565b6146e08185614630565b93506146eb83614641565b8060005b8381101561471c57815161470388826146a6565b975061470e836146be565b9250506001810190506146ef565b5085935050505092915050565b6000602082019050818103600083015261474381846146cb565b905092915050565b6000806040838503121561476257614761613cff565b5b600061477085828601613f55565b925050602061478185828601613f55565b9150509250929050565b7f4e487b7100000000000000000000000000000000000000000000000000000000600052602260045260246000fd5b600060028204905060018216806147d257607f821691505b602082108114156147e6576147e561478b565b5b50919050565b7f4552433732313a20617070726f76616c20746f2063757272656e74206f776e6560008201527f7200000000000000000000000000000000000000000000000000000000000000602082015250565b6000614848602183613dcf565b9150614853826147ec565b604082019050919050565b600060208201905081810360008301526148778161483b565b9050919050565b7f4552433732313a20617070726f76652063616c6c6572206973206e6f7420746f60008201527f6b656e206f776e6572206f7220617070726f76656420666f7220616c6c000000602082015250565b60006148da603d83613dcf565b91506148e58261487e565b604082019050919050565b60006020820190508181036000830152614909816148cd565b9050919050565b7f4552433732313a2063616c6c6572206973206e6f7420746f6b656e206f776e6560008201527f72206f7220617070726f76656400000000000000000000000000000000000000602082015250565b600061496c602d83613dcf565b915061497782614910565b604082019050919050565b6000602082019050818103600083015261499b8161495f565b9050919050565b7f455243373231456e756d657261626c653a206f776e657220696e646578206f7560008201527f74206f6620626f756e6473000000000000000000000000000000000000000000602082015250565b60006149fe602b83613dcf565b9150614a09826149a2565b604082019050919050565b60006020820190508181036000830152614a2d816149f1565b9050919050565b7f4d6174636820494420697320696e76616c696400000000000000000000000000600082015250565b6000614a6a601383613dcf565b9150614a7582614a34565b602082019050919050565b60006020820190508181036000830152614a9981614a5d565b9050919050565b7f4e487b7100000000000000000000000000000000000000000000000000000000600052603260045260246000fd5b7f4e487b7100000000000000000000000000000000000000000000000000000000600052601160045260246000fd5b6000614b0982613e7f565b91507fffffffffffffffffffffffffffffffffffffffffffffffffffffffffffffffff821415614b3c57614b3b614acf565b5b600182019050919050565b7f546f6b656e20494420697320696e76616c696400000000000000000000000000600082015250565b6000614b7d601383613dcf565b9150614b8882614b47565b602082019050919050565b60006020820190508181036000830152614bac81614b70565b9050919050565b7f526f6f6d20494420697320696e76616c69640000000000000000000000000000600082015250565b6000614be9601283613dcf565b9150614bf482614bb3565b602082019050919050565b60006020820190508181036000830152614c1881614bdc565b9050919050565b7f596f7520617265206e6f7420746865206f776e6572206f66207468697320746f60008201527f6b656e0000000000000000000000000000000000000000000000000000000000602082015250565b6000614c7b602383613dcf565b9150614c8682614c1f565b604082019050919050565b60006020820190508181036000830152614caa81614c6e565b9050919050565b6000819050919050565b6000614cd6614cd1614ccc846141a4565b614cb1565b613e7f565b9050919050565b614ce681614cbb565b82525050565b6000604082019050614d016000830185614cdd565b614d0e6020830184613faa565b9392505050565b7f596f7520617265206a6f696e656420696e207468697320726f6f6d20616c726560008201527f6164792e00000000000000000000000000000000000000000000000000000000602082015250565b6000614d71602483613dcf565b9150614d7c82614d15565b604082019050919050565b60006020820190508181036000830152614da081614d64565b9050919050565b7f526f6f6d2069732066756c6c2100000000000000000000000000000000000000600082015250565b6000614ddd600d83613dcf565b9150614de882614da7565b602082019050919050565b60006020820190508181036000830152614e0c81614dd0565b9050919050565b6000608082019050614e286000830187613faa565b614e356020830186613faa565b614e426040830185613faa565b614e4f6060830184613faa565b95945050505050565b7f455243373231456e756d657261626c653a20676c6f62616c20696e646578206f60008201527f7574206f6620626f756e64730000000000000000000000000000000000000000602082015250565b6000614eb4602c83613dcf565b9150614ebf82614e58565b604082019050919050565b60006020820190508181036000830152614ee381614ea7565b9050919050565b7f4552433732313a20696e76616c696420746f6b656e2049440000000000000000600082015250565b6000614f20601883613dcf565b9150614f2b82614eea565b602082019050919050565b60006020820190508181036000830152614f4f81614f13565b9050919050565b7f45746865722073656e74206973206e6f7420636f727265637400000000000000600082015250565b6000614f8c601983613dcf565b9150614f9782614f56565b602082019050919050565b60006020820190508181036000830152614fbb81614f7f565b9050919050565b7f457863656564206d6178696d756d20666967687465727320737570706c790000600082015250565b6000614ff8601e83613dcf565b915061500382614fc2565b602082019050919050565b6000602082019050818103600083015261502781614feb565b9050919050565b600061503982613e7f565b915061504483613e7f565b9250827fffffffffffffffffffffffffffffffffffffffffffffffffffffffffffffffff0382111561507957615078614acf565b5b828201905092915050565b60008160001c9050919050565b6000819050919050565b60006150ae6150a983615084565b615091565b9050919050565b600060ff82169050919050565b60006150d56150d083615084565b6150b5565b9050919050565b60a0820160008083015490506150f18161509b565b6150fe6000860182614027565b506001830154905061510f8161509b565b61511c6020860182614027565b506002830154905061512d8161509b565b61513a6040860182614027565b506003830154905061514b816150c2565b6151586060860182614285565b50600483015490506151698161509b565b6151766080860182614027565b5050505050565b600060c0820190506151926000830185613faa565b61519f60208301846150dc565b9392505050565b7f4552433732313a2061646472657373207a65726f206973206e6f74206120766160008201527f6c6964206f776e65720000000000000000000000000000000000000000000000602082015250565b6000615202602983613dcf565b915061520d826151a6565b604082019050919050565b60006020820190508181036000830152615231816151f5565b9050919050565b7f4f776e61626c653a206e6577206f776e657220697320746865207a65726f206160008201527f6464726573730000000000000000000000000000000000000000000000000000602082015250565b6000615294602683613dcf565b915061529f82615238565b604082019050919050565b600060208201905081810360008301526152c381615287565b9050919050565b60006152d5826141a4565b91506152e0836141a4565b92508260ff038211156152f6576152f5614acf565b5b828201905092915050565b600061530c826141a4565b915060ff8214156153205761531f614acf565b5b600182019050919050565b7f4552433732313a207472616e736665722066726f6d20696e636f72726563742060008201527f6f776e6572000000000000000000000000000000000000000000000000000000602082015250565b6000615387602583613dcf565b91506153928261532b565b604082019050919050565b600060208201905081810360008301526153b68161537a565b9050919050565b7f4552433732313a207472616e7366657220746f20746865207a65726f2061646460008201527f7265737300000000000000000000000000000000000000000000000000000000602082015250565b6000615419602483613dcf565b9150615424826153bd565b604082019050919050565b600060208201905081810360008301526154488161540c565b9050919050565b7f45524337323155524953746f726167653a2055524920736574206f66206e6f6e60008201527f6578697374656e7420746f6b656e000000000000000000000000000000000000602082015250565b60006154ab602e83613dcf565b91506154b68261544f565b604082019050919050565b600060208201905081810360008301526154da8161549e565b9050919050565b60006154ec82613e7f565b91506154f783613e7f565b92508282101561550a57615509614acf565b5b828203905092915050565b6000819050919050565b6000819050919050565b61553a61553582615515565b61551f565b82525050565b600061554c8284615529565b60208201915081905092915050565b7f4e487b7100000000000000000000000000000000000000000000000000000000600052601260045260246000fd5b600061559582613e7f565b91506155a083613e7f565b9250826155b0576155af61555b565b5b828206905092915050565b6155c481614273565b82525050565b60006020820190506155df60008301846155bb565b92915050565b600081519050919050565b600081905092915050565b6000615606826155e5565b61561081856155f0565b9350615620818560208601613de0565b80840191505092915050565b600061563882846155fb565b915081905092915050565b7f4f776e61626c653a2063616c6c6572206973206e6f7420746865206f776e6572600082015250565b6000615679602083613dcf565b915061568482615643565b602082019050919050565b600060208201905081810360008301526156a88161566c565b9050919050565b7f4552433732313a20617070726f766520746f2063616c6c657200000000000000600082015250565b60006156e5601983613dcf565b91506156f0826156af565b602082019050919050565b60006020820190508181036000830152615714816156d8565b9050919050565b7f4552433732313a207472616e7366657220746f206e6f6e20455243373231526560008201527f63656976657220696d706c656d656e7465720000000000000000000000000000602082015250565b6000615777603283613dcf565b91506157828261571b565b604082019050919050565b600060208201905081810360008301526157a68161576a565b9050919050565b600081905092915050565b60006157c382613dc4565b6157cd81856157ad565b93506157dd818560208601613de0565b80840191505092915050565b60006157f582856157b8565b915061580182846157b8565b91508190509392505050565b600082825260208201905092915050565b6000615829826155e5565b615833818561580d565b9350615843818560208601613de0565b61584c81613e13565b840191505092915050565b600060808201905061586c6000830187613f14565b6158796020830186613f14565b6158866040830185613faa565b8181036060830152615898818461581e565b905095945050505050565b6000815190506158b281613d35565b92915050565b6000602082840312156158ce576158cd613cff565b5b60006158dc848285016158a3565b91505092915050565b7f455243373231456e756d657261626c653a20636f6e736563757469766520747260008201527f616e7366657273206e6f7420737570706f727465640000000000000000000000602082015250565b6000615941603583613dcf565b915061594c826158e5565b604082019050919050565b6000602082019050818103600083015261597081615934565b9050919050565b7f4552433732313a206d696e7420746f20746865207a65726f2061646472657373600082015250565b60006159ad602083613dcf565b91506159b882615977565b602082019050919050565b600060208201905081810360008301526159dc816159a0565b9050919050565b7f4552433732313a20746f6b656e20616c7265616479206d696e74656400000000600082015250565b6000615a19601c83613dcf565b9150615a24826159e3565b602082019050919050565b60006020820190508181036000830152615a4881615a0c565b9050919050565b7f4e487b7100000000000000000000000000000000000000000000000000000000600052603160045260246000fdfea2646970667358221220745f072e1650ce926dd9959f4ffa60cdcfc463b56827ca8a7ba63226a5334e9a64736f6c63430008080033",
  "devdoc": {
    "kind": "dev",
    "methods": {
      "approve(address,uint256)": {
        "details": "See {IERC721-approve}."
      },
      "balanceOf(address)": {
        "details": "See {IERC721-balanceOf}."
      },
      "getApproved(uint256)": {
        "details": "See {IERC721-getApproved}."
      },
      "isApprovedForAll(address,address)": {
        "details": "See {IERC721-isApprovedForAll}."
      },
      "joinRoom(uint8,uint256)": {
        "details": "Allows the owner of a token to join a room with another player's token. If the room is full, a match will be initiated between the two tokens and the winner will be stored in the winnerId field of the Match struct. Reverts if the caller is not the owner of the token, if the room number is invalid, if the token ID is invalid, or if the room is already full.",
        "params": {
          "_roomNumber": "The number of the room to join.",
          "_tokenId": "The ID of the token to use in the match."
        }
      },
      "name()": {
        "details": "See {IERC721Metadata-name}."
      },
      "owner()": {
        "details": "Returns the address of the current owner."
      },
      "ownerOf(uint256)": {
        "details": "See {IERC721-ownerOf}."
      },
      "renounceOwnership()": {
        "details": "Leaves the contract without owner. It will not be possible to call `onlyOwner` functions anymore. Can only be called by the current owner. NOTE: Renouncing ownership will leave the contract without an owner, thereby removing any functionality that is only available to the owner."
      },
      "safeMint(string)": {
        "details": "Creates a new non-fungible token and assigns it to the caller. Reverts if the correct amount of ether is not sent with the transaction, if the maximum number of tokens has already been reached, or if there is an error during the minting process.",
        "params": {
          "_tokenURI": "The URI of the token."
        }
      },
      "safeTransferFrom(address,address,uint256)": {
        "details": "See {IERC721-safeTransferFrom}."
      },
      "safeTransferFrom(address,address,uint256,bytes)": {
        "details": "See {IERC721-safeTransferFrom}."
      },
      "setApprovalForAll(address,bool)": {
        "details": "See {IERC721-setApprovalForAll}."
      },
      "symbol()": {
        "details": "See {IERC721Metadata-symbol}."
      },
      "tokenByIndex(uint256)": {
        "details": "See {IERC721Enumerable-tokenByIndex}."
      },
      "tokenOfOwnerByIndex(address,uint256)": {
        "details": "See {IERC721Enumerable-tokenOfOwnerByIndex}."
      },
      "totalSupply()": {
        "details": "See {IERC721Enumerable-totalSupply}."
      },
      "transferFrom(address,address,uint256)": {
        "details": "See {IERC721-transferFrom}."
      },
      "transferOwnership(address)": {
        "details": "Transfers ownership of the contract to a new account (`newOwner`). Can only be called by the current owner."
      }
    },
    "version": 1
  },
  "userdoc": {
    "kind": "user",
    "methods": {},
    "version": 1
  },
  "storageLayout": {
    "storage": [
      {
        "astId": 138,
        "contract": "contracts/UltimateFightingMetaverse.sol:UltimateFightingMetaverse",
        "label": "_name",
        "offset": 0,
        "slot": "0",
        "type": "t_string_storage"
      },
      {
        "astId": 140,
        "contract": "contracts/UltimateFightingMetaverse.sol:UltimateFightingMetaverse",
        "label": "_symbol",
        "offset": 0,
        "slot": "1",
        "type": "t_string_storage"
      },
      {
        "astId": 144,
        "contract": "contracts/UltimateFightingMetaverse.sol:UltimateFightingMetaverse",
        "label": "_owners",
        "offset": 0,
        "slot": "2",
        "type": "t_mapping(t_uint256,t_address)"
      },
      {
        "astId": 148,
        "contract": "contracts/UltimateFightingMetaverse.sol:UltimateFightingMetaverse",
        "label": "_balances",
        "offset": 0,
        "slot": "3",
        "type": "t_mapping(t_address,t_uint256)"
      },
      {
        "astId": 152,
        "contract": "contracts/UltimateFightingMetaverse.sol:UltimateFightingMetaverse",
        "label": "_tokenApprovals",
        "offset": 0,
        "slot": "4",
        "type": "t_mapping(t_uint256,t_address)"
      },
      {
        "astId": 158,
        "contract": "contracts/UltimateFightingMetaverse.sol:UltimateFightingMetaverse",
        "label": "_operatorApprovals",
        "offset": 0,
        "slot": "5",
        "type": "t_mapping(t_address,t_mapping(t_address,t_bool))"
      },
      {
        "astId": 1206,
        "contract": "contracts/UltimateFightingMetaverse.sol:UltimateFightingMetaverse",
        "label": "_ownedTokens",
        "offset": 0,
        "slot": "6",
        "type": "t_mapping(t_address,t_mapping(t_uint256,t_uint256))"
      },
      {
        "astId": 1210,
        "contract": "contracts/UltimateFightingMetaverse.sol:UltimateFightingMetaverse",
        "label": "_ownedTokensIndex",
        "offset": 0,
        "slot": "7",
        "type": "t_mapping(t_uint256,t_uint256)"
      },
      {
        "astId": 1213,
        "contract": "contracts/UltimateFightingMetaverse.sol:UltimateFightingMetaverse",
        "label": "_allTokens",
        "offset": 0,
        "slot": "8",
        "type": "t_array(t_uint256)dyn_storage"
      },
      {
        "astId": 1217,
        "contract": "contracts/UltimateFightingMetaverse.sol:UltimateFightingMetaverse",
        "label": "_allTokensIndex",
        "offset": 0,
        "slot": "9",
        "type": "t_mapping(t_uint256,t_uint256)"
      },
      {
        "astId": 1558,
        "contract": "contracts/UltimateFightingMetaverse.sol:UltimateFightingMetaverse",
        "label": "_tokenURIs",
        "offset": 0,
        "slot": "10",
        "type": "t_mapping(t_uint256,t_string_storage)"
      },
      {
        "astId": 7,
        "contract": "contracts/UltimateFightingMetaverse.sol:UltimateFightingMetaverse",
        "label": "_owner",
        "offset": 0,
        "slot": "11",
        "type": "t_address"
      },
      {
        "astId": 3283,
        "contract": "contracts/UltimateFightingMetaverse.sol:UltimateFightingMetaverse",
        "label": "s_tokenIdCounter",
        "offset": 0,
        "slot": "12",
        "type": "t_struct(Counter)2086_storage"
      },
      {
        "astId": 3291,
        "contract": "contracts/UltimateFightingMetaverse.sol:UltimateFightingMetaverse",
        "label": "s_mintPrice",
        "offset": 0,
        "slot": "13",
        "type": "t_uint256"
      },
      {
        "astId": 3296,
        "contract": "contracts/UltimateFightingMetaverse.sol:UltimateFightingMetaverse",
        "label": "s_rarityAdjustments",
        "offset": 0,
        "slot": "14",
        "type": "t_mapping(t_bytes_memory_ptr,t_struct(TraitAdjustmentByRarity)3280_storage)"
      },
      {
        "astId": 3301,
        "contract": "contracts/UltimateFightingMetaverse.sol:UltimateFightingMetaverse",
        "label": "s_tokenIdToStats",
        "offset": 0,
        "slot": "15",
        "type": "t_mapping(t_uint256,t_struct(Stats)3266_storage)"
      },
      {
        "astId": 3304,
        "contract": "contracts/UltimateFightingMetaverse.sol:UltimateFightingMetaverse",
        "label": "s_matchIdCounter",
        "offset": 0,
        "slot": "16",
        "type": "t_struct(Counter)2086_storage"
      },
      {
        "astId": 3307,
        "contract": "contracts/UltimateFightingMetaverse.sol:UltimateFightingMetaverse",
        "label": "s_roomIdCounter",
        "offset": 0,
        "slot": "17",
        "type": "t_struct(Counter)2086_storage"
      },
      {
        "astId": 3315,
        "contract": "contracts/UltimateFightingMetaverse.sol:UltimateFightingMetaverse",
        "label": "s_rooms",
        "offset": 0,
        "slot": "18",
        "type": "t_mapping(t_uint8,t_struct(Match)3275_storage)"
      },
      {
        "astId": 3320,
        "contract": "contracts/UltimateFightingMetaverse.sol:UltimateFightingMetaverse",
        "label": "s_matches",
        "offset": 0,
        "slot": "19",
        "type": "t_mapping(t_uint256,t_struct(Match)3275_storage)"
      }
    ],
    "types": {
      "t_address": {
        "encoding": "inplace",
        "label": "address",
        "numberOfBytes": "20"
      },
      "t_array(t_uint256)dyn_storage": {
        "base": "t_uint256",
        "encoding": "dynamic_array",
        "label": "uint256[]",
        "numberOfBytes": "32"
      },
      "t_bool": {
        "encoding": "inplace",
        "label": "bool",
        "numberOfBytes": "1"
      },
      "t_bytes_memory_ptr": {
        "encoding": "bytes",
        "label": "bytes",
        "numberOfBytes": "32"
      },
      "t_enum(Rarities)3254": {
        "encoding": "inplace",
        "label": "enum UltimateFightingMetaverse.Rarities",
        "numberOfBytes": "1"
      },
      "t_mapping(t_address,t_bool)": {
        "encoding": "mapping",
        "key": "t_address",
        "label": "mapping(address => bool)",
        "numberOfBytes": "32",
        "value": "t_bool"
      },
      "t_mapping(t_address,t_mapping(t_address,t_bool))": {
        "encoding": "mapping",
        "key": "t_address",
        "label": "mapping(address => mapping(address => bool))",
        "numberOfBytes": "32",
        "value": "t_mapping(t_address,t_bool)"
      },
      "t_mapping(t_address,t_mapping(t_uint256,t_uint256))": {
        "encoding": "mapping",
        "key": "t_address",
        "label": "mapping(address => mapping(uint256 => uint256))",
        "numberOfBytes": "32",
        "value": "t_mapping(t_uint256,t_uint256)"
      },
      "t_mapping(t_address,t_uint256)": {
        "encoding": "mapping",
        "key": "t_address",
        "label": "mapping(address => uint256)",
        "numberOfBytes": "32",
        "value": "t_uint256"
      },
      "t_mapping(t_bytes_memory_ptr,t_struct(TraitAdjustmentByRarity)3280_storage)": {
        "encoding": "mapping",
        "key": "t_bytes_memory_ptr",
        "label": "mapping(bytes => struct UltimateFightingMetaverse.TraitAdjustmentByRarity)",
        "numberOfBytes": "32",
        "value": "t_struct(TraitAdjustmentByRarity)3280_storage"
      },
      "t_mapping(t_uint256,t_address)": {
        "encoding": "mapping",
        "key": "t_uint256",
        "label": "mapping(uint256 => address)",
        "numberOfBytes": "32",
        "value": "t_address"
      },
      "t_mapping(t_uint256,t_string_storage)": {
        "encoding": "mapping",
        "key": "t_uint256",
        "label": "mapping(uint256 => string)",
        "numberOfBytes": "32",
        "value": "t_string_storage"
      },
      "t_mapping(t_uint256,t_struct(Match)3275_storage)": {
        "encoding": "mapping",
        "key": "t_uint256",
        "label": "mapping(uint256 => struct UltimateFightingMetaverse.Match)",
        "numberOfBytes": "32",
        "value": "t_struct(Match)3275_storage"
      },
      "t_mapping(t_uint256,t_struct(Stats)3266_storage)": {
        "encoding": "mapping",
        "key": "t_uint256",
        "label": "mapping(uint256 => struct UltimateFightingMetaverse.Stats)",
        "numberOfBytes": "32",
        "value": "t_struct(Stats)3266_storage"
      },
      "t_mapping(t_uint256,t_uint256)": {
        "encoding": "mapping",
        "key": "t_uint256",
        "label": "mapping(uint256 => uint256)",
        "numberOfBytes": "32",
        "value": "t_uint256"
      },
      "t_mapping(t_uint8,t_struct(Match)3275_storage)": {
        "encoding": "mapping",
        "key": "t_uint8",
        "label": "mapping(uint8 => struct UltimateFightingMetaverse.Match)",
        "numberOfBytes": "32",
        "value": "t_struct(Match)3275_storage"
      },
      "t_string_storage": {
        "encoding": "bytes",
        "label": "string",
        "numberOfBytes": "32"
      },
      "t_struct(Counter)2086_storage": {
        "encoding": "inplace",
        "label": "struct Counters.Counter",
        "members": [
          {
            "astId": 2085,
            "contract": "contracts/UltimateFightingMetaverse.sol:UltimateFightingMetaverse",
            "label": "_value",
            "offset": 0,
            "slot": "0",
            "type": "t_uint256"
          }
        ],
        "numberOfBytes": "32"
      },
      "t_struct(Match)3275_storage": {
        "encoding": "inplace",
        "label": "struct UltimateFightingMetaverse.Match",
        "members": [
          {
            "astId": 3268,
            "contract": "contracts/UltimateFightingMetaverse.sol:UltimateFightingMetaverse",
            "label": "matchId",
            "offset": 0,
            "slot": "0",
            "type": "t_uint256"
          },
          {
            "astId": 3270,
            "contract": "contracts/UltimateFightingMetaverse.sol:UltimateFightingMetaverse",
            "label": "tokenId1",
            "offset": 0,
            "slot": "1",
            "type": "t_uint256"
          },
          {
            "astId": 3272,
            "contract": "contracts/UltimateFightingMetaverse.sol:UltimateFightingMetaverse",
            "label": "tokenId2",
            "offset": 0,
            "slot": "2",
            "type": "t_uint256"
          },
          {
            "astId": 3274,
            "contract": "contracts/UltimateFightingMetaverse.sol:UltimateFightingMetaverse",
            "label": "winnerId",
            "offset": 0,
            "slot": "3",
            "type": "t_uint256"
          }
        ],
        "numberOfBytes": "128"
      },
      "t_struct(Stats)3266_storage": {
        "encoding": "inplace",
        "label": "struct UltimateFightingMetaverse.Stats",
        "members": [
          {
            "astId": 3256,
            "contract": "contracts/UltimateFightingMetaverse.sol:UltimateFightingMetaverse",
            "label": "strength",
            "offset": 0,
            "slot": "0",
            "type": "t_uint256"
          },
          {
            "astId": 3258,
            "contract": "contracts/UltimateFightingMetaverse.sol:UltimateFightingMetaverse",
            "label": "stamina",
            "offset": 0,
            "slot": "1",
            "type": "t_uint256"
          },
          {
            "astId": 3260,
            "contract": "contracts/UltimateFightingMetaverse.sol:UltimateFightingMetaverse",
            "label": "technique",
            "offset": 0,
            "slot": "2",
            "type": "t_uint256"
          },
          {
            "astId": 3263,
            "contract": "contracts/UltimateFightingMetaverse.sol:UltimateFightingMetaverse",
            "label": "rarity",
            "offset": 0,
            "slot": "3",
            "type": "t_enum(Rarities)3254"
          },
          {
            "astId": 3265,
            "contract": "contracts/UltimateFightingMetaverse.sol:UltimateFightingMetaverse",
            "label": "victories",
            "offset": 0,
            "slot": "4",
            "type": "t_uint256"
          }
        ],
        "numberOfBytes": "160"
      },
      "t_struct(TraitAdjustmentByRarity)3280_storage": {
        "encoding": "inplace",
        "label": "struct UltimateFightingMetaverse.TraitAdjustmentByRarity",
        "members": [
          {
            "astId": 3277,
            "contract": "contracts/UltimateFightingMetaverse.sol:UltimateFightingMetaverse",
            "label": "low",
            "offset": 0,
            "slot": "0",
            "type": "t_uint8"
          },
          {
            "astId": 3279,
            "contract": "contracts/UltimateFightingMetaverse.sol:UltimateFightingMetaverse",
            "label": "high",
            "offset": 1,
            "slot": "0",
            "type": "t_uint8"
          }
        ],
        "numberOfBytes": "32"
      },
      "t_uint256": {
        "encoding": "inplace",
        "label": "uint256",
        "numberOfBytes": "32"
      },
      "t_uint8": {
        "encoding": "inplace",
        "label": "uint8",
        "numberOfBytes": "1"
      }
    }
  }
}