{
  "address": "0x04A873f7815103B9fA5AdeE20AB0Ef9E3889B490",
  "abi": [
    {
      "inputs": [],
      "stateMutability": "nonpayable",
      "type": "constructor"
    },
    {
      "anonymous": false,
      "inputs": [
        {
          "indexed": true,
          "internalType": "address",
          "name": "owner",
          "type": "address"
        },
        {
          "indexed": true,
          "internalType": "address",
          "name": "approved",
          "type": "address"
        },
        {
          "indexed": true,
          "internalType": "uint256",
          "name": "tokenId",
          "type": "uint256"
        }
      ],
      "name": "Approval",
      "type": "event"
    },
    {
      "anonymous": false,
      "inputs": [
        {
          "indexed": true,
          "internalType": "address",
          "name": "owner",
          "type": "address"
        },
        {
          "indexed": true,
          "internalType": "address",
          "name": "operator",
          "type": "address"
        },
        {
          "indexed": false,
          "internalType": "bool",
          "name": "approved",
          "type": "bool"
        }
      ],
      "name": "ApprovalForAll",
      "type": "event"
    },
    {
      "anonymous": false,
      "inputs": [
        {
          "indexed": false,
          "internalType": "uint256",
          "name": "arenaId",
          "type": "uint256"
        },
        {
          "indexed": false,
          "internalType": "uint256",
          "name": "matchId",
          "type": "uint256"
        }
      ],
      "name": "ArenaClosed",
      "type": "event"
    },
    {
      "anonymous": false,
      "inputs": [
        {
          "indexed": false,
          "internalType": "uint256",
          "name": "arenaId",
          "type": "uint256"
        },
        {
          "indexed": false,
          "internalType": "uint256",
          "name": "tokenId",
          "type": "uint256"
        }
      ],
      "name": "ArenaOpened",
      "type": "event"
    },
    {
      "anonymous": false,
      "inputs": [
        {
          "indexed": false,
          "internalType": "uint256",
          "name": "tokenId",
          "type": "uint256"
        },
        {
          "components": [
            {
              "internalType": "uint256",
              "name": "strength",
              "type": "uint256"
            },
            {
              "internalType": "uint256",
              "name": "stamina",
              "type": "uint256"
            },
            {
              "internalType": "uint256",
              "name": "technique",
              "type": "uint256"
            },
            {
              "internalType": "enum UltimateFightingMetaverse.Rarities",
              "name": "rarity",
              "type": "uint8"
            },
            {
              "internalType": "uint256",
              "name": "victories",
              "type": "uint256"
            }
          ],
          "indexed": false,
          "internalType": "struct UltimateFightingMetaverse.Stats",
          "name": "stats",
          "type": "tuple"
        }
      ],
      "name": "FighterCreated",
      "type": "event"
    },
    {
      "anonymous": false,
      "inputs": [
        {
          "indexed": false,
          "internalType": "uint256",
          "name": "matchId",
          "type": "uint256"
        },
        {
          "indexed": false,
          "internalType": "uint256",
          "name": "tokenId1",
          "type": "uint256"
        },
        {
          "indexed": false,
          "internalType": "uint256",
          "name": "tokenId2",
          "type": "uint256"
        },
        {
          "indexed": false,
          "internalType": "uint256",
          "name": "outcome",
          "type": "uint256"
        }
      ],
      "name": "MatchCreated",
      "type": "event"
    },
    {
      "anonymous": false,
      "inputs": [
        {
          "indexed": true,
          "internalType": "address",
          "name": "previousOwner",
          "type": "address"
        },
        {
          "indexed": true,
          "internalType": "address",
          "name": "newOwner",
          "type": "address"
        }
      ],
      "name": "OwnershipTransferred",
      "type": "event"
    },
    {
      "anonymous": false,
      "inputs": [
        {
          "indexed": true,
          "internalType": "address",
          "name": "from",
          "type": "address"
        },
        {
          "indexed": true,
          "internalType": "address",
          "name": "to",
          "type": "address"
        },
        {
          "indexed": true,
          "internalType": "uint256",
          "name": "tokenId",
          "type": "uint256"
        }
      ],
      "name": "Transfer",
      "type": "event"
    },
    {
      "inputs": [
        {
          "internalType": "address",
          "name": "to",
          "type": "address"
        },
        {
          "internalType": "uint256",
          "name": "tokenId",
          "type": "uint256"
        }
      ],
      "name": "approve",
      "outputs": [],
      "stateMutability": "nonpayable",
      "type": "function"
    },
    {
      "inputs": [
        {
          "internalType": "address",
          "name": "owner",
          "type": "address"
        }
      ],
      "name": "balanceOf",
      "outputs": [
        {
          "internalType": "uint256",
          "name": "",
          "type": "uint256"
        }
      ],
      "stateMutability": "view",
      "type": "function"
    },
    {
      "inputs": [],
      "name": "getAllArenas",
      "outputs": [
        {
          "components": [
            {
              "internalType": "uint256",
              "name": "matchId",
              "type": "uint256"
            },
            {
              "internalType": "uint256",
              "name": "tokenId1",
              "type": "uint256"
            },
            {
              "internalType": "uint256",
              "name": "tokenId2",
              "type": "uint256"
            },
            {
              "internalType": "uint256",
              "name": "winnerId",
              "type": "uint256"
            }
          ],
          "internalType": "struct UltimateFightingMetaverse.Match[]",
          "name": "",
          "type": "tuple[]"
        }
      ],
      "stateMutability": "view",
      "type": "function"
    },
    {
      "inputs": [],
      "name": "getAllMatches",
      "outputs": [
        {
          "components": [
            {
              "internalType": "uint256",
              "name": "matchId",
              "type": "uint256"
            },
            {
              "internalType": "uint256",
              "name": "tokenId1",
              "type": "uint256"
            },
            {
              "internalType": "uint256",
              "name": "tokenId2",
              "type": "uint256"
            },
            {
              "internalType": "uint256",
              "name": "winnerId",
              "type": "uint256"
            }
          ],
          "internalType": "struct UltimateFightingMetaverse.Match[]",
          "name": "",
          "type": "tuple[]"
        }
      ],
      "stateMutability": "view",
      "type": "function"
    },
    {
      "inputs": [
        {
          "internalType": "uint256",
          "name": "tokenId",
          "type": "uint256"
        }
      ],
      "name": "getApproved",
      "outputs": [
        {
          "internalType": "address",
          "name": "",
          "type": "address"
        }
      ],
      "stateMutability": "view",
      "type": "function"
    },
    {
      "inputs": [
        {
          "internalType": "uint8",
          "name": "_arenaId",
          "type": "uint8"
        }
      ],
      "name": "getArena",
      "outputs": [
        {
          "components": [
            {
              "internalType": "uint256",
              "name": "matchId",
              "type": "uint256"
            },
            {
              "internalType": "uint256",
              "name": "tokenId1",
              "type": "uint256"
            },
            {
              "internalType": "uint256",
              "name": "tokenId2",
              "type": "uint256"
            },
            {
              "internalType": "uint256",
              "name": "winnerId",
              "type": "uint256"
            }
          ],
          "internalType": "struct UltimateFightingMetaverse.Match",
          "name": "",
          "type": "tuple"
        }
      ],
      "stateMutability": "view",
      "type": "function"
    },
    {
      "inputs": [
        {
          "internalType": "uint256",
          "name": "tokenId",
          "type": "uint256"
        }
      ],
      "name": "getFighterStats",
      "outputs": [
        {
          "components": [
            {
              "internalType": "uint256",
              "name": "strength",
              "type": "uint256"
            },
            {
              "internalType": "uint256",
              "name": "stamina",
              "type": "uint256"
            },
            {
              "internalType": "uint256",
              "name": "technique",
              "type": "uint256"
            },
            {
              "internalType": "enum UltimateFightingMetaverse.Rarities",
              "name": "rarity",
              "type": "uint8"
            },
            {
              "internalType": "uint256",
              "name": "victories",
              "type": "uint256"
            }
          ],
          "internalType": "struct UltimateFightingMetaverse.Stats",
          "name": "",
          "type": "tuple"
        }
      ],
      "stateMutability": "view",
      "type": "function"
    },
    {
      "inputs": [],
      "name": "getLastTokenId",
      "outputs": [
        {
          "internalType": "uint256",
          "name": "",
          "type": "uint256"
        }
      ],
      "stateMutability": "view",
      "type": "function"
    },
    {
      "inputs": [
        {
          "internalType": "uint256",
          "name": "_matchId",
          "type": "uint256"
        }
      ],
      "name": "getMatch",
      "outputs": [
        {
          "components": [
            {
              "internalType": "uint256",
              "name": "matchId",
              "type": "uint256"
            },
            {
              "internalType": "uint256",
              "name": "tokenId1",
              "type": "uint256"
            },
            {
              "internalType": "uint256",
              "name": "tokenId2",
              "type": "uint256"
            },
            {
              "internalType": "uint256",
              "name": "winnerId",
              "type": "uint256"
            }
          ],
          "internalType": "struct UltimateFightingMetaverse.Match",
          "name": "",
          "type": "tuple"
        }
      ],
      "stateMutability": "view",
      "type": "function"
    },
    {
      "inputs": [],
      "name": "getMaxArenas",
      "outputs": [
        {
          "internalType": "uint256",
          "name": "",
          "type": "uint256"
        }
      ],
      "stateMutability": "pure",
      "type": "function"
    },
    {
      "inputs": [],
      "name": "getMaxTokenSupply",
      "outputs": [
        {
          "internalType": "uint256",
          "name": "",
          "type": "uint256"
        }
      ],
      "stateMutability": "pure",
      "type": "function"
    },
    {
      "inputs": [],
      "name": "getMintPrice",
      "outputs": [
        {
          "internalType": "uint256",
          "name": "",
          "type": "uint256"
        }
      ],
      "stateMutability": "view",
      "type": "function"
    },
    {
      "inputs": [],
      "name": "getNextTokenId",
      "outputs": [
        {
          "internalType": "uint256",
          "name": "",
          "type": "uint256"
        }
      ],
      "stateMutability": "view",
      "type": "function"
    },
    {
      "inputs": [],
      "name": "getNumMatches",
      "outputs": [
        {
          "internalType": "uint256",
          "name": "",
          "type": "uint256"
        }
      ],
      "stateMutability": "view",
      "type": "function"
    },
    {
      "inputs": [
        {
          "internalType": "uint256",
          "name": "tokenId",
          "type": "uint256"
        }
      ],
      "name": "getOwner",
      "outputs": [
        {
          "internalType": "address",
          "name": "",
          "type": "address"
        }
      ],
      "stateMutability": "view",
      "type": "function"
    },
    {
      "inputs": [
        {
          "internalType": "address",
          "name": "_owner",
          "type": "address"
        }
      ],
      "name": "getTokensOwnedByAddress",
      "outputs": [
        {
          "internalType": "uint256[]",
          "name": "",
          "type": "uint256[]"
        }
      ],
      "stateMutability": "view",
      "type": "function"
    },
    {
      "inputs": [
        {
          "internalType": "address",
          "name": "owner",
          "type": "address"
        },
        {
          "internalType": "address",
          "name": "operator",
          "type": "address"
        }
      ],
      "name": "isApprovedForAll",
      "outputs": [
        {
          "internalType": "bool",
          "name": "",
          "type": "bool"
        }
      ],
      "stateMutability": "view",
      "type": "function"
    },
    {
      "inputs": [
        {
          "internalType": "uint8",
          "name": "_arenaNumber",
          "type": "uint8"
        },
        {
          "internalType": "uint256",
          "name": "_tokenId",
          "type": "uint256"
        }
      ],
      "name": "joinArena",
      "outputs": [],
      "stateMutability": "nonpayable",
      "type": "function"
    },
    {
      "inputs": [],
      "name": "name",
      "outputs": [
        {
          "internalType": "string",
          "name": "",
          "type": "string"
        }
      ],
      "stateMutability": "view",
      "type": "function"
    },
    {
      "inputs": [],
      "name": "owner",
      "outputs": [
        {
          "internalType": "address",
          "name": "",
          "type": "address"
        }
      ],
      "stateMutability": "view",
      "type": "function"
    },
    {
      "inputs": [
        {
          "internalType": "uint256",
          "name": "tokenId",
          "type": "uint256"
        }
      ],
      "name": "ownerOf",
      "outputs": [
        {
          "internalType": "address",
          "name": "",
          "type": "address"
        }
      ],
      "stateMutability": "view",
      "type": "function"
    },
    {
      "inputs": [],
      "name": "renounceOwnership",
      "outputs": [],
      "stateMutability": "nonpayable",
      "type": "function"
    },
    {
      "inputs": [
        {
          "internalType": "string",
          "name": "_tokenURI",
          "type": "string"
        }
      ],
      "name": "safeMint",
      "outputs": [],
      "stateMutability": "payable",
      "type": "function"
    },
    {
      "inputs": [
        {
          "internalType": "address",
          "name": "from",
          "type": "address"
        },
        {
          "internalType": "address",
          "name": "to",
          "type": "address"
        },
        {
          "internalType": "uint256",
          "name": "tokenId",
          "type": "uint256"
        }
      ],
      "name": "safeTransferFrom",
      "outputs": [],
      "stateMutability": "nonpayable",
      "type": "function"
    },
    {
      "inputs": [
        {
          "internalType": "address",
          "name": "from",
          "type": "address"
        },
        {
          "internalType": "address",
          "name": "to",
          "type": "address"
        },
        {
          "internalType": "uint256",
          "name": "tokenId",
          "type": "uint256"
        },
        {
          "internalType": "bytes",
          "name": "data",
          "type": "bytes"
        }
      ],
      "name": "safeTransferFrom",
      "outputs": [],
      "stateMutability": "nonpayable",
      "type": "function"
    },
    {
      "inputs": [
        {
          "internalType": "address",
          "name": "operator",
          "type": "address"
        },
        {
          "internalType": "bool",
          "name": "approved",
          "type": "bool"
        }
      ],
      "name": "setApprovalForAll",
      "outputs": [],
      "stateMutability": "nonpayable",
      "type": "function"
    },
    {
      "inputs": [
        {
          "internalType": "uint256",
          "name": "_newPrice",
          "type": "uint256"
        }
      ],
      "name": "setMintPrice",
      "outputs": [],
      "stateMutability": "nonpayable",
      "type": "function"
    },
    {
      "inputs": [
        {
          "internalType": "bytes4",
          "name": "interfaceId",
          "type": "bytes4"
        }
      ],
      "name": "supportsInterface",
      "outputs": [
        {
          "internalType": "bool",
          "name": "",
          "type": "bool"
        }
      ],
      "stateMutability": "view",
      "type": "function"
    },
    {
      "inputs": [],
      "name": "symbol",
      "outputs": [
        {
          "internalType": "string",
          "name": "",
          "type": "string"
        }
      ],
      "stateMutability": "view",
      "type": "function"
    },
    {
      "inputs": [
        {
          "internalType": "uint256",
          "name": "index",
          "type": "uint256"
        }
      ],
      "name": "tokenByIndex",
      "outputs": [
        {
          "internalType": "uint256",
          "name": "",
          "type": "uint256"
        }
      ],
      "stateMutability": "view",
      "type": "function"
    },
    {
      "inputs": [
        {
          "internalType": "address",
          "name": "owner",
          "type": "address"
        },
        {
          "internalType": "uint256",
          "name": "index",
          "type": "uint256"
        }
      ],
      "name": "tokenOfOwnerByIndex",
      "outputs": [
        {
          "internalType": "uint256",
          "name": "",
          "type": "uint256"
        }
      ],
      "stateMutability": "view",
      "type": "function"
    },
    {
      "inputs": [
        {
          "internalType": "uint256",
          "name": "tokenId",
          "type": "uint256"
        }
      ],
      "name": "tokenURI",
      "outputs": [
        {
          "internalType": "string",
          "name": "",
          "type": "string"
        }
      ],
      "stateMutability": "view",
      "type": "function"
    },
    {
      "inputs": [],
      "name": "totalSupply",
      "outputs": [
        {
          "internalType": "uint256",
          "name": "",
          "type": "uint256"
        }
      ],
      "stateMutability": "view",
      "type": "function"
    },
    {
      "inputs": [
        {
          "internalType": "address",
          "name": "from",
          "type": "address"
        },
        {
          "internalType": "address",
          "name": "to",
          "type": "address"
        },
        {
          "internalType": "uint256",
          "name": "tokenId",
          "type": "uint256"
        }
      ],
      "name": "transferFrom",
      "outputs": [],
      "stateMutability": "nonpayable",
      "type": "function"
    },
    {
      "inputs": [
        {
          "internalType": "address",
          "name": "newOwner",
          "type": "address"
        }
      ],
      "name": "transferOwnership",
      "outputs": [],
      "stateMutability": "nonpayable",
      "type": "function"
    }
  ],
  "transactionHash": "0x52aad6f7d088a9b3cbd18eb4a719c9ae151239ed1e22590b69dac9205df12ce2",
  "args": [],
  "numDeployments": 2,
  "solcInputHash": "e87a86d619c8c4c01e78f162a8a6d0cb",
  "bytecode": "0x60c06040526103e8608090815250662386f26fc10000600d55600860a0908152503480156200002d57600080fd5b506040518060400160405280601b81526020017f556c74696d617465204669676874696e67204d657461766572736500000000008152506040518060400160405280600381526020017f55464d00000000000000000000000000000000000000000000000000000000008152508160009080519060200190620000b292919062000464565b508060019080519060200190620000cb92919062000464565b505050620000ee620000e26200010460201b60201c565b6200010c60201b60201c565b620000fe620001d260201b60201c565b620006b2565b600033905090565b6000600b60009054906101000a900473ffffffffffffffffffffffffffffffffffffffff16905081600b60006101000a81548173ffffffffffffffffffffffffffffffffffffffff021916908373ffffffffffffffffffffffffffffffffffffffff1602179055508173ffffffffffffffffffffffffffffffffffffffff168173ffffffffffffffffffffffffffffffffffffffff167f8be0079c531659141344cd1fd0a4f28419497f9722a3daafe3b4186f6b6457e060405160405180910390a35050565b6040518060400160405280600060ff168152602001603260ff16815250600e600060405160200162000205919062000594565b60405160208183030381529060405260405162000223919062000634565b908152602001604051809103902060008201518160000160006101000a81548160ff021916908360ff16021790555060208201518160000160016101000a81548160ff021916908360ff1602179055509050506040518060400160405280603260ff168152602001606460ff16815250600e6001604051602001620002a9919062000594565b604051602081830303815290604052604051620002c7919062000634565b908152602001604051809103902060008201518160000160006101000a81548160ff021916908360ff16021790555060208201518160000160016101000a81548160ff021916908360ff1602179055509050506040518060400160405280605060ff168152602001607860ff16815250600e60026040516020016200034d919062000594565b6040516020818303038152906040526040516200036b919062000634565b908152602001604051809103902060008201518160000160006101000a81548160ff021916908360ff16021790555060208201518160000160016101000a81548160ff021916908360ff1602179055509050506040518060400160405280606460ff16815260200160aa60ff16815250600e6003604051602001620003f1919062000594565b6040516020818303038152906040526040516200040f919062000634565b908152602001604051809103902060008201518160000160006101000a81548160ff021916908360ff16021790555060208201518160000160016101000a81548160ff021916908360ff160217905550905050565b82805462000472906200067c565b90600052602060002090601f016020900481019282620004965760008555620004e2565b82601f10620004b157805160ff1916838001178555620004e2565b82800160010185558215620004e2579182015b82811115620004e1578251825591602001919060010190620004c4565b5b509050620004f19190620004f5565b5090565b5b8082111562000510576000816000905550600101620004f6565b5090565b7f4e487b7100000000000000000000000000000000000000000000000000000000600052602160045260246000fd5b6004811062000557576200055662000514565b5b50565b60008190506200056a8262000543565b919050565b60006200057c826200055a565b9050919050565b6200058e816200056f565b82525050565b6000602082019050620005ab600083018462000583565b92915050565b600081519050919050565b600081905092915050565b60005b83811015620005e7578082015181840152602081019050620005ca565b83811115620005f7576000848401525b50505050565b60006200060a82620005b1565b620006168185620005bc565b935062000628818560208601620005c7565b80840191505092915050565b6000620006428284620005fd565b915081905092915050565b7f4e487b7100000000000000000000000000000000000000000000000000000000600052602260045260246000fd5b600060028204905060018216806200069557607f821691505b60208210811415620006ac57620006ab6200064d565b5b50919050565b60805160a051615c9a62000710600039600081816108cc0152818161104d015281816110c6015281816117120152611b5b015260008181610eb101528181610f5c0152818161125f0152818161169f0152611cf30152615c9a6000f3fe6080604052600436106102045760003560e01c806370a0823111610118578063b88d4fde116100a0578063caa0f92a1161006f578063caa0f92a146107bc578063e985e9c5146107e7578063f2fde38b14610824578063f4a0a5281461084d578063f72d53ba1461087657610204565b8063b88d4fde146106ee578063c17c5a4514610717578063c41a360a14610742578063c87b56dd1461077f57610204565b806395d89b41116100e757806395d89b411461061b578063a22cb46514610646578063a7f93ebd1461066f578063ad6575441461069a578063b11f4c10146106c357610204565b806370a0823114610571578063715018a6146105ae57806383c4c00d146105c55780638da5cb5b146105f057610204565b80633d092b3d1161019b5780634f6ccce71161016a5780634f6ccce71461047357806355af86c4146104b0578063607b35c6146104ed5780636352211e14610518578063695850fb1461055557610204565b80633d092b3d146103a557806342842e0e146103e257806348756c171461040b5780634cdf94481461044857610204565b8063095ea7b3116101d7578063095ea7b3146102eb57806318160ddd1461031457806323b872dd1461033f5780632f745c591461036857610204565b806301ffc9a71461020957806304e000ff1461024657806306fdde0314610283578063081812fc146102ae575b600080fd5b34801561021557600080fd5b50610230600480360381019061022b9190613eae565b6108a1565b60405161023d9190613ef6565b60405180910390f35b34801561025257600080fd5b5061026d60048036038101906102689190613f4a565b6108b3565b60405161027a9190613fe5565b60405180910390f35b34801561028f57600080fd5b50610298610982565b6040516102a59190614099565b60405180910390f35b3480156102ba57600080fd5b506102d560048036038101906102d091906140e7565b610a14565b6040516102e29190614155565b60405180910390f35b3480156102f757600080fd5b50610312600480360381019061030d919061419c565b610a5a565b005b34801561032057600080fd5b50610329610b72565b60405161033691906141eb565b60405180910390f35b34801561034b57600080fd5b5061036660048036038101906103619190614206565b610b7f565b005b34801561037457600080fd5b5061038f600480360381019061038a919061419c565b610bdf565b60405161039c91906141eb565b60405180910390f35b3480156103b157600080fd5b506103cc60048036038101906103c791906140e7565b610c84565b6040516103d99190613fe5565b60405180910390f35b3480156103ee57600080fd5b5061040960048036038101906104049190614206565b610d33565b005b34801561041757600080fd5b50610432600480360381019061042d9190614259565b610d53565b60405161043f9190614335565b60405180910390f35b34801561045457600080fd5b5061045d610ead565b60405161046a91906141eb565b60405180910390f35b34801561047f57600080fd5b5061049a600480360381019061049591906140e7565b610ed5565b6040516104a791906141eb565b60405180910390f35b3480156104bc57600080fd5b506104d760048036038101906104d291906140e7565b610f46565b6040516104e49190614436565b60405180910390f35b3480156104f957600080fd5b50610502611047565b60405161050f9190614555565b60405180910390f35b34801561052457600080fd5b5061053f600480360381019061053a91906140e7565b611183565b60405161054c9190614155565b60405180910390f35b61056f600480360381019061056a91906146ac565b61120a565b005b34801561057d57600080fd5b5061059860048036038101906105939190614259565b6114d8565b6040516105a591906141eb565b60405180910390f35b3480156105ba57600080fd5b506105c3611590565b005b3480156105d157600080fd5b506105da6115a4565b6040516105e791906141eb565b60405180910390f35b3480156105fc57600080fd5b506106056115b5565b6040516106129190614155565b60405180910390f35b34801561062757600080fd5b506106306115df565b60405161063d9190614099565b60405180910390f35b34801561065257600080fd5b5061066d60048036038101906106689190614721565b611671565b005b34801561067b57600080fd5b50610684611687565b60405161069191906141eb565b60405180910390f35b3480156106a657600080fd5b506106c160048036038101906106bc9190614761565b611691565b005b3480156106cf57600080fd5b506106d8611b57565b6040516106e591906141eb565b60405180910390f35b3480156106fa57600080fd5b5061071560048036038101906107109190614842565b611b7f565b005b34801561072357600080fd5b5061072c611be1565b6040516107399190614555565b60405180910390f35b34801561074e57600080fd5b50610769600480360381019061076491906140e7565b611ce3565b6040516107769190614155565b60405180910390f35b34801561078b57600080fd5b506107a660048036038101906107a191906140e7565b611d66565b6040516107b39190614099565b60405180910390f35b3480156107c857600080fd5b506107d1611d78565b6040516107de91906141eb565b60405180910390f35b3480156107f357600080fd5b5061080e600480360381019061080991906148c5565b611d95565b60405161081b9190613ef6565b60405180910390f35b34801561083057600080fd5b5061084b60048036038101906108469190614259565b611e29565b005b34801561085957600080fd5b50610874600480360381019061086f91906140e7565b611ead565b005b34801561088257600080fd5b5061088b611ebf565b60405161089891906141eb565b60405180910390f35b60006108ac82611ed0565b9050919050565b6108bb613d16565b8160ff166000811180156108ef57507f00000000000000000000000000000000000000000000000000000000000000008111155b61092e576040517f08c379a000000000000000000000000000000000000000000000000000000000815260040161092590614951565b60405180910390fd5b601160008460ff1660ff168152602001908152602001600020604051806080016040529081600082015481526020016001820154815260200160028201548152602001600382015481525050915050919050565b606060008054610991906149a0565b80601f01602080910402602001604051908101604052809291908181526020018280546109bd906149a0565b8015610a0a5780601f106109df57610100808354040283529160200191610a0a565b820191906000526020600020905b8154815290600101906020018083116109ed57829003601f168201915b5050505050905090565b6000610a1f82611f4a565b6004600083815260200190815260200160002060009054906101000a900473ffffffffffffffffffffffffffffffffffffffff169050919050565b6000610a6582611183565b90508073ffffffffffffffffffffffffffffffffffffffff168373ffffffffffffffffffffffffffffffffffffffff161415610ad6576040517f08c379a0000000000000000000000000000000000000000000000000000000008152600401610acd90614a44565b60405180910390fd5b8073ffffffffffffffffffffffffffffffffffffffff16610af5611f95565b73ffffffffffffffffffffffffffffffffffffffff161480610b245750610b2381610b1e611f95565b611d95565b5b610b63576040517f08c379a0000000000000000000000000000000000000000000000000000000008152600401610b5a90614ad6565b60405180910390fd5b610b6d8383611f9d565b505050565b6000600880549050905090565b610b90610b8a611f95565b82612056565b610bcf576040517f08c379a0000000000000000000000000000000000000000000000000000000008152600401610bc690614b68565b60405180910390fd5b610bda8383836120eb565b505050565b6000610bea836114d8565b8210610c2b576040517f08c379a0000000000000000000000000000000000000000000000000000000008152600401610c2290614bfa565b60405180910390fd5b600660008473ffffffffffffffffffffffffffffffffffffffff1673ffffffffffffffffffffffffffffffffffffffff168152602001908152602001600020600083815260200190815260200160002054905092915050565b610c8c613d16565b81600081118015610ca65750610ca260106123e5565b8111155b610ce5576040517f08c379a0000000000000000000000000000000000000000000000000000000008152600401610cdc90614c66565b60405180910390fd5b60126000848152602001908152602001600020604051806080016040529081600082015481526020016001820154815260200160028201548152602001600382015481525050915050919050565b610d4e83838360405180602001604052806000815250611b7f565b505050565b60606000610d60836114d8565b90506000811415610dbd57600067ffffffffffffffff811115610d8657610d85614581565b5b604051908082528060200260200182016040528015610db45781602001602082028036833780820191505090505b50915050610ea8565b60008167ffffffffffffffff811115610dd957610dd8614581565b5b604051908082528060200260200182016040528015610e075781602001602082028036833780820191505090505b509050600080600190505b610e1c600c6123e5565b8111610ea0578573ffffffffffffffffffffffffffffffffffffffff16610e4282611183565b73ffffffffffffffffffffffffffffffffffffffff161415610e8d5780838381518110610e7257610e71614c86565b5b6020026020010181815250508180610e8990614ce4565b9250505b8080610e9890614ce4565b915050610e12565b508193505050505b919050565b60007f0000000000000000000000000000000000000000000000000000000000000000905090565b6000610edf610b72565b8210610f20576040517f08c379a0000000000000000000000000000000000000000000000000000000008152600401610f1790614d9f565b60405180910390fd5b60088281548110610f3457610f33614c86565b5b90600052602060002001549050919050565b610f4e613d3e565b81600081118015610f7f57507f00000000000000000000000000000000000000000000000000000000000000008111155b610fbe576040517f08c379a0000000000000000000000000000000000000000000000000000000008152600401610fb590614e0b565b60405180910390fd5b600f60008481526020019081526020016000206040518060a00160405290816000820154815260200160018201548152602001600282015481526020016003820160009054906101000a900460ff16600381111561101f5761101e614357565b5b600381111561103157611030614357565b5b8152602001600482015481525050915050919050565b606060007f000000000000000000000000000000000000000000000000000000000000000067ffffffffffffffff81111561108557611084614581565b5b6040519080825280602002602001820160405280156110be57816020015b6110ab613d16565b8152602001906001900390816110a35790505b50905060005b7f00000000000000000000000000000000000000000000000000000000000000008160ff16101561117b57601160006001836111009190614e2b565b60ff1660ff168152602001908152602001600020604051806080016040529081600082015481526020016001820154815260200160028201548152602001600382015481525050828260ff168151811061115d5761115c614c86565b5b6020026020010181905250808061117390614e62565b9150506110c4565b508091505090565b60008061118f836123f3565b9050600073ffffffffffffffffffffffffffffffffffffffff168173ffffffffffffffffffffffffffffffffffffffff161415611201576040517f08c379a00000000000000000000000000000000000000000000000000000000081526004016111f890614ed8565b60405180910390fd5b80915050919050565b600d5434101561124f576040517f08c379a000000000000000000000000000000000000000000000000000000000815260040161124690614f44565b60405180910390fd5b600061125b600c6123e5565b90507f00000000000000000000000000000000000000000000000000000000000000008111156112c0576040517f08c379a00000000000000000000000000000000000000000000000000000000081526004016112b790614fb0565b60405180910390fd5b6112ca600c612430565b60006112d6600c6123e5565b90506112e23382612446565b6112ec8184612464565b6112f46124d8565b600f600083815260200190815260200160002060030160006101000a81548160ff0219169083600381111561132c5761132b614357565b5b021790555060006113a3611362600f600085815260200190815260200160002060030160009054906101000a900460ff16612581565b6000015160ff16611395600f600086815260200190815260200160002060030160009054906101000a900460ff16612581565b6020015160ff1660036128a4565b9050806000815181106113b9576113b8614c86565b5b602002602001015160506113cd9190614fd0565b600f600084815260200190815260200160002060000181905550806001815181106113fb576113fa614c86565b5b6020026020010151605061140f9190614fd0565b600f6000848152602001908152602001600020600101819055508060028151811061143d5761143c614c86565b5b602002602001015160506114519190614fd0565b600f6000848152602001908152602001600020600201819055506000600f6000848152602001908152602001600020600401819055507f43fe67fc749d5540f036e7b378580be67f4027cb2ccb1e4bc71a83b1fd1129b282600f60008581526020019081526020016000206040516114ca92919061511f565b60405180910390a150505050565b60008073ffffffffffffffffffffffffffffffffffffffff168273ffffffffffffffffffffffffffffffffffffffff161415611549576040517f08c379a0000000000000000000000000000000000000000000000000000000008152600401611540906151ba565b60405180910390fd5b600360008373ffffffffffffffffffffffffffffffffffffffff1673ffffffffffffffffffffffffffffffffffffffff168152602001908152602001600020549050919050565b6115986129a6565b6115a26000612a24565b565b60006115b0600c6123e5565b905090565b6000600b60009054906101000a900473ffffffffffffffffffffffffffffffffffffffff16905090565b6060600180546115ee906149a0565b80601f016020809104026020016040519081016040528092919081815260200182805461161a906149a0565b80156116675780601f1061163c57610100808354040283529160200191611667565b820191906000526020600020905b81548152906001019060200180831161164a57829003601f168201915b5050505050905090565b61168361167c611f95565b8383612aea565b5050565b6000600d54905090565b806000811180156116c257507f00000000000000000000000000000000000000000000000000000000000000008111155b611701576040517f08c379a00000000000000000000000000000000000000000000000000000000081526004016116f890614e0b565b60405180910390fd5b8260ff1660008111801561173557507f00000000000000000000000000000000000000000000000000000000000000008111155b611774576040517f08c379a000000000000000000000000000000000000000000000000000000000815260040161176b90614951565b60405180910390fd5b823373ffffffffffffffffffffffffffffffffffffffff1661179582611183565b73ffffffffffffffffffffffffffffffffffffffff16146117eb576040517f08c379a00000000000000000000000000000000000000000000000000000000081526004016117e29061524c565b60405180910390fd5b6000601160008760ff1660ff16815260200190815260200160002060010154141561186f5783601160008760ff1660ff168152602001908152602001600020600101819055507f388485e542710392b92526733be88e3e46ab0ff64c1fd9853813fd6975755cf685856040516118629291906152a7565b60405180910390a1611b50565b6000601160008760ff1660ff1681526020019081526020016000206002015414156119195783601160008760ff1660ff1681526020019081526020016000206001015414156118f3576040517f08c379a00000000000000000000000000000000000000000000000000000000081526004016118ea90615342565b60405180910390fd5b83601160008760ff1660ff16815260200190815260200160002060020181905550611954565b6040517f08c379a000000000000000000000000000000000000000000000000000000000815260040161194b906153ae565b60405180910390fd5b6000611998601160008860ff1660ff16815260200190815260200160002060010154601160008960ff1660ff16815260200190815260200160002060020154612c57565b905080601160008860ff1660ff168152602001908152602001600020600301819055506119c56010612430565b601160008760ff1660ff168152602001908152602001600020601260006119ec60106123e5565b8152602001908152602001600020600082015481600001556001820154816001015560028201548160020155600382015481600301559050507fb4ac4ed0731b859e8e643e842c48ff0a96c8006bebe435317e13f82818805b28611a5060106123e5565b601160008960ff1660ff16815260200190815260200160002060010154601160008a60ff1660ff1681526020019081526020016000206002015484604051611a9b94939291906153ce565b60405180910390a160405180608001604052806000815260200160008152602001600081526020016000815250601160008860ff1660ff168152602001908152602001600020600082015181600001556020820151816001015560408201518160020155606082015181600301559050507fdb4195052ddbc96a521759453bd7e71df8f1214d34cf14974813ee28e712d9fb86611b3860106123e5565b604051611b469291906152a7565b60405180910390a1505b5050505050565b60007f0000000000000000000000000000000000000000000000000000000000000000905090565b611b90611b8a611f95565b83612056565b611bcf576040517f08c379a0000000000000000000000000000000000000000000000000000000008152600401611bc690614b68565b60405180910390fd5b611bdb84848484612d99565b50505050565b60606000611bef60106123e5565b67ffffffffffffffff811115611c0857611c07614581565b5b604051908082528060200260200182016040528015611c4157816020015b611c2e613d16565b815260200190600190039081611c265790505b50905060005b611c5160106123e5565b811015611cdb5760126000600183611c699190614fd0565b8152602001908152602001600020604051806080016040529081600082015481526020016001820154815260200160028201548152602001600382015481525050828281518110611cbd57611cbc614c86565b5b60200260200101819052508080611cd390614ce4565b915050611c47565b508091505090565b600081600081118015611d1657507f00000000000000000000000000000000000000000000000000000000000000008111155b611d55576040517f08c379a0000000000000000000000000000000000000000000000000000000008152600401611d4c90614e0b565b60405180910390fd5b611d5e83611183565b915050919050565b6060611d7182612df5565b9050919050565b60006001611d86600c6123e5565b611d909190614fd0565b905090565b6000600560008473ffffffffffffffffffffffffffffffffffffffff1673ffffffffffffffffffffffffffffffffffffffff16815260200190815260200160002060008373ffffffffffffffffffffffffffffffffffffffff1673ffffffffffffffffffffffffffffffffffffffff16815260200190815260200160002060009054906101000a900460ff16905092915050565b611e316129a6565b600073ffffffffffffffffffffffffffffffffffffffff168173ffffffffffffffffffffffffffffffffffffffff161415611ea1576040517f08c379a0000000000000000000000000000000000000000000000000000000008152600401611e9890615485565b60405180910390fd5b611eaa81612a24565b50565b611eb56129a6565b80600d8190555050565b6000611ecb60106123e5565b905090565b60007f780e9d63000000000000000000000000000000000000000000000000000000007bffffffffffffffffffffffffffffffffffffffffffffffffffffffff1916827bffffffffffffffffffffffffffffffffffffffffffffffffffffffff19161480611f435750611f4282612f08565b5b9050919050565b611f5381612fea565b611f92576040517f08c379a0000000000000000000000000000000000000000000000000000000008152600401611f8990614ed8565b60405180910390fd5b50565b600033905090565b816004600083815260200190815260200160002060006101000a81548173ffffffffffffffffffffffffffffffffffffffff021916908373ffffffffffffffffffffffffffffffffffffffff160217905550808273ffffffffffffffffffffffffffffffffffffffff1661201083611183565b73ffffffffffffffffffffffffffffffffffffffff167f8c5be1e5ebec7d5bd14f71427d1e84f3dd0314c0f7b2291e5b200ac8c7c3b92560405160405180910390a45050565b60008061206283611183565b90508073ffffffffffffffffffffffffffffffffffffffff168473ffffffffffffffffffffffffffffffffffffffff1614806120a457506120a38185611d95565b5b806120e257508373ffffffffffffffffffffffffffffffffffffffff166120ca84610a14565b73ffffffffffffffffffffffffffffffffffffffff16145b91505092915050565b8273ffffffffffffffffffffffffffffffffffffffff1661210b82611183565b73ffffffffffffffffffffffffffffffffffffffff1614612161576040517f08c379a000000000000000000000000000000000000000000000000000000000815260040161215890615517565b60405180910390fd5b600073ffffffffffffffffffffffffffffffffffffffff168273ffffffffffffffffffffffffffffffffffffffff1614156121d1576040517f08c379a00000000000000000000000000000000000000000000000000000000081526004016121c8906155a9565b60405180910390fd5b6121de838383600161302b565b8273ffffffffffffffffffffffffffffffffffffffff166121fe82611183565b73ffffffffffffffffffffffffffffffffffffffff1614612254576040517f08c379a000000000000000000000000000000000000000000000000000000000815260040161224b90615517565b60405180910390fd5b6004600082815260200190815260200160002060006101000a81549073ffffffffffffffffffffffffffffffffffffffff02191690556001600360008573ffffffffffffffffffffffffffffffffffffffff1673ffffffffffffffffffffffffffffffffffffffff168152602001908152602001600020600082825403925050819055506001600360008473ffffffffffffffffffffffffffffffffffffffff1673ffffffffffffffffffffffffffffffffffffffff16815260200190815260200160002060008282540192505081905550816002600083815260200190815260200160002060006101000a81548173ffffffffffffffffffffffffffffffffffffffff021916908373ffffffffffffffffffffffffffffffffffffffff160217905550808273ffffffffffffffffffffffffffffffffffffffff168473ffffffffffffffffffffffffffffffffffffffff167fddf252ad1be2c89b69c2b068fc378daa952ba7f163c4a11628f55a4df523b3ef60405160405180910390a46123e0838383600161303d565b505050565b600081600001549050919050565b60006002600083815260200190815260200160002060009054906101000a900473ffffffffffffffffffffffffffffffffffffffff169050919050565b6001816000016000828254019250508190555050565b612460828260405180602001604052806000815250613043565b5050565b61246d82612fea565b6124ac576040517f08c379a00000000000000000000000000000000000000000000000000000000081526004016124a39061563b565b60405180910390fd5b80600a600084815260200190815260200160002090805190602001906124d3929190613d7f565b505050565b6000806127106001436124eb919061565b565b406040516020016124fc91906156ba565b6040516020818303038152906040528051906020012060001c61251f9190615704565b9050611388811161253457600091505061257e565b6113888111801561254757506121348111155b1561255657600191505061257e565b61213481118015612569575061251c8111155b1561257857600291505061257e565b60039150505b90565b612589613e05565b6000600381111561259d5761259c614357565b5b8260038111156125b0576125af614357565b5b141561264057600e60006040516020016125ca9190615744565b6040516020818303038152906040526040516125e691906157a6565b90815260200160405180910390206040518060400160405290816000820160009054906101000a900460ff1660ff1660ff1681526020016000820160019054906101000a900460ff1660ff1660ff1681525050905061289f565b6001600381111561265457612653614357565b5b82600381111561266757612666614357565b5b14156126f757600e60016040516020016126819190615744565b60405160208183030381529060405260405161269d91906157a6565b90815260200160405180910390206040518060400160405290816000820160009054906101000a900460ff1660ff1660ff1681526020016000820160019054906101000a900460ff1660ff1660ff1681525050905061289f565b6002600381111561270b5761270a614357565b5b82600381111561271e5761271d614357565b5b14156127ae57600e60026040516020016127389190615744565b60405160208183030381529060405260405161275491906157a6565b90815260200160405180910390206040518060400160405290816000820160009054906101000a900460ff1660ff1660ff1681526020016000820160019054906101000a900460ff1660ff1660ff1681525050905061289f565b6003808111156127c1576127c0614357565b5b8260038111156127d4576127d3614357565b5b141561286457600e60036040516020016127ee9190615744565b60405160208183030381529060405260405161280a91906157a6565b90815260200160405180910390206040518060400160405290816000820160009054906101000a900460ff1660ff1660ff1681526020016000820160019054906101000a900460ff1660ff1660ff1681525050905061289f565b6040517f08c379a000000000000000000000000000000000000000000000000000000000815260040161289690615809565b60405180910390fd5b919050565b606060008267ffffffffffffffff8111156128c2576128c1614581565b5b6040519080825280602002602001820160405280156128f05781602001602082028036833780820191505090505b50905060005b8381101561299a576000866001888861290f919061565b565b6129199190614fd0565b600143612926919061565b565b4060405160200161293791906156ba565b6040516020818303038152906040528051906020012060001c61295a9190615704565b6129649190614fd0565b90508083838151811061297a57612979614c86565b5b60200260200101818152505050808061299290614ce4565b9150506128f6565b50809150509392505050565b6129ae611f95565b73ffffffffffffffffffffffffffffffffffffffff166129cc6115b5565b73ffffffffffffffffffffffffffffffffffffffff1614612a22576040517f08c379a0000000000000000000000000000000000000000000000000000000008152600401612a1990615875565b60405180910390fd5b565b6000600b60009054906101000a900473ffffffffffffffffffffffffffffffffffffffff16905081600b60006101000a81548173ffffffffffffffffffffffffffffffffffffffff021916908373ffffffffffffffffffffffffffffffffffffffff1602179055508173ffffffffffffffffffffffffffffffffffffffff168173ffffffffffffffffffffffffffffffffffffffff167f8be0079c531659141344cd1fd0a4f28419497f9722a3daafe3b4186f6b6457e060405160405180910390a35050565b8173ffffffffffffffffffffffffffffffffffffffff168373ffffffffffffffffffffffffffffffffffffffff161415612b59576040517f08c379a0000000000000000000000000000000000000000000000000000000008152600401612b50906158e1565b60405180910390fd5b80600560008573ffffffffffffffffffffffffffffffffffffffff1673ffffffffffffffffffffffffffffffffffffffff16815260200190815260200160002060008473ffffffffffffffffffffffffffffffffffffffff1673ffffffffffffffffffffffffffffffffffffffff16815260200190815260200160002060006101000a81548160ff0219169083151502179055508173ffffffffffffffffffffffffffffffffffffffff168373ffffffffffffffffffffffffffffffffffffffff167f17307eab39ab6107e8899845ad3d59bd9653f200f220920489ca2b5937696c3183604051612c4a9190613ef6565b60405180910390a3505050565b600080612c686000606460016128a4565b600081518110612c7b57612c7a614c86565b5b6020026020010151600f600086815260200190815260200160002060020154600f600087815260200190815260200160002060010154600f600088815260200190815260200160002060000154612cd29190614fd0565b612cdc9190614fd0565b612ce69190614fd0565b90506000612cf86000606460016128a4565b600081518110612d0b57612d0a614c86565b5b6020026020010151600f600086815260200190815260200160002060020154600f600087815260200190815260200160002060010154600f600088815260200190815260200160002060000154612d629190614fd0565b612d6c9190614fd0565b612d769190614fd0565b90506000818310612d8957859050612d8d565b8490505b80935050505092915050565b612da48484846120eb565b612db08484848461309e565b612def576040517f08c379a0000000000000000000000000000000000000000000000000000000008152600401612de690615973565b60405180910390fd5b50505050565b6060612e0082611f4a565b6000600a60008481526020019081526020016000208054612e20906149a0565b80601f0160208091040260200160405190810160405280929190818152602001828054612e4c906149a0565b8015612e995780601f10612e6e57610100808354040283529160200191612e99565b820191906000526020600020905b815481529060010190602001808311612e7c57829003601f168201915b505050505090506000612eaa613235565b9050600081511415612ec0578192505050612f03565b600082511115612ef5578082604051602001612edd9291906159cf565b60405160208183030381529060405292505050612f03565b612efe8461324c565b925050505b919050565b60007f80ac58cd000000000000000000000000000000000000000000000000000000007bffffffffffffffffffffffffffffffffffffffffffffffffffffffff1916827bffffffffffffffffffffffffffffffffffffffffffffffffffffffff19161480612fd357507f5b5e139f000000000000000000000000000000000000000000000000000000007bffffffffffffffffffffffffffffffffffffffffffffffffffffffff1916827bffffffffffffffffffffffffffffffffffffffffffffffffffffffff1916145b80612fe35750612fe2826132b4565b5b9050919050565b60008073ffffffffffffffffffffffffffffffffffffffff1661300c836123f3565b73ffffffffffffffffffffffffffffffffffffffff1614159050919050565b6130378484848461331e565b50505050565b50505050565b61304d838361347e565b61305a600084848461309e565b613099576040517f08c379a000000000000000000000000000000000000000000000000000000000815260040161309090615973565b60405180910390fd5b505050565b60006130bf8473ffffffffffffffffffffffffffffffffffffffff1661369c565b15613228578373ffffffffffffffffffffffffffffffffffffffff1663150b7a026130e8611f95565b8786866040518563ffffffff1660e01b815260040161310a9493929190615a3d565b602060405180830381600087803b15801561312457600080fd5b505af192505050801561315557506040513d601f19601f820116820180604052508101906131529190615a9e565b60015b6131d8573d8060008114613185576040519150601f19603f3d011682016040523d82523d6000602084013e61318a565b606091505b506000815114156131d0576040517f08c379a00000000000000000000000000000000000000000000000000000000081526004016131c790615973565b60405180910390fd5b805181602001fd5b63150b7a0260e01b7bffffffffffffffffffffffffffffffffffffffffffffffffffffffff1916817bffffffffffffffffffffffffffffffffffffffffffffffffffffffff19161491505061322d565b600190505b949350505050565b606060405180602001604052806000815250905090565b606061325782611f4a565b6000613261613235565b9050600081511161328157604051806020016040528060008152506132ac565b8061328b846136bf565b60405160200161329c9291906159cf565b6040516020818303038152906040525b915050919050565b60007f01ffc9a7000000000000000000000000000000000000000000000000000000007bffffffffffffffffffffffffffffffffffffffffffffffffffffffff1916827bffffffffffffffffffffffffffffffffffffffffffffffffffffffff1916149050919050565b61332a84848484613797565b600181111561336e576040517f08c379a000000000000000000000000000000000000000000000000000000000815260040161336590615b3d565b60405180910390fd5b6000829050600073ffffffffffffffffffffffffffffffffffffffff168573ffffffffffffffffffffffffffffffffffffffff1614156133b6576133b1816138bd565b6133f5565b8373ffffffffffffffffffffffffffffffffffffffff168573ffffffffffffffffffffffffffffffffffffffff16146133f4576133f38582613906565b5b5b600073ffffffffffffffffffffffffffffffffffffffff168473ffffffffffffffffffffffffffffffffffffffff1614156134385761343381613a73565b613477565b8473ffffffffffffffffffffffffffffffffffffffff168473ffffffffffffffffffffffffffffffffffffffff1614613476576134758482613b44565b5b5b5050505050565b600073ffffffffffffffffffffffffffffffffffffffff168273ffffffffffffffffffffffffffffffffffffffff1614156134ee576040517f08c379a00000000000000000000000000000000000000000000000000000000081526004016134e590615ba9565b60405180910390fd5b6134f781612fea565b15613537576040517f08c379a000000000000000000000000000000000000000000000000000000000815260040161352e90615c15565b60405180910390fd5b61354560008383600161302b565b61354e81612fea565b1561358e576040517f08c379a000000000000000000000000000000000000000000000000000000000815260040161358590615c15565b60405180910390fd5b6001600360008473ffffffffffffffffffffffffffffffffffffffff1673ffffffffffffffffffffffffffffffffffffffff16815260200190815260200160002060008282540192505081905550816002600083815260200190815260200160002060006101000a81548173ffffffffffffffffffffffffffffffffffffffff021916908373ffffffffffffffffffffffffffffffffffffffff160217905550808273ffffffffffffffffffffffffffffffffffffffff16600073ffffffffffffffffffffffffffffffffffffffff167fddf252ad1be2c89b69c2b068fc378daa952ba7f163c4a11628f55a4df523b3ef60405160405180910390a461369860008383600161303d565b5050565b6000808273ffffffffffffffffffffffffffffffffffffffff163b119050919050565b6060600060016136ce84613bc3565b01905060008167ffffffffffffffff8111156136ed576136ec614581565b5b6040519080825280601f01601f19166020018201604052801561371f5781602001600182028036833780820191505090505b509050600082602001820190505b60011561378c578080600190039150507f3031323334353637383961626364656600000000000000000000000000000000600a86061a8153600a8581613776576137756156d5565b5b04945060008514156137875761378c565b61372d565b819350505050919050565b60018111156138b757600073ffffffffffffffffffffffffffffffffffffffff168473ffffffffffffffffffffffffffffffffffffffff161461382b5780600360008673ffffffffffffffffffffffffffffffffffffffff1673ffffffffffffffffffffffffffffffffffffffff1681526020019081526020016000206000828254613823919061565b565b925050819055505b600073ffffffffffffffffffffffffffffffffffffffff168373ffffffffffffffffffffffffffffffffffffffff16146138b65780600360008573ffffffffffffffffffffffffffffffffffffffff1673ffffffffffffffffffffffffffffffffffffffff16815260200190815260200160002060008282546138ae9190614fd0565b925050819055505b5b50505050565b6008805490506009600083815260200190815260200160002081905550600881908060018154018082558091505060019003906000526020600020016000909190919091505550565b60006001613913846114d8565b61391d919061565b565b9050600060076000848152602001908152602001600020549050818114613a02576000600660008673ffffffffffffffffffffffffffffffffffffffff1673ffffffffffffffffffffffffffffffffffffffff168152602001908152602001600020600084815260200190815260200160002054905080600660008773ffffffffffffffffffffffffffffffffffffffff1673ffffffffffffffffffffffffffffffffffffffff168152602001908152602001600020600084815260200190815260200160002081905550816007600083815260200190815260200160002081905550505b6007600084815260200190815260200160002060009055600660008573ffffffffffffffffffffffffffffffffffffffff1673ffffffffffffffffffffffffffffffffffffffff16815260200190815260200160002060008381526020019081526020016000206000905550505050565b60006001600880549050613a87919061565b565b9050600060096000848152602001908152602001600020549050600060088381548110613ab757613ab6614c86565b5b906000526020600020015490508060088381548110613ad957613ad8614c86565b5b906000526020600020018190555081600960008381526020019081526020016000208190555060096000858152602001908152602001600020600090556008805480613b2857613b27615c35565b5b6001900381819060005260206000200160009055905550505050565b6000613b4f836114d8565b905081600660008573ffffffffffffffffffffffffffffffffffffffff1673ffffffffffffffffffffffffffffffffffffffff168152602001908152602001600020600083815260200190815260200160002081905550806007600084815260200190815260200160002081905550505050565b600080600090507a184f03e93ff9f4daa797ed6e38ed64bf6a1f0100000000000000008310613c21577a184f03e93ff9f4daa797ed6e38ed64bf6a1f0100000000000000008381613c1757613c166156d5565b5b0492506040810190505b6d04ee2d6d415b85acef81000000008310613c5e576d04ee2d6d415b85acef81000000008381613c5457613c536156d5565b5b0492506020810190505b662386f26fc100008310613c8d57662386f26fc100008381613c8357613c826156d5565b5b0492506010810190505b6305f5e1008310613cb6576305f5e1008381613cac57613cab6156d5565b5b0492506008810190505b6127108310613cdb576127108381613cd157613cd06156d5565b5b0492506004810190505b60648310613cfe5760648381613cf457613cf36156d5565b5b0492506002810190505b600a8310613d0d576001810190505b80915050919050565b6040518060800160405280600081526020016000815260200160008152602001600081525090565b6040518060a0016040528060008152602001600081526020016000815260200160006003811115613d7257613d71614357565b5b8152602001600081525090565b828054613d8b906149a0565b90600052602060002090601f016020900481019282613dad5760008555613df4565b82601f10613dc657805160ff1916838001178555613df4565b82800160010185558215613df4579182015b82811115613df3578251825591602001919060010190613dd8565b5b509050613e019190613e25565b5090565b6040518060400160405280600060ff168152602001600060ff1681525090565b5b80821115613e3e576000816000905550600101613e26565b5090565b6000604051905090565b600080fd5b600080fd5b60007fffffffff0000000000000000000000000000000000000000000000000000000082169050919050565b613e8b81613e56565b8114613e9657600080fd5b50565b600081359050613ea881613e82565b92915050565b600060208284031215613ec457613ec3613e4c565b5b6000613ed284828501613e99565b91505092915050565b60008115159050919050565b613ef081613edb565b82525050565b6000602082019050613f0b6000830184613ee7565b92915050565b600060ff82169050919050565b613f2781613f11565b8114613f3257600080fd5b50565b600081359050613f4481613f1e565b92915050565b600060208284031215613f6057613f5f613e4c565b5b6000613f6e84828501613f35565b91505092915050565b6000819050919050565b613f8a81613f77565b82525050565b608082016000820151613fa66000850182613f81565b506020820151613fb96020850182613f81565b506040820151613fcc6040850182613f81565b506060820151613fdf6060850182613f81565b50505050565b6000608082019050613ffa6000830184613f90565b92915050565b600081519050919050565b600082825260208201905092915050565b60005b8381101561403a57808201518184015260208101905061401f565b83811115614049576000848401525b50505050565b6000601f19601f8301169050919050565b600061406b82614000565b614075818561400b565b935061408581856020860161401c565b61408e8161404f565b840191505092915050565b600060208201905081810360008301526140b38184614060565b905092915050565b6140c481613f77565b81146140cf57600080fd5b50565b6000813590506140e1816140bb565b92915050565b6000602082840312156140fd576140fc613e4c565b5b600061410b848285016140d2565b91505092915050565b600073ffffffffffffffffffffffffffffffffffffffff82169050919050565b600061413f82614114565b9050919050565b61414f81614134565b82525050565b600060208201905061416a6000830184614146565b92915050565b61417981614134565b811461418457600080fd5b50565b60008135905061419681614170565b92915050565b600080604083850312156141b3576141b2613e4c565b5b60006141c185828601614187565b92505060206141d2858286016140d2565b9150509250929050565b6141e581613f77565b82525050565b600060208201905061420060008301846141dc565b92915050565b60008060006060848603121561421f5761421e613e4c565b5b600061422d86828701614187565b935050602061423e86828701614187565b925050604061424f868287016140d2565b9150509250925092565b60006020828403121561426f5761426e613e4c565b5b600061427d84828501614187565b91505092915050565b600081519050919050565b600082825260208201905092915050565b6000819050602082019050919050565b60006142be8383613f81565b60208301905092915050565b6000602082019050919050565b60006142e282614286565b6142ec8185614291565b93506142f7836142a2565b8060005b8381101561432857815161430f88826142b2565b975061431a836142ca565b9250506001810190506142fb565b5085935050505092915050565b6000602082019050818103600083015261434f81846142d7565b905092915050565b7f4e487b7100000000000000000000000000000000000000000000000000000000600052602160045260246000fd5b6004811061439757614396614357565b5b50565b60008190506143a882614386565b919050565b60006143b88261439a565b9050919050565b6143c8816143ad565b82525050565b60a0820160008201516143e46000850182613f81565b5060208201516143f76020850182613f81565b50604082015161440a6040850182613f81565b50606082015161441d60608501826143bf565b5060808201516144306080850182613f81565b50505050565b600060a08201905061444b60008301846143ce565b92915050565b600081519050919050565b600082825260208201905092915050565b6000819050602082019050919050565b6080820160008201516144936000850182613f81565b5060208201516144a66020850182613f81565b5060408201516144b96040850182613f81565b5060608201516144cc6060850182613f81565b50505050565b60006144de838361447d565b60808301905092915050565b6000602082019050919050565b600061450282614451565b61450c818561445c565b93506145178361446d565b8060005b8381101561454857815161452f88826144d2565b975061453a836144ea565b92505060018101905061451b565b5085935050505092915050565b6000602082019050818103600083015261456f81846144f7565b905092915050565b600080fd5b600080fd5b7f4e487b7100000000000000000000000000000000000000000000000000000000600052604160045260246000fd5b6145b98261404f565b810181811067ffffffffffffffff821117156145d8576145d7614581565b5b80604052505050565b60006145eb613e42565b90506145f782826145b0565b919050565b600067ffffffffffffffff82111561461757614616614581565b5b6146208261404f565b9050602081019050919050565b82818337600083830152505050565b600061464f61464a846145fc565b6145e1565b90508281526020810184848401111561466b5761466a61457c565b5b61467684828561462d565b509392505050565b600082601f83011261469357614692614577565b5b81356146a384826020860161463c565b91505092915050565b6000602082840312156146c2576146c1613e4c565b5b600082013567ffffffffffffffff8111156146e0576146df613e51565b5b6146ec8482850161467e565b91505092915050565b6146fe81613edb565b811461470957600080fd5b50565b60008135905061471b816146f5565b92915050565b6000806040838503121561473857614737613e4c565b5b600061474685828601614187565b92505060206147578582860161470c565b9150509250929050565b6000806040838503121561477857614777613e4c565b5b600061478685828601613f35565b9250506020614797858286016140d2565b9150509250929050565b600067ffffffffffffffff8211156147bc576147bb614581565b5b6147c58261404f565b9050602081019050919050565b60006147e56147e0846147a1565b6145e1565b9050828152602081018484840111156148015761480061457c565b5b61480c84828561462d565b509392505050565b600082601f83011261482957614828614577565b5b81356148398482602086016147d2565b91505092915050565b6000806000806080858703121561485c5761485b613e4c565b5b600061486a87828801614187565b945050602061487b87828801614187565b935050604061488c878288016140d2565b925050606085013567ffffffffffffffff8111156148ad576148ac613e51565b5b6148b987828801614814565b91505092959194509250565b600080604083850312156148dc576148db613e4c565b5b60006148ea85828601614187565b92505060206148fb85828601614187565b9150509250929050565b7f4172656e6120494420697320696e76616c696400000000000000000000000000600082015250565b600061493b60138361400b565b915061494682614905565b602082019050919050565b6000602082019050818103600083015261496a8161492e565b9050919050565b7f4e487b7100000000000000000000000000000000000000000000000000000000600052602260045260246000fd5b600060028204905060018216806149b857607f821691505b602082108114156149cc576149cb614971565b5b50919050565b7f4552433732313a20617070726f76616c20746f2063757272656e74206f776e6560008201527f7200000000000000000000000000000000000000000000000000000000000000602082015250565b6000614a2e60218361400b565b9150614a39826149d2565b604082019050919050565b60006020820190508181036000830152614a5d81614a21565b9050919050565b7f4552433732313a20617070726f76652063616c6c6572206973206e6f7420746f60008201527f6b656e206f776e6572206f7220617070726f76656420666f7220616c6c000000602082015250565b6000614ac0603d8361400b565b9150614acb82614a64565b604082019050919050565b60006020820190508181036000830152614aef81614ab3565b9050919050565b7f4552433732313a2063616c6c6572206973206e6f7420746f6b656e206f776e6560008201527f72206f7220617070726f76656400000000000000000000000000000000000000602082015250565b6000614b52602d8361400b565b9150614b5d82614af6565b604082019050919050565b60006020820190508181036000830152614b8181614b45565b9050919050565b7f455243373231456e756d657261626c653a206f776e657220696e646578206f7560008201527f74206f6620626f756e6473000000000000000000000000000000000000000000602082015250565b6000614be4602b8361400b565b9150614bef82614b88565b604082019050919050565b60006020820190508181036000830152614c1381614bd7565b9050919050565b7f4d6174636820494420697320696e76616c696400000000000000000000000000600082015250565b6000614c5060138361400b565b9150614c5b82614c1a565b602082019050919050565b60006020820190508181036000830152614c7f81614c43565b9050919050565b7f4e487b7100000000000000000000000000000000000000000000000000000000600052603260045260246000fd5b7f4e487b7100000000000000000000000000000000000000000000000000000000600052601160045260246000fd5b6000614cef82613f77565b91507fffffffffffffffffffffffffffffffffffffffffffffffffffffffffffffffff821415614d2257614d21614cb5565b5b600182019050919050565b7f455243373231456e756d657261626c653a20676c6f62616c20696e646578206f60008201527f7574206f6620626f756e64730000000000000000000000000000000000000000602082015250565b6000614d89602c8361400b565b9150614d9482614d2d565b604082019050919050565b60006020820190508181036000830152614db881614d7c565b9050919050565b7f546f6b656e20494420697320696e76616c696400000000000000000000000000600082015250565b6000614df560138361400b565b9150614e0082614dbf565b602082019050919050565b60006020820190508181036000830152614e2481614de8565b9050919050565b6000614e3682613f11565b9150614e4183613f11565b92508260ff03821115614e5757614e56614cb5565b5b828201905092915050565b6000614e6d82613f11565b915060ff821415614e8157614e80614cb5565b5b600182019050919050565b7f4552433732313a20696e76616c696420746f6b656e2049440000000000000000600082015250565b6000614ec260188361400b565b9150614ecd82614e8c565b602082019050919050565b60006020820190508181036000830152614ef181614eb5565b9050919050565b7f45746865722073656e74206973206e6f7420636f727265637400000000000000600082015250565b6000614f2e60198361400b565b9150614f3982614ef8565b602082019050919050565b60006020820190508181036000830152614f5d81614f21565b9050919050565b7f457863656564206d6178696d756d20666967687465727320737570706c790000600082015250565b6000614f9a601e8361400b565b9150614fa582614f64565b602082019050919050565b60006020820190508181036000830152614fc981614f8d565b9050919050565b6000614fdb82613f77565b9150614fe683613f77565b9250827fffffffffffffffffffffffffffffffffffffffffffffffffffffffffffffffff0382111561501b5761501a614cb5565b5b828201905092915050565b60008160001c9050919050565b6000819050919050565b600061505061504b83615026565b615033565b9050919050565b600060ff82169050919050565b600061507761507283615026565b615057565b9050919050565b60a0820160008083015490506150938161503d565b6150a06000860182613f81565b50600183015490506150b18161503d565b6150be6020860182613f81565b50600283015490506150cf8161503d565b6150dc6040860182613f81565b50600383015490506150ed81615064565b6150fa60608601826143bf565b506004830154905061510b8161503d565b6151186080860182613f81565b5050505050565b600060c08201905061513460008301856141dc565b615141602083018461507e565b9392505050565b7f4552433732313a2061646472657373207a65726f206973206e6f74206120766160008201527f6c6964206f776e65720000000000000000000000000000000000000000000000602082015250565b60006151a460298361400b565b91506151af82615148565b604082019050919050565b600060208201905081810360008301526151d381615197565b9050919050565b7f596f7520617265206e6f7420746865206f776e6572206f66207468697320746f60008201527f6b656e0000000000000000000000000000000000000000000000000000000000602082015250565b600061523660238361400b565b9150615241826151da565b604082019050919050565b6000602082019050818103600083015261526581615229565b9050919050565b6000819050919050565b600061529161528c61528784613f11565b61526c565b613f77565b9050919050565b6152a181615276565b82525050565b60006040820190506152bc6000830185615298565b6152c960208301846141dc565b9392505050565b7f596f752068617665206a6f696e656420696e2074686973206172656e6120616c60008201527f72656164792e0000000000000000000000000000000000000000000000000000602082015250565b600061532c60268361400b565b9150615337826152d0565b604082019050919050565b6000602082019050818103600083015261535b8161531f565b9050919050565b7f4172656e612069732066756c6c21000000000000000000000000000000000000600082015250565b6000615398600e8361400b565b91506153a382615362565b602082019050919050565b600060208201905081810360008301526153c78161538b565b9050919050565b60006080820190506153e360008301876141dc565b6153f060208301866141dc565b6153fd60408301856141dc565b61540a60608301846141dc565b95945050505050565b7f4f776e61626c653a206e6577206f776e657220697320746865207a65726f206160008201527f6464726573730000000000000000000000000000000000000000000000000000602082015250565b600061546f60268361400b565b915061547a82615413565b604082019050919050565b6000602082019050818103600083015261549e81615462565b9050919050565b7f4552433732313a207472616e736665722066726f6d20696e636f72726563742060008201527f6f776e6572000000000000000000000000000000000000000000000000000000602082015250565b600061550160258361400b565b915061550c826154a5565b604082019050919050565b60006020820190508181036000830152615530816154f4565b9050919050565b7f4552433732313a207472616e7366657220746f20746865207a65726f2061646460008201527f7265737300000000000000000000000000000000000000000000000000000000602082015250565b600061559360248361400b565b915061559e82615537565b604082019050919050565b600060208201905081810360008301526155c281615586565b9050919050565b7f45524337323155524953746f726167653a2055524920736574206f66206e6f6e60008201527f6578697374656e7420746f6b656e000000000000000000000000000000000000602082015250565b6000615625602e8361400b565b9150615630826155c9565b604082019050919050565b6000602082019050818103600083015261565481615618565b9050919050565b600061566682613f77565b915061567183613f77565b92508282101561568457615683614cb5565b5b828203905092915050565b6000819050919050565b6000819050919050565b6156b46156af8261568f565b615699565b82525050565b60006156c682846156a3565b60208201915081905092915050565b7f4e487b7100000000000000000000000000000000000000000000000000000000600052601260045260246000fd5b600061570f82613f77565b915061571a83613f77565b92508261572a576157296156d5565b5b828206905092915050565b61573e816143ad565b82525050565b60006020820190506157596000830184615735565b92915050565b600081519050919050565b600081905092915050565b60006157808261575f565b61578a818561576a565b935061579a81856020860161401c565b80840191505092915050565b60006157b28284615775565b915081905092915050565b7f496e76616c696420726172697479210000000000000000000000000000000000600082015250565b60006157f3600f8361400b565b91506157fe826157bd565b602082019050919050565b60006020820190508181036000830152615822816157e6565b9050919050565b7f4f776e61626c653a2063616c6c6572206973206e6f7420746865206f776e6572600082015250565b600061585f60208361400b565b915061586a82615829565b602082019050919050565b6000602082019050818103600083015261588e81615852565b9050919050565b7f4552433732313a20617070726f766520746f2063616c6c657200000000000000600082015250565b60006158cb60198361400b565b91506158d682615895565b602082019050919050565b600060208201905081810360008301526158fa816158be565b9050919050565b7f4552433732313a207472616e7366657220746f206e6f6e20455243373231526560008201527f63656976657220696d706c656d656e7465720000000000000000000000000000602082015250565b600061595d60328361400b565b915061596882615901565b604082019050919050565b6000602082019050818103600083015261598c81615950565b9050919050565b600081905092915050565b60006159a982614000565b6159b38185615993565b93506159c381856020860161401c565b80840191505092915050565b60006159db828561599e565b91506159e7828461599e565b91508190509392505050565b600082825260208201905092915050565b6000615a0f8261575f565b615a1981856159f3565b9350615a2981856020860161401c565b615a328161404f565b840191505092915050565b6000608082019050615a526000830187614146565b615a5f6020830186614146565b615a6c60408301856141dc565b8181036060830152615a7e8184615a04565b905095945050505050565b600081519050615a9881613e82565b92915050565b600060208284031215615ab457615ab3613e4c565b5b6000615ac284828501615a89565b91505092915050565b7f455243373231456e756d657261626c653a20636f6e736563757469766520747260008201527f616e7366657273206e6f7420737570706f727465640000000000000000000000602082015250565b6000615b2760358361400b565b9150615b3282615acb565b604082019050919050565b60006020820190508181036000830152615b5681615b1a565b9050919050565b7f4552433732313a206d696e7420746f20746865207a65726f2061646472657373600082015250565b6000615b9360208361400b565b9150615b9e82615b5d565b602082019050919050565b60006020820190508181036000830152615bc281615b86565b9050919050565b7f4552433732313a20746f6b656e20616c7265616479206d696e74656400000000600082015250565b6000615bff601c8361400b565b9150615c0a82615bc9565b602082019050919050565b60006020820190508181036000830152615c2e81615bf2565b9050919050565b7f4e487b7100000000000000000000000000000000000000000000000000000000600052603160045260246000fdfea2646970667358221220bf155b14105b526bd03593dd7147a40f50583cb8ea7f8a851892f95d2b7759fb64736f6c63430008080033",
  "devdoc": {
    "kind": "dev",
    "methods": {
      "approve(address,uint256)": {
        "details": "See {IERC721-approve}."
      },
      "balanceOf(address)": {
        "details": "See {IERC721-balanceOf}."
      },
      "getApproved(uint256)": {
        "details": "See {IERC721-getApproved}."
      },
      "isApprovedForAll(address,address)": {
        "details": "See {IERC721-isApprovedForAll}."
      },
      "joinArena(uint8,uint256)": {
        "details": "Allows the owner of a token to join a arena with another player's token. If the arena is full, a match will be initiated between the two tokens and the winner will be stored in the winnerId field of the Match struct. Reverts if the caller is not the owner of the token, if the arena number is invalid, if the token ID is invalid, or if the arena is already full.",
        "params": {
          "_arenaNumber": "The number of the arena to join.",
          "_tokenId": "The ID of the token to use in the match."
        }
      },
      "name()": {
        "details": "See {IERC721Metadata-name}."
      },
      "owner()": {
        "details": "Returns the address of the current owner."
      },
      "ownerOf(uint256)": {
        "details": "See {IERC721-ownerOf}."
      },
      "renounceOwnership()": {
        "details": "Leaves the contract without owner. It will not be possible to call `onlyOwner` functions anymore. Can only be called by the current owner. NOTE: Renouncing ownership will leave the contract without an owner, thereby removing any functionality that is only available to the owner."
      },
      "safeMint(string)": {
        "details": "Creates a new non-fungible token and assigns it to the caller. Reverts if the correct amount of ether is not sent with the transaction, if the maximum number of tokens has already been reached, or if there is an error during the minting process.",
        "params": {
          "_tokenURI": "The URI of the token."
        }
      },
      "safeTransferFrom(address,address,uint256)": {
        "details": "See {IERC721-safeTransferFrom}."
      },
      "safeTransferFrom(address,address,uint256,bytes)": {
        "details": "See {IERC721-safeTransferFrom}."
      },
      "setApprovalForAll(address,bool)": {
        "details": "See {IERC721-setApprovalForAll}."
      },
      "symbol()": {
        "details": "See {IERC721Metadata-symbol}."
      },
      "tokenByIndex(uint256)": {
        "details": "See {IERC721Enumerable-tokenByIndex}."
      },
      "tokenOfOwnerByIndex(address,uint256)": {
        "details": "See {IERC721Enumerable-tokenOfOwnerByIndex}."
      },
      "totalSupply()": {
        "details": "See {IERC721Enumerable-totalSupply}."
      },
      "transferFrom(address,address,uint256)": {
        "details": "See {IERC721-transferFrom}."
      },
      "transferOwnership(address)": {
        "details": "Transfers ownership of the contract to a new account (`newOwner`). Can only be called by the current owner."
      }
    },
    "version": 1
  },
  "userdoc": {
    "kind": "user",
    "methods": {},
    "version": 1
  },
  "storageLayout": {
    "storage": [
      {
        "astId": 138,
        "contract": "contracts/UltimateFightingMetaverse.sol:UltimateFightingMetaverse",
        "label": "_name",
        "offset": 0,
        "slot": "0",
        "type": "t_string_storage"
      },
      {
        "astId": 140,
        "contract": "contracts/UltimateFightingMetaverse.sol:UltimateFightingMetaverse",
        "label": "_symbol",
        "offset": 0,
        "slot": "1",
        "type": "t_string_storage"
      },
      {
        "astId": 144,
        "contract": "contracts/UltimateFightingMetaverse.sol:UltimateFightingMetaverse",
        "label": "_owners",
        "offset": 0,
        "slot": "2",
        "type": "t_mapping(t_uint256,t_address)"
      },
      {
        "astId": 148,
        "contract": "contracts/UltimateFightingMetaverse.sol:UltimateFightingMetaverse",
        "label": "_balances",
        "offset": 0,
        "slot": "3",
        "type": "t_mapping(t_address,t_uint256)"
      },
      {
        "astId": 152,
        "contract": "contracts/UltimateFightingMetaverse.sol:UltimateFightingMetaverse",
        "label": "_tokenApprovals",
        "offset": 0,
        "slot": "4",
        "type": "t_mapping(t_uint256,t_address)"
      },
      {
        "astId": 158,
        "contract": "contracts/UltimateFightingMetaverse.sol:UltimateFightingMetaverse",
        "label": "_operatorApprovals",
        "offset": 0,
        "slot": "5",
        "type": "t_mapping(t_address,t_mapping(t_address,t_bool))"
      },
      {
        "astId": 1206,
        "contract": "contracts/UltimateFightingMetaverse.sol:UltimateFightingMetaverse",
        "label": "_ownedTokens",
        "offset": 0,
        "slot": "6",
        "type": "t_mapping(t_address,t_mapping(t_uint256,t_uint256))"
      },
      {
        "astId": 1210,
        "contract": "contracts/UltimateFightingMetaverse.sol:UltimateFightingMetaverse",
        "label": "_ownedTokensIndex",
        "offset": 0,
        "slot": "7",
        "type": "t_mapping(t_uint256,t_uint256)"
      },
      {
        "astId": 1213,
        "contract": "contracts/UltimateFightingMetaverse.sol:UltimateFightingMetaverse",
        "label": "_allTokens",
        "offset": 0,
        "slot": "8",
        "type": "t_array(t_uint256)dyn_storage"
      },
      {
        "astId": 1217,
        "contract": "contracts/UltimateFightingMetaverse.sol:UltimateFightingMetaverse",
        "label": "_allTokensIndex",
        "offset": 0,
        "slot": "9",
        "type": "t_mapping(t_uint256,t_uint256)"
      },
      {
        "astId": 1558,
        "contract": "contracts/UltimateFightingMetaverse.sol:UltimateFightingMetaverse",
        "label": "_tokenURIs",
        "offset": 0,
        "slot": "10",
        "type": "t_mapping(t_uint256,t_string_storage)"
      },
      {
        "astId": 7,
        "contract": "contracts/UltimateFightingMetaverse.sol:UltimateFightingMetaverse",
        "label": "_owner",
        "offset": 0,
        "slot": "11",
        "type": "t_address"
      },
      {
        "astId": 3283,
        "contract": "contracts/UltimateFightingMetaverse.sol:UltimateFightingMetaverse",
        "label": "s_tokenIdCounter",
        "offset": 0,
        "slot": "12",
        "type": "t_struct(Counter)2086_storage"
      },
      {
        "astId": 3291,
        "contract": "contracts/UltimateFightingMetaverse.sol:UltimateFightingMetaverse",
        "label": "s_mintPrice",
        "offset": 0,
        "slot": "13",
        "type": "t_uint256"
      },
      {
        "astId": 3296,
        "contract": "contracts/UltimateFightingMetaverse.sol:UltimateFightingMetaverse",
        "label": "s_rarityAdjustments",
        "offset": 0,
        "slot": "14",
        "type": "t_mapping(t_bytes_memory_ptr,t_struct(TraitAdjustmentByRarity)3280_storage)"
      },
      {
        "astId": 3301,
        "contract": "contracts/UltimateFightingMetaverse.sol:UltimateFightingMetaverse",
        "label": "s_tokenIdToStats",
        "offset": 0,
        "slot": "15",
        "type": "t_mapping(t_uint256,t_struct(Stats)3266_storage)"
      },
      {
        "astId": 3304,
        "contract": "contracts/UltimateFightingMetaverse.sol:UltimateFightingMetaverse",
        "label": "s_matchIdCounter",
        "offset": 0,
        "slot": "16",
        "type": "t_struct(Counter)2086_storage"
      },
      {
        "astId": 3312,
        "contract": "contracts/UltimateFightingMetaverse.sol:UltimateFightingMetaverse",
        "label": "s_arenas",
        "offset": 0,
        "slot": "17",
        "type": "t_mapping(t_uint8,t_struct(Match)3275_storage)"
      },
      {
        "astId": 3317,
        "contract": "contracts/UltimateFightingMetaverse.sol:UltimateFightingMetaverse",
        "label": "s_matches",
        "offset": 0,
        "slot": "18",
        "type": "t_mapping(t_uint256,t_struct(Match)3275_storage)"
      }
    ],
    "types": {
      "t_address": {
        "encoding": "inplace",
        "label": "address",
        "numberOfBytes": "20"
      },
      "t_array(t_uint256)dyn_storage": {
        "base": "t_uint256",
        "encoding": "dynamic_array",
        "label": "uint256[]",
        "numberOfBytes": "32"
      },
      "t_bool": {
        "encoding": "inplace",
        "label": "bool",
        "numberOfBytes": "1"
      },
      "t_bytes_memory_ptr": {
        "encoding": "bytes",
        "label": "bytes",
        "numberOfBytes": "32"
      },
      "t_enum(Rarities)3254": {
        "encoding": "inplace",
        "label": "enum UltimateFightingMetaverse.Rarities",
        "numberOfBytes": "1"
      },
      "t_mapping(t_address,t_bool)": {
        "encoding": "mapping",
        "key": "t_address",
        "label": "mapping(address => bool)",
        "numberOfBytes": "32",
        "value": "t_bool"
      },
      "t_mapping(t_address,t_mapping(t_address,t_bool))": {
        "encoding": "mapping",
        "key": "t_address",
        "label": "mapping(address => mapping(address => bool))",
        "numberOfBytes": "32",
        "value": "t_mapping(t_address,t_bool)"
      },
      "t_mapping(t_address,t_mapping(t_uint256,t_uint256))": {
        "encoding": "mapping",
        "key": "t_address",
        "label": "mapping(address => mapping(uint256 => uint256))",
        "numberOfBytes": "32",
        "value": "t_mapping(t_uint256,t_uint256)"
      },
      "t_mapping(t_address,t_uint256)": {
        "encoding": "mapping",
        "key": "t_address",
        "label": "mapping(address => uint256)",
        "numberOfBytes": "32",
        "value": "t_uint256"
      },
      "t_mapping(t_bytes_memory_ptr,t_struct(TraitAdjustmentByRarity)3280_storage)": {
        "encoding": "mapping",
        "key": "t_bytes_memory_ptr",
        "label": "mapping(bytes => struct UltimateFightingMetaverse.TraitAdjustmentByRarity)",
        "numberOfBytes": "32",
        "value": "t_struct(TraitAdjustmentByRarity)3280_storage"
      },
      "t_mapping(t_uint256,t_address)": {
        "encoding": "mapping",
        "key": "t_uint256",
        "label": "mapping(uint256 => address)",
        "numberOfBytes": "32",
        "value": "t_address"
      },
      "t_mapping(t_uint256,t_string_storage)": {
        "encoding": "mapping",
        "key": "t_uint256",
        "label": "mapping(uint256 => string)",
        "numberOfBytes": "32",
        "value": "t_string_storage"
      },
      "t_mapping(t_uint256,t_struct(Match)3275_storage)": {
        "encoding": "mapping",
        "key": "t_uint256",
        "label": "mapping(uint256 => struct UltimateFightingMetaverse.Match)",
        "numberOfBytes": "32",
        "value": "t_struct(Match)3275_storage"
      },
      "t_mapping(t_uint256,t_struct(Stats)3266_storage)": {
        "encoding": "mapping",
        "key": "t_uint256",
        "label": "mapping(uint256 => struct UltimateFightingMetaverse.Stats)",
        "numberOfBytes": "32",
        "value": "t_struct(Stats)3266_storage"
      },
      "t_mapping(t_uint256,t_uint256)": {
        "encoding": "mapping",
        "key": "t_uint256",
        "label": "mapping(uint256 => uint256)",
        "numberOfBytes": "32",
        "value": "t_uint256"
      },
      "t_mapping(t_uint8,t_struct(Match)3275_storage)": {
        "encoding": "mapping",
        "key": "t_uint8",
        "label": "mapping(uint8 => struct UltimateFightingMetaverse.Match)",
        "numberOfBytes": "32",
        "value": "t_struct(Match)3275_storage"
      },
      "t_string_storage": {
        "encoding": "bytes",
        "label": "string",
        "numberOfBytes": "32"
      },
      "t_struct(Counter)2086_storage": {
        "encoding": "inplace",
        "label": "struct Counters.Counter",
        "members": [
          {
            "astId": 2085,
            "contract": "contracts/UltimateFightingMetaverse.sol:UltimateFightingMetaverse",
            "label": "_value",
            "offset": 0,
            "slot": "0",
            "type": "t_uint256"
          }
        ],
        "numberOfBytes": "32"
      },
      "t_struct(Match)3275_storage": {
        "encoding": "inplace",
        "label": "struct UltimateFightingMetaverse.Match",
        "members": [
          {
            "astId": 3268,
            "contract": "contracts/UltimateFightingMetaverse.sol:UltimateFightingMetaverse",
            "label": "matchId",
            "offset": 0,
            "slot": "0",
            "type": "t_uint256"
          },
          {
            "astId": 3270,
            "contract": "contracts/UltimateFightingMetaverse.sol:UltimateFightingMetaverse",
            "label": "tokenId1",
            "offset": 0,
            "slot": "1",
            "type": "t_uint256"
          },
          {
            "astId": 3272,
            "contract": "contracts/UltimateFightingMetaverse.sol:UltimateFightingMetaverse",
            "label": "tokenId2",
            "offset": 0,
            "slot": "2",
            "type": "t_uint256"
          },
          {
            "astId": 3274,
            "contract": "contracts/UltimateFightingMetaverse.sol:UltimateFightingMetaverse",
            "label": "winnerId",
            "offset": 0,
            "slot": "3",
            "type": "t_uint256"
          }
        ],
        "numberOfBytes": "128"
      },
      "t_struct(Stats)3266_storage": {
        "encoding": "inplace",
        "label": "struct UltimateFightingMetaverse.Stats",
        "members": [
          {
            "astId": 3256,
            "contract": "contracts/UltimateFightingMetaverse.sol:UltimateFightingMetaverse",
            "label": "strength",
            "offset": 0,
            "slot": "0",
            "type": "t_uint256"
          },
          {
            "astId": 3258,
            "contract": "contracts/UltimateFightingMetaverse.sol:UltimateFightingMetaverse",
            "label": "stamina",
            "offset": 0,
            "slot": "1",
            "type": "t_uint256"
          },
          {
            "astId": 3260,
            "contract": "contracts/UltimateFightingMetaverse.sol:UltimateFightingMetaverse",
            "label": "technique",
            "offset": 0,
            "slot": "2",
            "type": "t_uint256"
          },
          {
            "astId": 3263,
            "contract": "contracts/UltimateFightingMetaverse.sol:UltimateFightingMetaverse",
            "label": "rarity",
            "offset": 0,
            "slot": "3",
            "type": "t_enum(Rarities)3254"
          },
          {
            "astId": 3265,
            "contract": "contracts/UltimateFightingMetaverse.sol:UltimateFightingMetaverse",
            "label": "victories",
            "offset": 0,
            "slot": "4",
            "type": "t_uint256"
          }
        ],
        "numberOfBytes": "160"
      },
      "t_struct(TraitAdjustmentByRarity)3280_storage": {
        "encoding": "inplace",
        "label": "struct UltimateFightingMetaverse.TraitAdjustmentByRarity",
        "members": [
          {
            "astId": 3277,
            "contract": "contracts/UltimateFightingMetaverse.sol:UltimateFightingMetaverse",
            "label": "low",
            "offset": 0,
            "slot": "0",
            "type": "t_uint8"
          },
          {
            "astId": 3279,
            "contract": "contracts/UltimateFightingMetaverse.sol:UltimateFightingMetaverse",
            "label": "high",
            "offset": 1,
            "slot": "0",
            "type": "t_uint8"
          }
        ],
        "numberOfBytes": "32"
      },
      "t_uint256": {
        "encoding": "inplace",
        "label": "uint256",
        "numberOfBytes": "32"
      },
      "t_uint8": {
        "encoding": "inplace",
        "label": "uint8",
        "numberOfBytes": "1"
      }
    }
  }
}