{
  "address": "0x834c316Df2fAF4C5f3f0E722380Ae958c539c85B",
  "abi": [
    {
      "inputs": [],
      "stateMutability": "nonpayable",
      "type": "constructor"
    },
    {
      "anonymous": false,
      "inputs": [
        {
          "indexed": true,
          "internalType": "address",
          "name": "owner",
          "type": "address"
        },
        {
          "indexed": true,
          "internalType": "address",
          "name": "approved",
          "type": "address"
        },
        {
          "indexed": true,
          "internalType": "uint256",
          "name": "tokenId",
          "type": "uint256"
        }
      ],
      "name": "Approval",
      "type": "event"
    },
    {
      "anonymous": false,
      "inputs": [
        {
          "indexed": true,
          "internalType": "address",
          "name": "owner",
          "type": "address"
        },
        {
          "indexed": true,
          "internalType": "address",
          "name": "operator",
          "type": "address"
        },
        {
          "indexed": false,
          "internalType": "bool",
          "name": "approved",
          "type": "bool"
        }
      ],
      "name": "ApprovalForAll",
      "type": "event"
    },
    {
      "anonymous": false,
      "inputs": [
        {
          "indexed": false,
          "internalType": "uint256",
          "name": "arenaId",
          "type": "uint256"
        },
        {
          "indexed": false,
          "internalType": "uint256",
          "name": "matchId",
          "type": "uint256"
        }
      ],
      "name": "ArenaClosed",
      "type": "event"
    },
    {
      "anonymous": false,
      "inputs": [
        {
          "indexed": false,
          "internalType": "uint256",
          "name": "arenaId",
          "type": "uint256"
        },
        {
          "indexed": false,
          "internalType": "uint256",
          "name": "tokenId",
          "type": "uint256"
        }
      ],
      "name": "ArenaOpened",
      "type": "event"
    },
    {
      "anonymous": false,
      "inputs": [
        {
          "indexed": false,
          "internalType": "uint256",
          "name": "tokenId",
          "type": "uint256"
        },
        {
          "components": [
            {
              "internalType": "uint256",
              "name": "strength",
              "type": "uint256"
            },
            {
              "internalType": "uint256",
              "name": "stamina",
              "type": "uint256"
            },
            {
              "internalType": "uint256",
              "name": "technique",
              "type": "uint256"
            },
            {
              "internalType": "enum UltimateFightingMetaverse.Rarities",
              "name": "rarity",
              "type": "uint8"
            },
            {
              "internalType": "uint256",
              "name": "victories",
              "type": "uint256"
            }
          ],
          "indexed": false,
          "internalType": "struct UltimateFightingMetaverse.Stats",
          "name": "stats",
          "type": "tuple"
        }
      ],
      "name": "FighterCreated",
      "type": "event"
    },
    {
      "anonymous": false,
      "inputs": [
        {
          "indexed": false,
          "internalType": "uint256",
          "name": "matchId",
          "type": "uint256"
        },
        {
          "indexed": false,
          "internalType": "uint256",
          "name": "tokenId1",
          "type": "uint256"
        },
        {
          "indexed": false,
          "internalType": "uint256",
          "name": "tokenId2",
          "type": "uint256"
        },
        {
          "indexed": false,
          "internalType": "uint256",
          "name": "outcome",
          "type": "uint256"
        }
      ],
      "name": "MatchCreated",
      "type": "event"
    },
    {
      "anonymous": false,
      "inputs": [
        {
          "indexed": true,
          "internalType": "address",
          "name": "previousOwner",
          "type": "address"
        },
        {
          "indexed": true,
          "internalType": "address",
          "name": "newOwner",
          "type": "address"
        }
      ],
      "name": "OwnershipTransferred",
      "type": "event"
    },
    {
      "anonymous": false,
      "inputs": [
        {
          "indexed": true,
          "internalType": "address",
          "name": "from",
          "type": "address"
        },
        {
          "indexed": true,
          "internalType": "address",
          "name": "to",
          "type": "address"
        },
        {
          "indexed": true,
          "internalType": "uint256",
          "name": "tokenId",
          "type": "uint256"
        }
      ],
      "name": "Transfer",
      "type": "event"
    },
    {
      "inputs": [
        {
          "internalType": "address",
          "name": "to",
          "type": "address"
        },
        {
          "internalType": "uint256",
          "name": "tokenId",
          "type": "uint256"
        }
      ],
      "name": "approve",
      "outputs": [],
      "stateMutability": "nonpayable",
      "type": "function"
    },
    {
      "inputs": [
        {
          "internalType": "address",
          "name": "owner",
          "type": "address"
        }
      ],
      "name": "balanceOf",
      "outputs": [
        {
          "internalType": "uint256",
          "name": "",
          "type": "uint256"
        }
      ],
      "stateMutability": "view",
      "type": "function"
    },
    {
      "inputs": [],
      "name": "getAllArenas",
      "outputs": [
        {
          "components": [
            {
              "internalType": "uint256",
              "name": "matchId",
              "type": "uint256"
            },
            {
              "internalType": "uint256",
              "name": "tokenId1",
              "type": "uint256"
            },
            {
              "internalType": "uint256",
              "name": "tokenId2",
              "type": "uint256"
            },
            {
              "internalType": "uint256",
              "name": "winnerId",
              "type": "uint256"
            }
          ],
          "internalType": "struct UltimateFightingMetaverse.Match[]",
          "name": "",
          "type": "tuple[]"
        }
      ],
      "stateMutability": "view",
      "type": "function"
    },
    {
      "inputs": [],
      "name": "getAllMatches",
      "outputs": [
        {
          "components": [
            {
              "internalType": "uint256",
              "name": "matchId",
              "type": "uint256"
            },
            {
              "internalType": "uint256",
              "name": "tokenId1",
              "type": "uint256"
            },
            {
              "internalType": "uint256",
              "name": "tokenId2",
              "type": "uint256"
            },
            {
              "internalType": "uint256",
              "name": "winnerId",
              "type": "uint256"
            }
          ],
          "internalType": "struct UltimateFightingMetaverse.Match[]",
          "name": "",
          "type": "tuple[]"
        }
      ],
      "stateMutability": "view",
      "type": "function"
    },
    {
      "inputs": [
        {
          "internalType": "uint256",
          "name": "tokenId",
          "type": "uint256"
        }
      ],
      "name": "getApproved",
      "outputs": [
        {
          "internalType": "address",
          "name": "",
          "type": "address"
        }
      ],
      "stateMutability": "view",
      "type": "function"
    },
    {
      "inputs": [
        {
          "internalType": "uint8",
          "name": "_arenaId",
          "type": "uint8"
        }
      ],
      "name": "getArena",
      "outputs": [
        {
          "components": [
            {
              "internalType": "uint256",
              "name": "matchId",
              "type": "uint256"
            },
            {
              "internalType": "uint256",
              "name": "tokenId1",
              "type": "uint256"
            },
            {
              "internalType": "uint256",
              "name": "tokenId2",
              "type": "uint256"
            },
            {
              "internalType": "uint256",
              "name": "winnerId",
              "type": "uint256"
            }
          ],
          "internalType": "struct UltimateFightingMetaverse.Match",
          "name": "",
          "type": "tuple"
        }
      ],
      "stateMutability": "view",
      "type": "function"
    },
    {
      "inputs": [],
      "name": "getArenaEntranceFee",
      "outputs": [
        {
          "internalType": "uint256",
          "name": "",
          "type": "uint256"
        }
      ],
      "stateMutability": "view",
      "type": "function"
    },
    {
      "inputs": [
        {
          "internalType": "uint256",
          "name": "tokenId",
          "type": "uint256"
        }
      ],
      "name": "getFighterStats",
      "outputs": [
        {
          "components": [
            {
              "internalType": "uint256",
              "name": "strength",
              "type": "uint256"
            },
            {
              "internalType": "uint256",
              "name": "stamina",
              "type": "uint256"
            },
            {
              "internalType": "uint256",
              "name": "technique",
              "type": "uint256"
            },
            {
              "internalType": "enum UltimateFightingMetaverse.Rarities",
              "name": "rarity",
              "type": "uint8"
            },
            {
              "internalType": "uint256",
              "name": "victories",
              "type": "uint256"
            }
          ],
          "internalType": "struct UltimateFightingMetaverse.Stats",
          "name": "",
          "type": "tuple"
        }
      ],
      "stateMutability": "view",
      "type": "function"
    },
    {
      "inputs": [],
      "name": "getLastTokenId",
      "outputs": [
        {
          "internalType": "uint256",
          "name": "",
          "type": "uint256"
        }
      ],
      "stateMutability": "view",
      "type": "function"
    },
    {
      "inputs": [
        {
          "internalType": "uint256",
          "name": "_matchId",
          "type": "uint256"
        }
      ],
      "name": "getMatch",
      "outputs": [
        {
          "components": [
            {
              "internalType": "uint256",
              "name": "matchId",
              "type": "uint256"
            },
            {
              "internalType": "uint256",
              "name": "tokenId1",
              "type": "uint256"
            },
            {
              "internalType": "uint256",
              "name": "tokenId2",
              "type": "uint256"
            },
            {
              "internalType": "uint256",
              "name": "winnerId",
              "type": "uint256"
            }
          ],
          "internalType": "struct UltimateFightingMetaverse.Match",
          "name": "",
          "type": "tuple"
        }
      ],
      "stateMutability": "view",
      "type": "function"
    },
    {
      "inputs": [],
      "name": "getMaxArenas",
      "outputs": [
        {
          "internalType": "uint256",
          "name": "",
          "type": "uint256"
        }
      ],
      "stateMutability": "pure",
      "type": "function"
    },
    {
      "inputs": [],
      "name": "getMaxTokenSupply",
      "outputs": [
        {
          "internalType": "uint256",
          "name": "",
          "type": "uint256"
        }
      ],
      "stateMutability": "pure",
      "type": "function"
    },
    {
      "inputs": [],
      "name": "getMintPrice",
      "outputs": [
        {
          "internalType": "uint256",
          "name": "",
          "type": "uint256"
        }
      ],
      "stateMutability": "view",
      "type": "function"
    },
    {
      "inputs": [],
      "name": "getNumMatches",
      "outputs": [
        {
          "internalType": "uint256",
          "name": "",
          "type": "uint256"
        }
      ],
      "stateMutability": "view",
      "type": "function"
    },
    {
      "inputs": [
        {
          "internalType": "uint256",
          "name": "tokenId",
          "type": "uint256"
        }
      ],
      "name": "getOwner",
      "outputs": [
        {
          "internalType": "address",
          "name": "",
          "type": "address"
        }
      ],
      "stateMutability": "view",
      "type": "function"
    },
    {
      "inputs": [
        {
          "internalType": "address",
          "name": "_owner",
          "type": "address"
        }
      ],
      "name": "getTokensOwnedByAddress",
      "outputs": [
        {
          "internalType": "uint256[]",
          "name": "",
          "type": "uint256[]"
        }
      ],
      "stateMutability": "view",
      "type": "function"
    },
    {
      "inputs": [
        {
          "internalType": "address",
          "name": "owner",
          "type": "address"
        },
        {
          "internalType": "address",
          "name": "operator",
          "type": "address"
        }
      ],
      "name": "isApprovedForAll",
      "outputs": [
        {
          "internalType": "bool",
          "name": "",
          "type": "bool"
        }
      ],
      "stateMutability": "view",
      "type": "function"
    },
    {
      "inputs": [
        {
          "internalType": "uint8",
          "name": "_arenaNumber",
          "type": "uint8"
        },
        {
          "internalType": "uint256",
          "name": "_tokenId",
          "type": "uint256"
        }
      ],
      "name": "joinArena",
      "outputs": [],
      "stateMutability": "payable",
      "type": "function"
    },
    {
      "inputs": [],
      "name": "name",
      "outputs": [
        {
          "internalType": "string",
          "name": "",
          "type": "string"
        }
      ],
      "stateMutability": "view",
      "type": "function"
    },
    {
      "inputs": [],
      "name": "owner",
      "outputs": [
        {
          "internalType": "address",
          "name": "",
          "type": "address"
        }
      ],
      "stateMutability": "view",
      "type": "function"
    },
    {
      "inputs": [
        {
          "internalType": "uint256",
          "name": "tokenId",
          "type": "uint256"
        }
      ],
      "name": "ownerOf",
      "outputs": [
        {
          "internalType": "address",
          "name": "",
          "type": "address"
        }
      ],
      "stateMutability": "view",
      "type": "function"
    },
    {
      "inputs": [],
      "name": "renounceOwnership",
      "outputs": [],
      "stateMutability": "nonpayable",
      "type": "function"
    },
    {
      "inputs": [
        {
          "internalType": "string",
          "name": "_tokenURI",
          "type": "string"
        }
      ],
      "name": "safeMint",
      "outputs": [],
      "stateMutability": "payable",
      "type": "function"
    },
    {
      "inputs": [
        {
          "internalType": "address",
          "name": "from",
          "type": "address"
        },
        {
          "internalType": "address",
          "name": "to",
          "type": "address"
        },
        {
          "internalType": "uint256",
          "name": "tokenId",
          "type": "uint256"
        }
      ],
      "name": "safeTransferFrom",
      "outputs": [],
      "stateMutability": "nonpayable",
      "type": "function"
    },
    {
      "inputs": [
        {
          "internalType": "address",
          "name": "from",
          "type": "address"
        },
        {
          "internalType": "address",
          "name": "to",
          "type": "address"
        },
        {
          "internalType": "uint256",
          "name": "tokenId",
          "type": "uint256"
        },
        {
          "internalType": "bytes",
          "name": "data",
          "type": "bytes"
        }
      ],
      "name": "safeTransferFrom",
      "outputs": [],
      "stateMutability": "nonpayable",
      "type": "function"
    },
    {
      "inputs": [
        {
          "internalType": "address",
          "name": "operator",
          "type": "address"
        },
        {
          "internalType": "bool",
          "name": "approved",
          "type": "bool"
        }
      ],
      "name": "setApprovalForAll",
      "outputs": [],
      "stateMutability": "nonpayable",
      "type": "function"
    },
    {
      "inputs": [
        {
          "internalType": "uint256",
          "name": "_newFee",
          "type": "uint256"
        }
      ],
      "name": "setArenaEntranceFee",
      "outputs": [],
      "stateMutability": "nonpayable",
      "type": "function"
    },
    {
      "inputs": [
        {
          "internalType": "uint256",
          "name": "_newPrice",
          "type": "uint256"
        }
      ],
      "name": "setMintPrice",
      "outputs": [],
      "stateMutability": "nonpayable",
      "type": "function"
    },
    {
      "inputs": [
        {
          "internalType": "bytes4",
          "name": "interfaceId",
          "type": "bytes4"
        }
      ],
      "name": "supportsInterface",
      "outputs": [
        {
          "internalType": "bool",
          "name": "",
          "type": "bool"
        }
      ],
      "stateMutability": "view",
      "type": "function"
    },
    {
      "inputs": [],
      "name": "symbol",
      "outputs": [
        {
          "internalType": "string",
          "name": "",
          "type": "string"
        }
      ],
      "stateMutability": "view",
      "type": "function"
    },
    {
      "inputs": [
        {
          "internalType": "uint256",
          "name": "index",
          "type": "uint256"
        }
      ],
      "name": "tokenByIndex",
      "outputs": [
        {
          "internalType": "uint256",
          "name": "",
          "type": "uint256"
        }
      ],
      "stateMutability": "view",
      "type": "function"
    },
    {
      "inputs": [
        {
          "internalType": "address",
          "name": "owner",
          "type": "address"
        },
        {
          "internalType": "uint256",
          "name": "index",
          "type": "uint256"
        }
      ],
      "name": "tokenOfOwnerByIndex",
      "outputs": [
        {
          "internalType": "uint256",
          "name": "",
          "type": "uint256"
        }
      ],
      "stateMutability": "view",
      "type": "function"
    },
    {
      "inputs": [
        {
          "internalType": "uint256",
          "name": "tokenId",
          "type": "uint256"
        }
      ],
      "name": "tokenURI",
      "outputs": [
        {
          "internalType": "string",
          "name": "",
          "type": "string"
        }
      ],
      "stateMutability": "view",
      "type": "function"
    },
    {
      "inputs": [],
      "name": "totalSupply",
      "outputs": [
        {
          "internalType": "uint256",
          "name": "",
          "type": "uint256"
        }
      ],
      "stateMutability": "view",
      "type": "function"
    },
    {
      "inputs": [
        {
          "internalType": "address",
          "name": "from",
          "type": "address"
        },
        {
          "internalType": "address",
          "name": "to",
          "type": "address"
        },
        {
          "internalType": "uint256",
          "name": "tokenId",
          "type": "uint256"
        }
      ],
      "name": "transferFrom",
      "outputs": [],
      "stateMutability": "nonpayable",
      "type": "function"
    },
    {
      "inputs": [
        {
          "internalType": "address",
          "name": "newOwner",
          "type": "address"
        }
      ],
      "name": "transferOwnership",
      "outputs": [],
      "stateMutability": "nonpayable",
      "type": "function"
    },
    {
      "inputs": [],
      "name": "withdraw",
      "outputs": [],
      "stateMutability": "nonpayable",
      "type": "function"
    }
  ],
  "transactionHash": "0x7f7e3571c3bb3665163e3f1ca8e0a3f859422cefb687356acbc0fe61be190180",
  "args": [],
  "numDeployments": 4,
  "solcInputHash": "9a5ee7407f2a7ff87949d82b54792382",
  "bytecode": "0x60c06040526103e8608052662386f26fc10000600d819055601155600860a0523480156200002c57600080fd5b50604080518082018252601b81527f556c74696d617465204669676874696e67204d6574617665727365000000000060208083019182528351808501909452600384526255464d60e81b9084015281519192916200008d916000916200030a565b508051620000a39060019060208401906200030a565b505050620000c0620000ba620000d060201b60201c565b620000d4565b620000ca62000126565b62000454565b3390565b600b80546001600160a01b038381166001600160a01b0319831681179093556040519116919082907f8be0079c531659141344cd1fd0a4f28419497f9722a3daafe3b4186f6b6457e090600090a35050565b6040518060400160405280600060ff168152602001603260ff16815250600e6000604051602001620001599190620003b0565b60408051601f19818403018152908290526200017591620003d9565b908152604080519182900360209081018320845181549583015160ff9081166101000261ffff1990971691161794909417909355818101815260328252606482840152519091600e91620001cd9160019101620003b0565b60408051601f1981840301815290829052620001e991620003d9565b908152604080519182900360209081018320845181549583015160ff9081166101000261ffff1990971691161794909417909355818101815260508252607882840152519091600e91620002419160029101620003b0565b60408051601f19818403018152908290526200025d91620003d9565b908152604080519182900360209081018320845181549583015160ff9081166101000261ffff199097169116179490941790935581810181526064825260aa82840152519091600e91620002b59160039101620003b0565b60408051601f1981840301815290829052620002d191620003d9565b90815260405190819003602090810190912082518154939092015160ff9081166101000261ffff19909416921691909117919091179055565b828054620003189062000417565b90600052602060002090601f0160209004810192826200033c576000855562000387565b82601f106200035757805160ff191683800117855562000387565b8280016001018555821562000387579182015b82811115620003875782518255916020019190600101906200036a565b506200039592915062000399565b5090565b5b808211156200039557600081556001016200039a565b6020810160048310620003d357634e487b7160e01b600052602160045260246000fd5b91905290565b6000825160005b81811015620003fc5760208186018101518583015201620003e0565b818111156200040c576000828501525b509190910192915050565b600181811c908216806200042c57607f821691505b602082108114156200044e57634e487b7160e01b600052602260045260246000fd5b50919050565b60805160a0516137ee620004b2600039600081816105bc0152818161074001528181610e2001528181610ebb01526113b201526000818161042201528181610d5401528181611023015281816113620152611b6501526137ee6000f3fe60806040526004361061021a5760003560e01c80636352211e11610123578063ad657544116100ab578063c87b56dd1161006f578063c87b56dd14610635578063e985e9c514610655578063f2fde38b1461069e578063f4a0a528146106be578063f72d53ba146106de57600080fd5b8063ad6575441461059a578063b11f4c10146105ad578063b88d4fde146105e0578063c17c5a4514610600578063c41a360a1461061557600080fd5b806383c4c00d116100f257806383c4c00d1461051d5780638da5cb5b1461053257806395d89b4114610550578063a22cb46514610565578063a7f93ebd1461058557600080fd5b80636352211e146104b5578063695850fb146104d557806370a08231146104e8578063715018a61461050857600080fd5b80632f745c59116101a657806348756c171161017557806348756c17146103e65780634cdf9448146104135780634f6ccce71461044657806355af86c414610466578063607b35c61461049357600080fd5b80632f745c59146103715780633ccfd60b146103915780633d092b3d146103a657806342842e0e146103c657600080fd5b8063095ea7b3116101ed578063095ea7b3146102db5780630c2ec02f146102fd5780630d8f978c1461031c57806318160ddd1461033c57806323b872dd1461035157600080fd5b806301ffc9a71461021f57806304e000ff1461025457806306fdde0314610281578063081812fc146102a3575b600080fd5b34801561022b57600080fd5b5061023f61023a366004612fb6565b6106f3565b60405190151581526020015b60405180910390f35b34801561026057600080fd5b5061027461026f366004612fe9565b610704565b60405161024b9190613004565b34801561028d57600080fd5b506102966107ff565b60405161024b9190613087565b3480156102af57600080fd5b506102c36102be36600461309a565b610891565b6040516001600160a01b03909116815260200161024b565b3480156102e757600080fd5b506102fb6102f63660046130ca565b6108b8565b005b34801561030957600080fd5b506011545b60405190815260200161024b565b34801561032857600080fd5b506102fb61033736600461309a565b6109ce565b34801561034857600080fd5b5060085461030e565b34801561035d57600080fd5b506102fb61036c3660046130f4565b6109db565b34801561037d57600080fd5b5061030e61038c3660046130ca565b610a0c565b34801561039d57600080fd5b506102fb610aa2565b3480156103b257600080fd5b506102746103c136600461309a565b610add565b3480156103d257600080fd5b506102fb6103e13660046130f4565b610ba3565b3480156103f257600080fd5b50610406610401366004613130565b610bbe565b60405161024b919061314b565b34801561041f57600080fd5b507f000000000000000000000000000000000000000000000000000000000000000061030e565b34801561045257600080fd5b5061030e61046136600461309a565b610cab565b34801561047257600080fd5b5061048661048136600461309a565b610d3e565b60405161024b91906131c7565b34801561049f57600080fd5b506104a8610e1a565b60405161024b9190613208565b3480156104c157600080fd5b506102c36104d036600461309a565b610f6d565b6102fb6104e33660046132f7565b610fcd565b3480156104f457600080fd5b5061030e610503366004613130565b611290565b34801561051457600080fd5b506102fb611316565b34801561052957600080fd5b5061030e61132a565b34801561053e57600080fd5b50600b546001600160a01b03166102c3565b34801561055c57600080fd5b5061029661133a565b34801561057157600080fd5b506102fb610580366004613340565b611349565b34801561059157600080fd5b50600d5461030e565b6102fb6105a836600461337c565b611354565b3480156105b957600080fd5b507f000000000000000000000000000000000000000000000000000000000000000061030e565b3480156105ec57600080fd5b506102fb6105fb366004613398565b611a0c565b34801561060c57600080fd5b506104a8611a44565b34801561062157600080fd5b506102c361063036600461309a565b611b55565b34801561064157600080fd5b5061029661065036600461309a565b611bb4565b34801561066157600080fd5b5061023f610670366004613414565b6001600160a01b03918216600090815260056020908152604080832093909416825291909152205460ff1690565b3480156106aa57600080fd5b506102fb6106b9366004613130565b611bbf565b3480156106ca57600080fd5b506102fb6106d936600461309a565b611c38565b3480156106ea57600080fd5b5061030e611c45565b60006106fe82611c50565b92915050565b61072f6040518060800160405280600081526020016000815260200160008152602001600081525090565b8160ff1660008111801561076357507f00000000000000000000000000000000000000000000000000000000000000008111155b6107aa5760405162461bcd60e51b8152602060048201526013602482015272105c995b98481251081a5cc81a5b9d985b1a59606a1b60448201526064015b60405180910390fd5b601260008460ff1660ff16815260200190815260200160002060405180608001604052908160008201548152602001600182015481526020016002820154815260200160038201548152505091505b50919050565b60606000805461080e90613447565b80601f016020809104026020016040519081016040528092919081815260200182805461083a90613447565b80156108875780601f1061085c57610100808354040283529160200191610887565b820191906000526020600020905b81548152906001019060200180831161086a57829003601f168201915b5050505050905090565b600061089c82611c75565b506000908152600460205260409020546001600160a01b031690565b60006108c382610f6d565b9050806001600160a01b0316836001600160a01b031614156109315760405162461bcd60e51b815260206004820152602160248201527f4552433732313a20617070726f76616c20746f2063757272656e74206f776e656044820152603960f91b60648201526084016107a1565b336001600160a01b038216148061094d575061094d8133610670565b6109bf5760405162461bcd60e51b815260206004820152603d60248201527f4552433732313a20617070726f76652063616c6c6572206973206e6f7420746f60448201527f6b656e206f776e6572206f7220617070726f76656420666f7220616c6c00000060648201526084016107a1565b6109c98383611cd4565b505050565b6109d6611d42565b601155565b6109e53382611d9c565b610a015760405162461bcd60e51b81526004016107a19061347c565b6109c9838383611e1b565b6000610a1783611290565b8210610a795760405162461bcd60e51b815260206004820152602b60248201527f455243373231456e756d657261626c653a206f776e657220696e646578206f7560448201526a74206f6620626f756e647360a81b60648201526084016107a1565b506001600160a01b03919091166000908152600660209081526040808320938352929052205490565b610aaa611d42565b6040514790339082156108fc029083906000818181858888f19350505050158015610ad9573d6000803e3d6000fd5b5050565b610b086040518060800160405280600081526020016000815260200160008152602001600081525090565b81600081118015610b1b57506010548111155b610b5d5760405162461bcd60e51b815260206004820152601360248201527213585d18da081251081a5cc81a5b9d985b1a59606a1b60448201526064016107a1565b5050600090815260136020908152604091829020825160808101845281548152600182015492810192909252600281015492820192909252600390910154606082015290565b6109c983838360405180602001604052806000815250611a0c565b60606000610bcb83611290565b905080610bec5760408051600080825260208201909252905b509392505050565b60008167ffffffffffffffff811115610c0757610c0761326b565b604051908082528060200260200182016040528015610c30578160200160208202803683370190505b509050600060015b600c548111610ca157856001600160a01b0316610c5482610f6d565b6001600160a01b03161415610c8f5780838381518110610c7657610c766134c9565b602090810291909101015281610c8b816134f5565b9250505b80610c99816134f5565b915050610c38565b5090949350505050565b6000610cb660085490565b8210610d195760405162461bcd60e51b815260206004820152602c60248201527f455243373231456e756d657261626c653a20676c6f62616c20696e646578206f60448201526b7574206f6620626f756e647360a01b60648201526084016107a1565b60088281548110610d2c57610d2c6134c9565b90600052602060002001549050919050565b610d46612ed0565b81600081118015610d7757507f00000000000000000000000000000000000000000000000000000000000000008111155b610d935760405162461bcd60e51b81526004016107a190613510565b600f60008481526020019081526020016000206040518060a00160405290816000820154815260200160018201548152602001600282015481526020016003820160009054906101000a900460ff166003811115610df357610df361318f565b6003811115610e0457610e0461318f565b8152602001600482015481525050915050919050565b606060007f000000000000000000000000000000000000000000000000000000000000000067ffffffffffffffff811115610e5757610e5761326b565b604051908082528060200260200182016040528015610eb357816020015b610ea06040518060800160405280600081526020016000815260200160008152602001600081525090565b815260200190600190039081610e755790505b50905060005b7f00000000000000000000000000000000000000000000000000000000000000008160ff1610156107f95760126000610ef383600161353d565b60ff1660ff168152602001908152602001600020604051806080016040529081600082015481526020016001820154815260200160028201548152602001600382015481525050828260ff1681518110610f4f57610f4f6134c9565b60200260200101819052508080610f6590613562565b915050610eb9565b6000818152600260205260408120546001600160a01b0316806106fe5760405162461bcd60e51b8152602060048201526018602482015277115490cdcc8c4e881a5b9d985b1a59081d1bdad95b88125160421b60448201526064016107a1565b600d543410156110145760405162461bcd60e51b8152602060048201526012602482015271135a5b9d081c1c9a58d9481b9bdd081b595d60721b60448201526064016107a1565b600061101f600c5490565b90507f00000000000000000000000000000000000000000000000000000000000000008111156110865760405162461bcd60e51b815260206004820152601260248201527113585e081cdd5c1c1b1e481c995858da195960721b60448201526064016107a1565b60008251116110d75760405162461bcd60e51b815260206004820152601960248201527f546f6b656e205552492063616e6e6f7420626520656d7074790000000000000060448201526064016107a1565b6110e5600c80546001019055565b60006110f0600c5490565b90506110fc3382611f8c565b6111068184611fa6565b61110e612040565b6000828152600f6020526040902060039081018054909160ff199091169060019084908111156111405761114061318f565b02179055506000818152600f6020526040812060030154611198906111679060ff166120df565b516000848152600f602052604090206003015460ff9182169161118a91166120df565b6020015160ff166003612231565b9050806000815181106111ad576111ad6134c9565b602002602001015160506111c19190613582565b6000838152600f60205260409020558051819060019081106111e5576111e56134c9565b602002602001015160506111f99190613582565b6000838152600f6020526040902060010155805181906002908110611220576112206134c9565b602002602001015160506112349190613582565b6000838152600f602052604080822060028101939093556004830191909155517f43fe67fc749d5540f036e7b378580be67f4027cb2ccb1e4bc71a83b1fd1129b2916112829185919061359a565b60405180910390a150505050565b60006001600160a01b0382166112fa5760405162461bcd60e51b815260206004820152602960248201527f4552433732313a2061646472657373207a65726f206973206e6f7420612076616044820152683634b21037bbb732b960b91b60648201526084016107a1565b506001600160a01b031660009081526003602052604090205490565b61131e611d42565b611328600061231c565b565b6000611335600c5490565b905090565b60606001805461080e90613447565b610ad933838361236e565b8060008111801561138557507f00000000000000000000000000000000000000000000000000000000000000008111155b6113a15760405162461bcd60e51b81526004016107a190613510565b8260ff166000811180156113d557507f00000000000000000000000000000000000000000000000000000000000000008111155b6114175760405162461bcd60e51b8152602060048201526013602482015272105c995b98481251081a5cc81a5b9d985b1a59606a1b60448201526064016107a1565b823361142282610f6d565b6001600160a01b0316146114845760405162461bcd60e51b815260206004820152602360248201527f596f7520617265206e6f7420746865206f776e6572206f66207468697320746f60448201526235b2b760e91b60648201526084016107a1565b60115434101561149357600080fd5b60ff85166000908152601260205260409020600101546115035760ff8516600081815260126020908152604091829020600101879055815192835282018690527f388485e542710392b92526733be88e3e46ab0ff64c1fd9853813fd6975755cf6910160405180910390a1611a05565b60ff85166000908152601260205260409020600201546115ae5760ff85166000908152601260205260409020600101548414156115915760405162461bcd60e51b815260206004820152602660248201527f596f752068617665206a6f696e656420696e2074686973206172656e6120616c6044820152653932b0b23c9760d11b60648201526084016107a1565b60ff851660009081526012602052604090206002018490556115e7565b60405162461bcd60e51b815260206004820152600e60248201526d4172656e612069732066756c6c2160901b60448201526064016107a1565b60ff85166000908152601260205260408120600181015460029091015461160e919061243d565b60ff87166000908152601260209081526040808320600301849055838352600f9091528120600401805492935090611645836134f5565b90915550506000818152600f60205260408120805460039290611669908490613582565b90915550506000818152600f60205260408120600101805460039290611690908490613582565b90915550506000818152600f602052604081206002018054600392906116b7908490613582565b909155505060ff861660009081526012602052604090206001015481141561178f5760ff86166000908152601260209081526040808320600201548352600f909152812080546001929061170c908490613582565b909155505060ff86166000908152601260209081526040808320600201548352600f90915281206001908101805491929091611749908490613582565b909155505060ff861660009081526012602090815260408083206002908101548452600f909252822001805460019290611784908490613582565b909155506118439050565b60ff861660009081526012602090815260408083206001908101548452600f90925282208054919290916117c4908490613582565b909155505060ff861660009081526012602090815260408083206001908101548452600f90925282208101805491929091611800908490613582565b909155505060ff861660009081526012602090815260408083206001908101548452600f909252822060020180549192909161183d908490613582565b90915550505b611851601080546001019055565b60ff861660009081526012602052604081209060139061187060105490565b815260208101919091526040016000208154815560018083015490820155600280830154908201556003918201549101557fb4ac4ed0731b859e8e643e842c48ff0a96c8006bebe435317e13f82818805b286118cb60105490565b60ff88166000908152601260209081526040918290206001810154600290910154835194855291840152908201526060810183905260800160405180910390a160408051608081018252600080825260208083018281528385018381526060850184815260ff8d16855260129093529490922092518355905160018301559151600282015590516003909101557fdb4195052ddbc96a521759453bd7e71df8f1214d34cf14974813ee28e712d9fb8661198360105490565b6040805160ff909316835260208301919091520160405180910390a16119a881610f6d565b6001600160a01b03166108fc606460115460026119c591906135e4565b6119d090605a6135e4565b6119da9190613619565b6040518115909202916000818181858888f19350505050158015611a02573d6000803e3d6000fd5b50505b5050505050565b611a163383611d9c565b611a325760405162461bcd60e51b81526004016107a19061347c565b611a3e8484848461252e565b50505050565b60606000611a5160105490565b67ffffffffffffffff811115611a6957611a6961326b565b604051908082528060200260200182016040528015611ac557816020015b611ab26040518060800160405280600081526020016000815260200160008152602001600081525090565b815260200190600190039081611a875790505b50905060005b6010548110156107f95760136000611ae4836001613582565b8152602001908152602001600020604051806080016040529081600082015481526020016001820154815260200160028201548152602001600382015481525050828281518110611b3757611b376134c9565b60200260200101819052508080611b4d906134f5565b915050611acb565b600081600081118015611b8857507f00000000000000000000000000000000000000000000000000000000000000008111155b611ba45760405162461bcd60e51b81526004016107a190613510565b611bad83610f6d565b9392505050565b60606106fe82612561565b611bc7611d42565b6001600160a01b038116611c2c5760405162461bcd60e51b815260206004820152602660248201527f4f776e61626c653a206e6577206f776e657220697320746865207a65726f206160448201526564647265737360d01b60648201526084016107a1565b611c358161231c565b50565b611c40611d42565b600d55565b600061133560105490565b60006001600160e01b0319821663780e9d6360e01b14806106fe57506106fe8261266a565b6000818152600260205260409020546001600160a01b0316611c355760405162461bcd60e51b8152602060048201526018602482015277115490cdcc8c4e881a5b9d985b1a59081d1bdad95b88125160421b60448201526064016107a1565b600081815260046020526040902080546001600160a01b0319166001600160a01b0384169081179091558190611d0982610f6d565b6001600160a01b03167f8c5be1e5ebec7d5bd14f71427d1e84f3dd0314c0f7b2291e5b200ac8c7c3b92560405160405180910390a45050565b600b546001600160a01b031633146113285760405162461bcd60e51b815260206004820181905260248201527f4f776e61626c653a2063616c6c6572206973206e6f7420746865206f776e657260448201526064016107a1565b600080611da883610f6d565b9050806001600160a01b0316846001600160a01b03161480611def57506001600160a01b0380821660009081526005602090815260408083209388168352929052205460ff165b80611e135750836001600160a01b0316611e0884610891565b6001600160a01b0316145b949350505050565b826001600160a01b0316611e2e82610f6d565b6001600160a01b031614611e545760405162461bcd60e51b81526004016107a19061362d565b6001600160a01b038216611eb65760405162461bcd60e51b8152602060048201526024808201527f4552433732313a207472616e7366657220746f20746865207a65726f206164646044820152637265737360e01b60648201526084016107a1565b611ec383838360016126ba565b826001600160a01b0316611ed682610f6d565b6001600160a01b031614611efc5760405162461bcd60e51b81526004016107a19061362d565b600081815260046020908152604080832080546001600160a01b03199081169091556001600160a01b0387811680865260038552838620805460001901905590871680865283862080546001019055868652600290945282852080549092168417909155905184937fddf252ad1be2c89b69c2b068fc378daa952ba7f163c4a11628f55a4df523b3ef91a4505050565b610ad98282604051806020016040528060008152506126c6565b6000828152600260205260409020546001600160a01b03166120215760405162461bcd60e51b815260206004820152602e60248201527f45524337323155524953746f726167653a2055524920736574206f66206e6f6e60448201526d32bc34b9ba32b73a103a37b5b2b760911b60648201526084016107a1565b6000828152600a6020908152604090912082516109c992840190612f10565b600080612710612051600143613672565b6040805191406020830152016040516020818303038152906040528051906020012060001c6120809190613689565b9050611388811161209357600091505090565b611388811180156120a657506121348111155b156120b357600191505090565b612134811180156120c6575061251c8111155b156120d357600291505090565b600391505090565b5090565b604080518082019091526000808252602082015260008260038111156121075761210761318f565b141561216d57600e6000604051602001612121919061369d565b60408051601f198184030181529082905261213b916136ab565b908152604080519182900360209081018320838301909252905460ff8082168452610100909104169082015292915050565b60018260038111156121815761218161318f565b141561219b57600e6001604051602001612121919061369d565b60028260038111156121af576121af61318f565b14156121c957600e6002604051602001612121919061369d565b60038260038111156121dd576121dd61318f565b14156121f757600e6003604051602001612121919061369d565b60405162461bcd60e51b815260206004820152600f60248201526e496e76616c6964207261726974792160881b60448201526064016107a1565b606060008267ffffffffffffffff81111561224e5761224e61326b565b604051908082528060200260200182016040528015612277578160200160208202803683370190505b50905060005b83811015612313576000866122928188613672565b61229d906001613582565b6122a78443613672565b6040805191406020830152016040516020818303038152906040528051906020012060001c6122d69190613689565b6122e09190613582565b9050808383815181106122f5576122f56134c9565b6020908102919091010152508061230b816134f5565b91505061227d565b50949350505050565b600b80546001600160a01b038381166001600160a01b0319831681179093556040519116919082907f8be0079c531659141344cd1fd0a4f28419497f9722a3daafe3b4186f6b6457e090600090a35050565b816001600160a01b0316836001600160a01b031614156123d05760405162461bcd60e51b815260206004820152601960248201527f4552433732313a20617070726f766520746f2063616c6c65720000000000000060448201526064016107a1565b6001600160a01b03838116600081815260056020908152604080832094871680845294825291829020805460ff191686151590811790915591519182527f17307eab39ab6107e8899845ad3d59bd9653f200f220920489ca2b5937696c31910160405180910390a3505050565b60008061244e600060646001612231565b600081518110612460576124606134c9565b6020908102919091018101516000868152600f9092526040909120600281015460018201549154909161249291613582565b61249c9190613582565b6124a69190613582565b905060006124b8600060646001612231565b6000815181106124ca576124ca6134c9565b6020908102919091018101516000868152600f909252604090912060028101546001820154915490916124fc91613582565b6125069190613582565b6125109190613582565b90506000818310612522575084612525565b50835b95945050505050565b612539848484611e1b565b612545848484846126f9565b611a3e5760405162461bcd60e51b81526004016107a1906136c7565b606061256c82611c75565b6000828152600a60205260408120805461258590613447565b80601f01602080910402602001604051908101604052809291908181526020018280546125b190613447565b80156125fe5780601f106125d3576101008083540402835291602001916125fe565b820191906000526020600020905b8154815290600101906020018083116125e157829003601f168201915b50505050509050600061261c60408051602081019091526000815290565b905080516000141561262f575092915050565b815115612661578082604051602001612649929190613719565b60405160208183030381529060405292505050919050565b611e1384612806565b60006001600160e01b031982166380ac58cd60e01b148061269b57506001600160e01b03198216635b5e139f60e01b145b806106fe57506301ffc9a760e01b6001600160e01b03198316146106fe565b611a3e84848484612879565b6126d083836129b2565b6126dd60008484846126f9565b6109c95760405162461bcd60e51b81526004016107a1906136c7565b60006001600160a01b0384163b156127fb57604051630a85bd0160e11b81526001600160a01b0385169063150b7a029061273d903390899088908890600401613748565b602060405180830381600087803b15801561275757600080fd5b505af1925050508015612787575060408051601f3d908101601f1916820190925261278491810190613785565b60015b6127e1573d8080156127b5576040519150601f19603f3d011682016040523d82523d6000602084013e6127ba565b606091505b5080516127d95760405162461bcd60e51b81526004016107a1906136c7565b805181602001fd5b6001600160e01b031916630a85bd0160e11b149050611e13565b506001949350505050565b606061281182611c75565b600061282860408051602081019091526000815290565b905060008151116128485760405180602001604052806000815250611bad565b8061285284612b4b565b604051602001612863929190613719565b6040516020818303038152906040529392505050565b61288584848484612be0565b60018111156128f45760405162461bcd60e51b815260206004820152603560248201527f455243373231456e756d657261626c653a20636f6e7365637574697665207472604482015274185b9cd9995c9cc81b9bdd081cdd5c1c1bdc9d1959605a1b60648201526084016107a1565b816001600160a01b0385166129505761294b81600880546000838152600960205260408120829055600182018355919091527ff3f7a9fe364faab93b216da50a3214154f22a0a2b415b23a84c8169e8b636ee30155565b612973565b836001600160a01b0316856001600160a01b031614612973576129738582612c68565b6001600160a01b03841661298f5761298a81612d05565b611a05565b846001600160a01b0316846001600160a01b031614611a0557611a058482612db4565b6001600160a01b038216612a085760405162461bcd60e51b815260206004820181905260248201527f4552433732313a206d696e7420746f20746865207a65726f206164647265737360448201526064016107a1565b6000818152600260205260409020546001600160a01b031615612a6d5760405162461bcd60e51b815260206004820152601c60248201527f4552433732313a20746f6b656e20616c7265616479206d696e7465640000000060448201526064016107a1565b612a7b6000838360016126ba565b6000818152600260205260409020546001600160a01b031615612ae05760405162461bcd60e51b815260206004820152601c60248201527f4552433732313a20746f6b656e20616c7265616479206d696e7465640000000060448201526064016107a1565b6001600160a01b038216600081815260036020908152604080832080546001019055848352600290915280822080546001600160a01b0319168417905551839291907fddf252ad1be2c89b69c2b068fc378daa952ba7f163c4a11628f55a4df523b3ef908290a45050565b60606000612b5883612df8565b600101905060008167ffffffffffffffff811115612b7857612b7861326b565b6040519080825280601f01601f191660200182016040528015612ba2576020820181803683370190505b5090508181016020015b600019016f181899199a1a9b1b9c1cb0b131b232b360811b600a86061a8153600a8504945084612bdb57610be4565b612bac565b6001811115611a3e576001600160a01b03841615612c26576001600160a01b03841660009081526003602052604081208054839290612c20908490613672565b90915550505b6001600160a01b03831615611a3e576001600160a01b03831660009081526003602052604081208054839290612c5d908490613582565b909155505050505050565b60006001612c7584611290565b612c7f9190613672565b600083815260076020526040902054909150808214612cd2576001600160a01b03841660009081526006602090815260408083208584528252808320548484528184208190558352600790915290208190555b5060009182526007602090815260408084208490556001600160a01b039094168352600681528383209183525290812055565b600854600090612d1790600190613672565b60008381526009602052604081205460088054939450909284908110612d3f57612d3f6134c9565b906000526020600020015490508060088381548110612d6057612d606134c9565b6000918252602080832090910192909255828152600990915260408082208490558582528120556008805480612d9857612d986137a2565b6001900381819060005260206000200160009055905550505050565b6000612dbf83611290565b6001600160a01b039093166000908152600660209081526040808320868452825280832085905593825260079052919091209190915550565b60008072184f03e93ff9f4daa797ed6e38ed64bf6a1f0160401b8310612e375772184f03e93ff9f4daa797ed6e38ed64bf6a1f0160401b830492506040015b6d04ee2d6d415b85acef81000000008310612e63576d04ee2d6d415b85acef8100000000830492506020015b662386f26fc100008310612e8157662386f26fc10000830492506010015b6305f5e1008310612e99576305f5e100830492506008015b6127108310612ead57612710830492506004015b60648310612ebf576064830492506002015b600a83106106fe5760010192915050565b6040518060a0016040528060008152602001600081526020016000815260200160006003811115612f0357612f0361318f565b8152602001600081525090565b828054612f1c90613447565b90600052602060002090601f016020900481019282612f3e5760008555612f84565b82601f10612f5757805160ff1916838001178555612f84565b82800160010185558215612f84579182015b82811115612f84578251825591602001919060010190612f69565b506120db9291505b808211156120db5760008155600101612f8c565b6001600160e01b031981168114611c3557600080fd5b600060208284031215612fc857600080fd5b8135611bad81612fa0565b803560ff81168114612fe457600080fd5b919050565b600060208284031215612ffb57600080fd5b611bad82612fd3565b81518152602080830151908201526040808301519082015260608083015190820152608081016106fe565b60005b8381101561304a578181015183820152602001613032565b83811115611a3e5750506000910152565b6000815180845261307381602086016020860161302f565b601f01601f19169290920160200192915050565b602081526000611bad602083018461305b565b6000602082840312156130ac57600080fd5b5035919050565b80356001600160a01b0381168114612fe457600080fd5b600080604083850312156130dd57600080fd5b6130e6836130b3565b946020939093013593505050565b60008060006060848603121561310957600080fd5b613112846130b3565b9250613120602085016130b3565b9150604084013590509250925092565b60006020828403121561314257600080fd5b611bad826130b3565b6020808252825182820181905260009190848201906040850190845b8181101561318357835183529284019291840191600101613167565b50909695505050505050565b634e487b7160e01b600052602160045260246000fd5b600481106131c357634e487b7160e01b600052602160045260246000fd5b9052565b600060a08201905082518252602083015160208301526040830151604083015260608301516131f960608401826131a5565b50608092830151919092015290565b6020808252825182820181905260009190848201906040850190845b8181101561318357613258838551805182526020810151602083015260408101516040830152606081015160608301525050565b9284019260809290920191600101613224565b634e487b7160e01b600052604160045260246000fd5b600067ffffffffffffffff8084111561329c5761329c61326b565b604051601f8501601f19908116603f011681019082821181831017156132c4576132c461326b565b816040528093508581528686860111156132dd57600080fd5b858560208301376000602087830101525050509392505050565b60006020828403121561330957600080fd5b813567ffffffffffffffff81111561332057600080fd5b8201601f8101841361333157600080fd5b611e1384823560208401613281565b6000806040838503121561335357600080fd5b61335c836130b3565b91506020830135801515811461337157600080fd5b809150509250929050565b6000806040838503121561338f57600080fd5b6130e683612fd3565b600080600080608085870312156133ae57600080fd5b6133b7856130b3565b93506133c5602086016130b3565b925060408501359150606085013567ffffffffffffffff8111156133e857600080fd5b8501601f810187136133f957600080fd5b61340887823560208401613281565b91505092959194509250565b6000806040838503121561342757600080fd5b613430836130b3565b915061343e602084016130b3565b90509250929050565b600181811c9082168061345b57607f821691505b602082108114156107f957634e487b7160e01b600052602260045260246000fd5b6020808252602d908201527f4552433732313a2063616c6c6572206973206e6f7420746f6b656e206f776e6560408201526c1c881bdc88185c1c1c9bdd9959609a1b606082015260800190565b634e487b7160e01b600052603260045260246000fd5b634e487b7160e01b600052601160045260246000fd5b6000600019821415613509576135096134df565b5060010190565b602080825260139082015272151bdad95b881251081a5cc81a5b9d985b1a59606a1b604082015260600190565b600060ff821660ff84168060ff0382111561355a5761355a6134df565b019392505050565b600060ff821660ff811415613579576135796134df565b60010192915050565b60008219821115613595576135956134df565b500190565b828152815460208201526001820154604082015260028201546060820152600382015460c082019060ff166135d260808401826131a5565b50600483015460a08301529392505050565b60008160001904831182151516156135fe576135fe6134df565b500290565b634e487b7160e01b600052601260045260246000fd5b60008261362857613628613603565b500490565b60208082526025908201527f4552433732313a207472616e736665722066726f6d20696e636f72726563742060408201526437bbb732b960d91b606082015260800190565b600082821015613684576136846134df565b500390565b60008261369857613698613603565b500690565b602081016106fe82846131a5565b600082516136bd81846020870161302f565b9190910192915050565b60208082526032908201527f4552433732313a207472616e7366657220746f206e6f6e20455243373231526560408201527131b2b4bb32b91034b6b83632b6b2b73a32b960711b606082015260800190565b6000835161372b81846020880161302f565b83519083019061373f81836020880161302f565b01949350505050565b6001600160a01b038581168252841660208201526040810183905260806060820181905260009061377b9083018461305b565b9695505050505050565b60006020828403121561379757600080fd5b8151611bad81612fa0565b634e487b7160e01b600052603160045260246000fdfea264697066735822122030c690627fc87a125c667af2f46a55b57d6bf66cef620c0484a716f0fe44a8f664736f6c63430008080033",
  "devdoc": {
    "kind": "dev",
    "methods": {
      "approve(address,uint256)": {
        "details": "See {IERC721-approve}."
      },
      "balanceOf(address)": {
        "details": "See {IERC721-balanceOf}."
      },
      "getApproved(uint256)": {
        "details": "See {IERC721-getApproved}."
      },
      "isApprovedForAll(address,address)": {
        "details": "See {IERC721-isApprovedForAll}."
      },
      "joinArena(uint8,uint256)": {
        "details": "Allows the owner of a token to join a arena with another player's token. If the arena is full, a match will be initiated between the two tokens and the winner will be stored in the winnerId field of the Match struct. Reverts if the caller is not the owner of the token, if the arena number is invalid, if the token ID is invalid, or if the arena is already full.",
        "params": {
          "_arenaNumber": "The number of the arena to join.",
          "_tokenId": "The ID of the token to use in the match."
        }
      },
      "name()": {
        "details": "See {IERC721Metadata-name}."
      },
      "owner()": {
        "details": "Returns the address of the current owner."
      },
      "ownerOf(uint256)": {
        "details": "See {IERC721-ownerOf}."
      },
      "renounceOwnership()": {
        "details": "Leaves the contract without owner. It will not be possible to call `onlyOwner` functions anymore. Can only be called by the current owner. NOTE: Renouncing ownership will leave the contract without an owner, thereby removing any functionality that is only available to the owner."
      },
      "safeMint(string)": {
        "details": "Creates a new non-fungible token and assigns it to the caller. Reverts if the correct amount of ether is not sent with the transaction, if the maximum number of tokens has already been reached, or if there is an error during the minting process.",
        "params": {
          "_tokenURI": "The URI of the token."
        }
      },
      "safeTransferFrom(address,address,uint256)": {
        "details": "See {IERC721-safeTransferFrom}."
      },
      "safeTransferFrom(address,address,uint256,bytes)": {
        "details": "See {IERC721-safeTransferFrom}."
      },
      "setApprovalForAll(address,bool)": {
        "details": "See {IERC721-setApprovalForAll}."
      },
      "symbol()": {
        "details": "See {IERC721Metadata-symbol}."
      },
      "tokenByIndex(uint256)": {
        "details": "See {IERC721Enumerable-tokenByIndex}."
      },
      "tokenOfOwnerByIndex(address,uint256)": {
        "details": "See {IERC721Enumerable-tokenOfOwnerByIndex}."
      },
      "totalSupply()": {
        "details": "See {IERC721Enumerable-totalSupply}."
      },
      "transferFrom(address,address,uint256)": {
        "details": "See {IERC721-transferFrom}."
      },
      "transferOwnership(address)": {
        "details": "Transfers ownership of the contract to a new account (`newOwner`). Can only be called by the current owner."
      }
    },
    "version": 1
  },
  "userdoc": {
    "kind": "user",
    "methods": {},
    "version": 1
  },
  "storageLayout": {
    "storage": [
      {
        "astId": 138,
        "contract": "contracts/UltimateFightingMetaverse.sol:UltimateFightingMetaverse",
        "label": "_name",
        "offset": 0,
        "slot": "0",
        "type": "t_string_storage"
      },
      {
        "astId": 140,
        "contract": "contracts/UltimateFightingMetaverse.sol:UltimateFightingMetaverse",
        "label": "_symbol",
        "offset": 0,
        "slot": "1",
        "type": "t_string_storage"
      },
      {
        "astId": 144,
        "contract": "contracts/UltimateFightingMetaverse.sol:UltimateFightingMetaverse",
        "label": "_owners",
        "offset": 0,
        "slot": "2",
        "type": "t_mapping(t_uint256,t_address)"
      },
      {
        "astId": 148,
        "contract": "contracts/UltimateFightingMetaverse.sol:UltimateFightingMetaverse",
        "label": "_balances",
        "offset": 0,
        "slot": "3",
        "type": "t_mapping(t_address,t_uint256)"
      },
      {
        "astId": 152,
        "contract": "contracts/UltimateFightingMetaverse.sol:UltimateFightingMetaverse",
        "label": "_tokenApprovals",
        "offset": 0,
        "slot": "4",
        "type": "t_mapping(t_uint256,t_address)"
      },
      {
        "astId": 158,
        "contract": "contracts/UltimateFightingMetaverse.sol:UltimateFightingMetaverse",
        "label": "_operatorApprovals",
        "offset": 0,
        "slot": "5",
        "type": "t_mapping(t_address,t_mapping(t_address,t_bool))"
      },
      {
        "astId": 1206,
        "contract": "contracts/UltimateFightingMetaverse.sol:UltimateFightingMetaverse",
        "label": "_ownedTokens",
        "offset": 0,
        "slot": "6",
        "type": "t_mapping(t_address,t_mapping(t_uint256,t_uint256))"
      },
      {
        "astId": 1210,
        "contract": "contracts/UltimateFightingMetaverse.sol:UltimateFightingMetaverse",
        "label": "_ownedTokensIndex",
        "offset": 0,
        "slot": "7",
        "type": "t_mapping(t_uint256,t_uint256)"
      },
      {
        "astId": 1213,
        "contract": "contracts/UltimateFightingMetaverse.sol:UltimateFightingMetaverse",
        "label": "_allTokens",
        "offset": 0,
        "slot": "8",
        "type": "t_array(t_uint256)dyn_storage"
      },
      {
        "astId": 1217,
        "contract": "contracts/UltimateFightingMetaverse.sol:UltimateFightingMetaverse",
        "label": "_allTokensIndex",
        "offset": 0,
        "slot": "9",
        "type": "t_mapping(t_uint256,t_uint256)"
      },
      {
        "astId": 1558,
        "contract": "contracts/UltimateFightingMetaverse.sol:UltimateFightingMetaverse",
        "label": "_tokenURIs",
        "offset": 0,
        "slot": "10",
        "type": "t_mapping(t_uint256,t_string_storage)"
      },
      {
        "astId": 7,
        "contract": "contracts/UltimateFightingMetaverse.sol:UltimateFightingMetaverse",
        "label": "_owner",
        "offset": 0,
        "slot": "11",
        "type": "t_address"
      },
      {
        "astId": 3283,
        "contract": "contracts/UltimateFightingMetaverse.sol:UltimateFightingMetaverse",
        "label": "s_tokenIdCounter",
        "offset": 0,
        "slot": "12",
        "type": "t_struct(Counter)2086_storage"
      },
      {
        "astId": 3291,
        "contract": "contracts/UltimateFightingMetaverse.sol:UltimateFightingMetaverse",
        "label": "s_mintPrice",
        "offset": 0,
        "slot": "13",
        "type": "t_uint256"
      },
      {
        "astId": 3296,
        "contract": "contracts/UltimateFightingMetaverse.sol:UltimateFightingMetaverse",
        "label": "s_rarityAdjustments",
        "offset": 0,
        "slot": "14",
        "type": "t_mapping(t_bytes_memory_ptr,t_struct(TraitAdjustmentByRarity)3280_storage)"
      },
      {
        "astId": 3301,
        "contract": "contracts/UltimateFightingMetaverse.sol:UltimateFightingMetaverse",
        "label": "s_tokenIdToStats",
        "offset": 0,
        "slot": "15",
        "type": "t_mapping(t_uint256,t_struct(Stats)3266_storage)"
      },
      {
        "astId": 3304,
        "contract": "contracts/UltimateFightingMetaverse.sol:UltimateFightingMetaverse",
        "label": "s_matchIdCounter",
        "offset": 0,
        "slot": "16",
        "type": "t_struct(Counter)2086_storage"
      },
      {
        "astId": 3309,
        "contract": "contracts/UltimateFightingMetaverse.sol:UltimateFightingMetaverse",
        "label": "s_arenaEntranceFee",
        "offset": 0,
        "slot": "17",
        "type": "t_uint256"
      },
      {
        "astId": 3317,
        "contract": "contracts/UltimateFightingMetaverse.sol:UltimateFightingMetaverse",
        "label": "s_arenas",
        "offset": 0,
        "slot": "18",
        "type": "t_mapping(t_uint8,t_struct(Match)3275_storage)"
      },
      {
        "astId": 3322,
        "contract": "contracts/UltimateFightingMetaverse.sol:UltimateFightingMetaverse",
        "label": "s_matches",
        "offset": 0,
        "slot": "19",
        "type": "t_mapping(t_uint256,t_struct(Match)3275_storage)"
      }
    ],
    "types": {
      "t_address": {
        "encoding": "inplace",
        "label": "address",
        "numberOfBytes": "20"
      },
      "t_array(t_uint256)dyn_storage": {
        "base": "t_uint256",
        "encoding": "dynamic_array",
        "label": "uint256[]",
        "numberOfBytes": "32"
      },
      "t_bool": {
        "encoding": "inplace",
        "label": "bool",
        "numberOfBytes": "1"
      },
      "t_bytes_memory_ptr": {
        "encoding": "bytes",
        "label": "bytes",
        "numberOfBytes": "32"
      },
      "t_enum(Rarities)3254": {
        "encoding": "inplace",
        "label": "enum UltimateFightingMetaverse.Rarities",
        "numberOfBytes": "1"
      },
      "t_mapping(t_address,t_bool)": {
        "encoding": "mapping",
        "key": "t_address",
        "label": "mapping(address => bool)",
        "numberOfBytes": "32",
        "value": "t_bool"
      },
      "t_mapping(t_address,t_mapping(t_address,t_bool))": {
        "encoding": "mapping",
        "key": "t_address",
        "label": "mapping(address => mapping(address => bool))",
        "numberOfBytes": "32",
        "value": "t_mapping(t_address,t_bool)"
      },
      "t_mapping(t_address,t_mapping(t_uint256,t_uint256))": {
        "encoding": "mapping",
        "key": "t_address",
        "label": "mapping(address => mapping(uint256 => uint256))",
        "numberOfBytes": "32",
        "value": "t_mapping(t_uint256,t_uint256)"
      },
      "t_mapping(t_address,t_uint256)": {
        "encoding": "mapping",
        "key": "t_address",
        "label": "mapping(address => uint256)",
        "numberOfBytes": "32",
        "value": "t_uint256"
      },
      "t_mapping(t_bytes_memory_ptr,t_struct(TraitAdjustmentByRarity)3280_storage)": {
        "encoding": "mapping",
        "key": "t_bytes_memory_ptr",
        "label": "mapping(bytes => struct UltimateFightingMetaverse.TraitAdjustmentByRarity)",
        "numberOfBytes": "32",
        "value": "t_struct(TraitAdjustmentByRarity)3280_storage"
      },
      "t_mapping(t_uint256,t_address)": {
        "encoding": "mapping",
        "key": "t_uint256",
        "label": "mapping(uint256 => address)",
        "numberOfBytes": "32",
        "value": "t_address"
      },
      "t_mapping(t_uint256,t_string_storage)": {
        "encoding": "mapping",
        "key": "t_uint256",
        "label": "mapping(uint256 => string)",
        "numberOfBytes": "32",
        "value": "t_string_storage"
      },
      "t_mapping(t_uint256,t_struct(Match)3275_storage)": {
        "encoding": "mapping",
        "key": "t_uint256",
        "label": "mapping(uint256 => struct UltimateFightingMetaverse.Match)",
        "numberOfBytes": "32",
        "value": "t_struct(Match)3275_storage"
      },
      "t_mapping(t_uint256,t_struct(Stats)3266_storage)": {
        "encoding": "mapping",
        "key": "t_uint256",
        "label": "mapping(uint256 => struct UltimateFightingMetaverse.Stats)",
        "numberOfBytes": "32",
        "value": "t_struct(Stats)3266_storage"
      },
      "t_mapping(t_uint256,t_uint256)": {
        "encoding": "mapping",
        "key": "t_uint256",
        "label": "mapping(uint256 => uint256)",
        "numberOfBytes": "32",
        "value": "t_uint256"
      },
      "t_mapping(t_uint8,t_struct(Match)3275_storage)": {
        "encoding": "mapping",
        "key": "t_uint8",
        "label": "mapping(uint8 => struct UltimateFightingMetaverse.Match)",
        "numberOfBytes": "32",
        "value": "t_struct(Match)3275_storage"
      },
      "t_string_storage": {
        "encoding": "bytes",
        "label": "string",
        "numberOfBytes": "32"
      },
      "t_struct(Counter)2086_storage": {
        "encoding": "inplace",
        "label": "struct Counters.Counter",
        "members": [
          {
            "astId": 2085,
            "contract": "contracts/UltimateFightingMetaverse.sol:UltimateFightingMetaverse",
            "label": "_value",
            "offset": 0,
            "slot": "0",
            "type": "t_uint256"
          }
        ],
        "numberOfBytes": "32"
      },
      "t_struct(Match)3275_storage": {
        "encoding": "inplace",
        "label": "struct UltimateFightingMetaverse.Match",
        "members": [
          {
            "astId": 3268,
            "contract": "contracts/UltimateFightingMetaverse.sol:UltimateFightingMetaverse",
            "label": "matchId",
            "offset": 0,
            "slot": "0",
            "type": "t_uint256"
          },
          {
            "astId": 3270,
            "contract": "contracts/UltimateFightingMetaverse.sol:UltimateFightingMetaverse",
            "label": "tokenId1",
            "offset": 0,
            "slot": "1",
            "type": "t_uint256"
          },
          {
            "astId": 3272,
            "contract": "contracts/UltimateFightingMetaverse.sol:UltimateFightingMetaverse",
            "label": "tokenId2",
            "offset": 0,
            "slot": "2",
            "type": "t_uint256"
          },
          {
            "astId": 3274,
            "contract": "contracts/UltimateFightingMetaverse.sol:UltimateFightingMetaverse",
            "label": "winnerId",
            "offset": 0,
            "slot": "3",
            "type": "t_uint256"
          }
        ],
        "numberOfBytes": "128"
      },
      "t_struct(Stats)3266_storage": {
        "encoding": "inplace",
        "label": "struct UltimateFightingMetaverse.Stats",
        "members": [
          {
            "astId": 3256,
            "contract": "contracts/UltimateFightingMetaverse.sol:UltimateFightingMetaverse",
            "label": "strength",
            "offset": 0,
            "slot": "0",
            "type": "t_uint256"
          },
          {
            "astId": 3258,
            "contract": "contracts/UltimateFightingMetaverse.sol:UltimateFightingMetaverse",
            "label": "stamina",
            "offset": 0,
            "slot": "1",
            "type": "t_uint256"
          },
          {
            "astId": 3260,
            "contract": "contracts/UltimateFightingMetaverse.sol:UltimateFightingMetaverse",
            "label": "technique",
            "offset": 0,
            "slot": "2",
            "type": "t_uint256"
          },
          {
            "astId": 3263,
            "contract": "contracts/UltimateFightingMetaverse.sol:UltimateFightingMetaverse",
            "label": "rarity",
            "offset": 0,
            "slot": "3",
            "type": "t_enum(Rarities)3254"
          },
          {
            "astId": 3265,
            "contract": "contracts/UltimateFightingMetaverse.sol:UltimateFightingMetaverse",
            "label": "victories",
            "offset": 0,
            "slot": "4",
            "type": "t_uint256"
          }
        ],
        "numberOfBytes": "160"
      },
      "t_struct(TraitAdjustmentByRarity)3280_storage": {
        "encoding": "inplace",
        "label": "struct UltimateFightingMetaverse.TraitAdjustmentByRarity",
        "members": [
          {
            "astId": 3277,
            "contract": "contracts/UltimateFightingMetaverse.sol:UltimateFightingMetaverse",
            "label": "low",
            "offset": 0,
            "slot": "0",
            "type": "t_uint8"
          },
          {
            "astId": 3279,
            "contract": "contracts/UltimateFightingMetaverse.sol:UltimateFightingMetaverse",
            "label": "high",
            "offset": 1,
            "slot": "0",
            "type": "t_uint8"
          }
        ],
        "numberOfBytes": "32"
      },
      "t_uint256": {
        "encoding": "inplace",
        "label": "uint256",
        "numberOfBytes": "32"
      },
      "t_uint8": {
        "encoding": "inplace",
        "label": "uint8",
        "numberOfBytes": "1"
      }
    }
  }
}